:020000040800F2
:10000000001800201D140008C5050008C7050008D9
:1000100000000000000000000000000000000000E0
:100020000000000000000000000000008D14000827
:1000300000000000000000008D140008C905000841
:100040008D1400088D1400088D1400088D1400080C
:100050008D1400088D1400088D1400088D140008FC
:100060008D1400088D1400088D1400088D140008EC
:100070008D1400088D1400088D1400088D140008DC
:100080008D14000800000000000000008D1400081E
:10009000000000008D1400088D1400088D14000865
:1000A000000000008D1400088D1400088D14000855
:1000B0008D140008000000008D1400088D14000845
:1000C00008B5054B054803331B1A062B03D9044B0F
:1000D000002B00D0984708BD3004002030040020D9
:1000E000000000000648074908B5091A8910CB0F1F
:1000F0005918491003D0044B002B00D0984708BD75
:1001000030040020300400200000000010B5074C2F
:100110002378002B09D1FFF7D3FF054B002B02D02A
:10012000044800E000BF0123237010BD300400200C
:10013000000000008416000808B5094B002B03D00E
:100140000848094900E000BF08480368002B02D1B5
:10015000FFF7C8FF08BD064B002BF9D09847F7E71B
:100160000000000084160008340400203004002041
:1001700000000000002243088B4274D303098B4225
:100180005FD3030A8B4244D3030B8B4228D3030C67
:100190008B420DD3FF22090212BA030C8B4202D309
:1001A0001212090265D0030B8B4219D300E0090A31
:1001B000C30B8B4201D3CB03C01A5241830B8B423A
:1001C00001D38B03C01A5241430B8B4201D34B0323
:1001D000C01A5241030B8B4201D30B03C01A524188
:1001E000C30A8B4201D3CB02C01A5241830A8B420D
:1001F00001D38B02C01A5241430A8B4201D34B02F6
:10020000C01A5241030A8B4201D30B02C01A524159
:10021000CDD2C3098B4201D3CB01C01A524183090D
:100220008B4201D38B01C01A524143098B4201D347
:100230004B01C01A524103098B4201D30B01C01A72
:100240005241C3088B4201D3CB00C01A52418308EC
:100250008B4201D38B00C01A524143088B4201D319
:100260004B00C01A5241411A00D201465241104679
:100270007047FFE701B5002000F00CF802BDC04652
:100280000029F7D003B5FFF775FF0EBC4243891A6A
:100290001847C0467047C046837942791B02134312
:1002A000014A13807047C0468C04002007B50549F9
:1002B0000622684601F032F903486946052200F03B
:1002C000F5F807BDBC1600086C040020302330B5DB
:1002D0000024012593B0059305A8203B0B930C95B2
:1002E0000A950E9400F040FD0723291C019301A8F4
:1002F000043B02930394049400F074FF01F04AF865
:10030000FA218900FFF736FF00F042FB042000F0DD
:1003100059FB0120211C4042221C00F007FB13B0B6
:1003200030BD000010B500F031FAFFF7CFFFC0215B
:10033000374BC9025A69C0200A435A619022D2053C
:10034000916980030143A02091611168C0000143BD
:10035000E02011601168C00101430C2011602D499B
:100360001C1C0A6802430A6080219A6989000A43BA
:1003700001219A615A6B0A435A63636B9B0703D44A
:10038000012000F021FAF8E7234B01211C1C9A6898
:100390000A439A60012023681F4A034202D100F0F9
:1003A00013FAF7E71369F8219B009B081361802378
:1003B0001A4C9B009362201CC900002200F038F800
:1003C000FE239621DB00201CC900154A238000F083
:1003D0004FF8201C1349144A00F04AF8002400F09A
:1003E00083F8124B1A888C235B0053431B0B143386
:1003F0001B1B002B06DC902210210024D205536920
:100400004B4053610120013400F0DEF9E7E7C046BC
:100410000010024000040048002401406C04002049
:1004200099020008EF070000AD0200088C040020CC
:1004300038B5041C0D1C00F0CDF800F0EBF80022DC
:10044000094B0A491A605A609A600A70201E90424D
:1004500008D0012220885242A583A280E280228116
:1004600062811C6038BDC046500400204C0400204E
:1004700070B50C4C0023A14212D89A4210D05C00F7
:100480000419A688084DAE4206D102339B00C0185D
:10049000A1800123426003E00133042BEFD100234C
:1004A000181C70BDFF070000FFFF00007FB502248D
:1004B000072A15D81E3401AB1C710024E5B2954201
:1004C00004D20E5D1D196E710134F7E7002401326C
:1004D0009A7002880521181CDC701A8000F0C4F89C
:1004E000201C04B070BD0000F8B5002000F026F913
:1004F000002820D0104D0521281C00F0FFF8002412
:100500000E4FE359002B13D00026395972008A1878
:1005100028889388984205D1B31C9B00CB185B6850
:10052000281C98470136042EEFD104340C2CE7D157
:100530000022034B1A70F8BD5C0400205004002018
:100540004C040020012307B5094A0120916940426B
:100550001943916100219269134001930A1C019B88
:1005600000F0E4F91021034A13680B43136007BD40
:1005700000100240000001407FB502680F4B9A4214
:1005800019D180230E4A9B04D16990201943D1616F
:10059000D269C00513400093009BC0235B01019307
:1005A00002230293002303930333049301A901332D
:1005B000059300F015F907B000BDC0460064004087
:1005C000001002407047FEE708B500F0EFF800F0B9
:1005D00008FA08BD00220121094B1A60D96119628D
:1005E0005A609A60DA609A615A611A615A62054BE0
:1005F0002F311960044B05491960054B1A7070477B
:10060000D8040020900400209404002000640040DE
:10061000D404002038B5104D2B78002B1BD10F4A85
:100620000F4C1268201C6260C0229202226180225C
:100630009203A360E360A361E36123626362A36248
:10064000E3622363626100F041FA201C054900F077
:10065000CDF901232B7038BDD40400209004002074
:1006600094040020D8040020F7B50022131C21496F
:1006700018331B015C5801231C4004D0D218032AF4
:10068000F4D1022034E0C02502270688194B11015D
:10069000CB186D0076055E515E593E435E518678FB
:1006A000723DFF3D3540C22676009D51124D071D1B
:1006B000491945074C600C60291A01910E4C110133
:1006C0000919019C057A0419E400A5404E6801301F
:1006D0002E434E60C5780E68A5402C1C34430C6038
:1006E000B842EBD1C021012049005A5802435A5068
:1006F000FEBDC046006400408865004030B5051C62
:100700008BB00D480A1C01AC0021446300F077FA5D
:10071000019B2B80E368023B59425941237CE970DD
:10072000AB700023E118097DEA1801331171082B21
:10073000F8D10BB030BDC04694040020021C00204C
:10074000074B1B7883420AD0064B1B68824201D1BB
:10075000D86800E01869032318404042C00F704772
:10076000D40400209404002010B5041C00F012FEF4
:10077000FA218900FFF7FEFC00F00AF90120211C94
:100780004042002200F0D2F8002010BD1021064A9D
:1007900008B5136800200B431360FFF7E5FFFFF770
:1007A000D1FE002008BDC04600200240024A136866
:1007B000013313607047C04668040020014B18687D
:1007C0007047C0466804002013B50190FFF7F6FF9C
:1007D000041CFFF7F3FF019B001B9842F9D313BDE4
:1007E000F0B50B6887B0029300230191029ADA40BA
:1007F00000D18FE001229A40029C1440009400D165
:1008000086E0019A10245268171CA743022F0ED1CC
:1008100007250F211D40AD00A940DC08A4000419E4
:10082000266A8E4301990969A9400E432662032472
:10083000251C5E00B5401440ED43B4400168013F03
:1008400029400C430460012F0FD801998768CC68B8
:100850002F40B4403C43846001249C404768A74338
:10086000D406E40F9C403C4344600199C468896805
:100870002540B1400D43C560D10049D50127264C24
:100880000326A5691E403D43A5610F25B600B5406E
:10089000A46922493C400594059C9C08A400641866
:1008A000A168A943039190210025C905884208D079
:1008B0003D1C1B4FB84204D01A4F6D19B84200D0EE
:1008C0000335B54003990D430099A5600E1C164CE5
:1008D000CD4327683E43D10301D43E1C2E40266001
:1008E0006768009E3E43910301D43E1C2E40666023
:1008F000A768009E3E43D10201D43E1C2E40A66054
:10090000E668009F3743920201D42E40371CE7600F
:1009100001336BE707B0F0BD00100240000001405A
:1009200000040048000800480004014070B5890137
:10093000002815DA0F23C0B20340083B124A9B0877
:1009400003249B009B18FF222040A040141C8440DD
:10095000DD691140A54381402A1C0A43DA6112E097
:1009600084080A4B0326A400E418FF233040B0405B
:100970001E1CC0258640AD0062591940B24381401B
:10098000131C0B43635170BD00ED00E000E100E07B
:10099000094A431E012093420DD8C020074A084946
:1009A00053600B6A00061B021B0A03430B62002004
:1009B0000723906013607047FFFFFF0010E000E026
:1009C00000ED00E0054B1A68042802D110431860BE
:1009D00002E004218A431A607047C04610E000E03C
:1009E000704708B5FFF7FCFF08BD000070B5012691
:1009F000341C036880204A69800094401D583543A8
:100A00001D501E58304D35401D504E6A1D5836023F
:100A1000354387261D50E043B6009D5905409D5142
:100A2000CD69002D0ED1103E9D59D20005409D513B
:100A3000CD688E882D04354390269A18B6009551BE
:100A40000E8810E0012D14D18326B6009D59D200E6
:100A500025439D510D688E882D04354390269A18A4
:100A6000B60095518E898D682D0435439126B600C8
:100A7000955181228D699200002D02D19D5805402B
:100A800001E09D5825439D500A69002A05D1852221
:100A900092009D582840985006E0012A04D18520F4
:100AA00080001A5822431A500A6A012A04D1872169
:100AB00089005A5814435C508021012089005A58FB
:100AC00082435A50002070BDFFC0FFFFF8B50123DC
:100AD000002800D191E0051C39352B78041CDBB2CD
:100AE000002B04D1021C38321370FFF745FD0221A0
:100AF000236829701A688A431A601A6801390A4300
:100B00001A60FFF75BFE071C012223685E6816402F
:100B100009D1FFF753FEC01B0A28F5D90323383447
:100B20002B70267069E05968114263D0A269802158
:100B3000012A02D11A680A4301E01A688A431A603E
:100B4000E2694021012A02D11A680A4301E01A68C9
:100B50008A431A60226A2021012A02D11A680A43B4
:100B600001E01A688A431A60626A1021012A02D1E0
:100B70001A680A4301E01A688A431A60A26A0821C7
:100B8000012A02D11A680A4301E01A688A431A60EE
:100B9000E26A0421012A02D11A680A4301E01A68B4
:100BA0008A431A60A168E2680A4321690A436169BD
:100BB0000A43616801390A430121DA611A688A43EC
:100BC0001A60FFF7FBFD061C0122236859681142D9
:100BD0000AD0FFF7F3FD801B0A28F5D90323002272
:100BE00038342B70227008E05B68134002D1E36355
:100BF0002A7002E004232B70033B181CF8BDF7B5E4
:100C0000061C383634780223012C00D1AAE0071CD8
:100C1000013B337039373B78122B01D1203300E090
:100C200022233B700D1C0092041CFFF7C7FD0190AE
:100C30002268002D01D1D16800E011690323194019
:100C40004B424B41DBB2002B12D0009B0133EFD063
:100C5000009B002B04D1032300223B70327081E003
:100C6000FFF7ACFD019BC01A009B9842E0D9F2E768
:100C7000D8202B014000D3181F58616BBC460427B5
:100C800060460740D8208F604000002F03D11F58D6
:100C90007F0D0F6002E01F58FF084F601F580220B1
:100CA0003840C860DA204000185884460F20674654
:100CB00038400861DA2040001B581B0ADBB2CB61C8
:100CC0002B01D218B932FF3212680A752268616BA3
:100CD000D218B932FF321268120A4A752268616B63
:100CE000D218B932FF321268120C8A752268616B11
:100CF000D218B932FF321268120ECA752268616BBF
:100D0000D218B932FF3252680A762268616BD21863
:100D1000B932FF325268120A4A762268616BD218E1
:100D2000B932FF325268120C8A762268D318B9336E
:100D3000FF335B68626B1B0ED37623682022002D85
:100D400003D1D9680A43DA6002E019690A431A61DB
:100D500039342378322B01D1203B00E0012323706A
:100D600000233370181CFEBDF0B5036885B0041C69
:100D7000DB0703D423689B075CD4A6E00C23C04D9B
:100D80006A681A40042A0BD06A681340082B0ED1F7
:100D9000C0236A685B02134080225202934206D14C
:100DA0002B689B03E6D56368002BE3D18FE12B68AA
:100DB000B44FB54E3B402B602B6833402B60FFF7A0
:100DC000FDFC01902A68AE4B920307D5FFF7F6FCB5
:100DD000019BC01A6428F5D90320F8E16268012A52
:100DE00012D0002A09D11A6817401F601A681640ED
:100DF0001E60FFF7E3FC061C18E0052A0AD18021DB
:100E00001A68C9020A431A6080211A6849020A4313
:100E10001A60CBE11A6817401F601A6816401E60FE
:100E2000C4E1FFF7CBFC801B6428D5D82B689B035B
:100E3000F7D49FE70C23924D6A681A420BD06A6878
:100E40001340082B16D1C0236A685B02134080222E
:100E5000120293420ED12B689B0703D5E368012B46
:100E600000D034E1F8212B6822698B43D200134370
:100E70002B602AE0E3680122002B17D02B68134374
:100E80002B60FFF79BFC061C2B687D499B0705D454
:100E9000FFF794FC801B0228F6D99DE7F8200B6829
:100EA00022698343D20013430B600EE02B68934307
:100EB0002B60FFF783FC061C2B689B0705D5FFF70B
:100EC0007DFC801B0228F7D986E723681B0703D423
:100ED00023685B072DD530E0236A0122684D002B83
:100EE0000ED06B6A13436B62FFF768FC061C6B6ADB
:100EF0009B07EDD4FFF762FC801B0228F7D96BE754
:100F00006B6A93436B62FFF759FC061C6B6A9B0785
:100F1000DED5FFF753FC801B0228F7D95CE7FFF70B
:100F20004DFC5A4B801B984200D955E72B6A9B0712
:100F3000F5D52368DB0663D4ACE08023504D5B0518
:100F4000EA69534E1A43EA61EA6913408022039327
:100F5000039B3368520013433360FFF72FFC071CD9
:100F60003368DB0505D4FFF729FCC01B6428F7D9DB
:100F700032E701222B6A93432B622B6A033293439D
:100F80002B62FFF71BFC061C2A6A3D4B920706D515
:100F9000FFF714FC3D4B801B9842F5D91CE7A26873
:100FA000012A02D1196A0A431DE00121002A0AD14F
:100FB0001A6A8A431A621A6A03318A431A62FFF76D
:100FC000FDFB061C18E0052A07D104201A6A02431B
:100FD0001A621A6A11431962F5E01A6A8A430421F7
:100FE0001A621A6A8A431A62EDE0FFF7E7FB274BA1
:100FF000801B984200D9EFE62B6A9B07F5D498E74F
:1010000062691F4D0423012A1AD1696B0B436B637C
:101010006B6B1A436A63FFF7D1FB061C6B6B1849B5
:101020009B0705D4FFF7CAFB801B0228F6D9D3E63D
:10103000F8204B6BA2698343D20013434B6329E032
:1010400005320AD1F8216A6B9A436A636B6BA26915
:101050008B43D20013436B631CE06A6B1343012282
:101060006B636B6B93436B63FFF7A8FB061C6B6BA7
:101070009B070FD5FFF7A2FB801B0228F7D9ABE631
:1010800000100240FFFFFEFFFFFFFBFF8813000080
:101090000070004023689B0603D4626A002A3CD19A
:1010A00067E00C234B4D6A681A409A4209D06A687F
:1010B0001340082B0DD1C0226B685202134093429B
:1010C00007D16B6BDB03E8D5E369012BE5D0012089
:1010D0007DE0E369002B10D080226B6B520213433A
:1010E0006B63FFF76BFB061C6B6BDB03D5D4FFF761
:1010F00065FB801B0228F7D96EE66A6B364B1340FE
:101100006B63FFF75BFB061C6B6BDB03C5D5FFF75F
:1011100055FB801B0228F7D95EE60C232D4D69682C
:101120000B40082BD3D02D4B022A30D12A68134014
:101130002B60FFF743FB061C2A68264B92011AD44A
:101140000F21DA6A8A43216B0A43DA62E16AA06AF4
:101150005A68084322490A40802102435A601A68AB
:1011600049040A431A60FFF729FB041C2B689B0102
:1011700007D500202BE0FFF721FB801B0228DBD9DD
:101180002AE6FFF71BFB001B0228EFD924E62A689A
:1011900013402B60FFF712FB041C2B689B01E8D562
:1011A000FFF70CFB001B0228F7D915E6FFF706FB3B
:1011B000061C2B689B0300D5DCE5FFF7FFFA801BBC
:1011C0006428F6D908E6FFF7F9FA061CAEE605B082
:1011D000F0BDC04600100240FFFFFEFFFFFFFFFE14
:1011E000FF7FC2FF0123F7B5484E32681A40914293
:1011F0000AD80268930711D5F025454C6368AB43C4
:1012000085682B43636009E032689A430A43326081
:10121000326813408B42ECD0012075E00191051C2F
:10122000D30707D4012331680198384A194088420E
:1012300056D35BE04368364C012B03D122689203FE
:101240000FD4E9E7022B03D12268920109D4E3E726
:10125000032B03D1626BD20303D4DDE7226892072C
:10126000DAD5032162688A4313436360FFF7A6FA65
:101270006B68071C012B0CD10C2362681340042BF4
:10128000D0D0FFF79BFA234BC01B9842F4D9032020
:101290003AE0022B0BD10C2362681340082BC1D01B
:1012A000FFF78CFA1B4BC01B9842F4D9EFE7032BD6
:1012B00011D10C23626813400C2BB3D0FFF77EFAD8
:1012C000144BC01B9842F4D9E1E7FFF777FA114BB2
:1012D000C01B9842DBD80C2362681A42F5D1A1E703
:1012E00011689943116012681A4295D12B685B0707
:1012F00006D50749084B4A681340EA6813434B6018
:101300000020FFF731FA0020FEBDC0460020024059
:101310000010024088130000FFF8FFFF30B5194CA1
:1013200089B0211C1022684600F0F8F8211C04AD99
:1013300010311022281C00F0F1F80C2212494B68E1
:101340001A40082A03D00C2A19D1104818E0684620
:101350009A02120F845C0F22C96A80200A40A95C9D
:10136000C022520213404002834206D0934204D16D
:101370000648FEF7FFFE604302E00548F9E704482F
:1013800009B030BD9C16000800100240006CDC0261
:1013900000127A0008B5FFF7C1FF054B054A5B68EC
:1013A0001B061B0FD35CD840034B186008BDC0461A
:1013B00000100240C2160008000000200121114B5D
:1013C0001A680A431A6058680F4A02405A6018683F
:1013D0000E4A02401A6018680D4A02401A605868A6
:1013E0000C4A02400F205A60DA6A8243DA62186BB4
:1013F000094A02401A635A6B8A435A6300229A6070
:101400007047C046001002400CB8FF08FFFFF6FE10
:10141000FFFFFBFFFFFFC0FF2CFEFFFF13488546C9
:1014200004200168090E1F22914205D110480121B4
:101430000160104800210160002103E00E4B5B5861
:10144000435004310D480E4B42189A42F6D30D4AD0
:1014500002E00023136004320B4B9A42F9D3FFF7EA
:10146000ADFF00F037F8FEF75DFFFEE70018002043
:101470001810024000000140E8160008000000209B
:10148000300400203004002000050020FEE70000AA
:1014900008B5011C00220020002300F07DF808BDE3
:1014A00038B5094B094CE41AA41009D0084AA5180C
:1014B000AD00ED182B68013C9847043D002CF9D194
:1014C00000F0E6F838BDC046E4160008E81600084B
:1014D000FFFFFF3F70B50D4E0D4D0024AD1BAD104D
:1014E00005D0A300F35801349847A542F9D100F084
:1014F000C9F8084E084D0024AD1BAD1005D0A3005F
:10150000F35801349847A542F9D170BDDC160008A4
:10151000DC160008DC160008E416000870B50F2A77
:1015200032D9041C0C430B1CA40731D1151C041C1C
:10153000103D2D0901352D0149191E6826605E6890
:1015400066609E68A660DE681033E66010349942DB
:10155000F3D10F2345191340032B1BD91C1F002364
:10156000A4080134A400CE58EE500433A342FAD1AB
:10157000ED18C91803231A4005D00023CC5CEC54A5
:1015800001339342FAD170BD051C002AF5D1FAE768
:10159000051CF2E71A1CF8E7F8B544465F465646C4
:1015A0004D469B462F4BF0B41C68A4235B00051CE2
:1015B000E0580E1C904600284BD043681F2B0DDCD2
:1015C0005C1C002D21D102339B0044601E50002082
:1015D0003CBC90469946A246AB46F8BD224B002B38
:1015E0003CD0C820400000E000BF002836D0A42234
:1015F00000235200A15843600160A0504032835044
:10160000043283500124002DDDD09A00914681449C
:10161000424688214F467A50C42252009046804468
:1016200042468739994012688A460A4394464246A0
:1016300061461160842249465F4652008F50022D58
:10164000C1D1021C55468D32FF3211680D43156021
:10165000B9E7201C4D30FF30E050AEE7012040429A
:10166000B6E7C046D81600080000000008B5034BD6
:10167000002B02D00248FFF70BFF08BD000000005E
:10168000A1140008F8B5C046F8BC08BC9E467047D7
:0C169000F8B5C046F8BC08BC9E46704788
:10169C0002030405060708090A0B0C0D0E0F1010A7
:1016AC000102030405060708090A0B0C0D0E0F10A6
:1016BC0050756E6B21000000000001020304010252
:1016CC00030406070809000043000000080000207E
:0816DC006D1600083901000839
:0416E4000D010008EC
:1016E80000127A000000000000000000F402002050
:1016F8005C030020C403002000000000000000007C
:1017080000000000000000000000000000000000D1
:10171800000000000000000000000000D4160008CF
:1017280000000000000000000000000000000000B1
:1017380000000000000000000000000000000000A1
:101748000000000000000000000000000000000091
:101758000000000000000000000000000000000081
:101768000000000000000000000000000000000071
:101778000000000000000000000000000000000061
:101788000000000000000000000000000000000051
:1017980001000000000000000E33CDAB34126DE6EE
:1017A800ECDE05000B000000000000000000000057
:1017B8000000000000000000000000000000000021
:1017C8000000000000000000000000000000000011
:1017D8000000000000000000000000000000000001
:1017E80000000000000000000000000000000000F1
:040000050800141DBE
:00000001FF
