:020000040800F2
:1000000000180020DD5D0008850300088703000854
:1000100000000000000000000000000000000000E0
:100020000000000000000000000000004D5E00081D
:1000300000000000000000004D5E00088903000879
:100040004D5E00084D5E00084D5E00084D5E0008E4
:100050004D5E00084D5E00084D5E00084D5E0008D4
:100060004D5E00084D5E00084D5E00084D5E0008C4
:100070004D5E00084D5E00084D5E00084D5E0008B4
:100080004D5E000800000000000000004D5E00080A
:10009000000000004D5E00084D5E00084D5E000847
:1000A000000000004D5E00084D5E00084D5E000837
:1000B0004D5E0008000000004D5E00084D5E000827
:1000C00008B5054B054803331B1A062B03D9044B0F
:1000D000002B00D0984708BD3804002038040020C9
:1000E000000000000648074908B5091A8910CB0F1F
:1000F0005918491003D0044B002B00D0984708BD75
:1001000038040020380400200000000010B5074C1F
:100110002378002B09D1FFF7D3FF054B002B02D02A
:10012000044800E000BF0123237010BD3804002004
:1001300000000000FC61000808B5094B002B03D04B
:100140000848094900E000BF08480368002B02D1B5
:10015000FFF7C8FF08BD064B002BF9D09847F7E71B
:1001600000000000FC6100083C0400203404002072
:1001700000000000144B002B00D1124B9D46402282
:1001800092029A1A924600218B460F461148124A53
:10019000121A05F0F1FE0D4B002B00D098470C4BC6
:1001A000002B00D098470020002104000D000B48D0
:1001B00005F04EFE05F07EFE2000290005F096FDBC
:1001C00005F04EFE000008000000000000000000E6
:1001D0000000000038040020E8040020815E0008D0
:1001E0008C235B005843000B14307047302330B52C
:1001F0000024012593B0059305A8203B0B930C9593
:100200000A950E9404F084FD0723291C019301A88C
:10021000043B02930394049404F0B8FF05F0CEF875
:10022000FA21890005F0C4FC01F040FA042001F035
:1002300095FA0120211C4042221C01F0E3F913B081
:1002400030BD0000012307B5094A012091694042F1
:100250001943916100219269134001930A1C019B8B
:1002600001F0D0F91021034A13680B43136007BD56
:10027000001002400000014030B50268114B87B009
:100280009A421CD18023104A9B0091699020194307
:1002900091619269032513400093009B0024C023C1
:1002A000C00501A901930295039401F071F802239E
:1002B000064801A901930295039401F069F807B07B
:1002C00030BDC04600240140001002400004004838
:1002D00008B50268084B9A420DD19020074A084B96
:1002E0009169C0050B409361C02101F0F7F8054802
:1002F000022101F0F3F808BD002401400010024083
:10030000FFFDFFFF000400487FB502680F4B9A42D3
:1003100019D180230E4A9B04D16990201943D161E1
:10032000D269C00513400093009BC0235B01019379
:1003300002230293002303930333049301A901339F
:10034000059301F025F807B000BDC04600640040E9
:100350000010024008B50268074B9A420AD1074ACA
:10036000074BD16990200B40C021D361C0054901E2
:1003700001F0B4F808BDC04600640040001002401F
:10038000FFFFFFFD7047FEE708B500F0B9FA01F086
:10039000F4F908BD00220121094B1A60D9611962E4
:1003A0005A609A60DA609A615A611A615A62054B22
:1003B0002F311960044B05491960054B1A707047BD
:1003C000A0040020580400205C04002000640040C9
:1003D0009C04002038B5104D2B78002B1BD10F4A00
:1003E0000F4C1268201C6260C0229202226180229F
:1003F0009203A360E360A361E36123626362A3628B
:10040000E3622363626101F024FD201C054901F0D1
:10041000AFFC01232B7038BD9C0400205804002041
:100420005C040020A004002000B508281BD80E4B57
:1004300005F0B4FB05080B0D0F11131517009622DC
:1004400092000FE0962252000CE078220AE03C2253
:1004500008E0302206E0182204E00C2202E0082224
:1004600000E006221A6000BD58040020064B1B78ED
:10047000012B07D0054B002803D0802212069A607A
:1004800000E098607047C0469C0400205C04002097
:1004900008B5034B1863181C01F086FD08BDC04663
:1004A0005C04002008B5044B0A1C58630021181C8A
:1004B00001F0D1FE08BDC0465C040020021C0020F3
:1004C000074B1B7883420AD0064B1B68824201D13E
:1004D000D86800E01869032318404042C00F7047F5
:1004E0009C0400205C0400200368F7B5051CDB03B6
:1004F00047D58023364C5B05E269364E1A43E261EC
:10050000E269134080220193019B33685200134338
:10051000336000F0FDF9071C3368DB0506D400F0FA
:10052000F7F9C01B6428F7D9032050E06968226AF4
:10053000274B4A40C02189000A4222D08027196AED
:100540001A6A081C7F023A431A621F6A224E234A23
:1005500030403A401A6218628B0705D4236A1E4065
:100560006B681E4326620CE000F0D2F9071C236A78
:100570009B07F3D400F0CCF9194BC01B9842F6D975
:10058000D2E72B68DA0706D5032011490A6B8243AC
:10059000A86802430A639A0606D510200C490A6B24
:1005A0008243E86802430A639A0306D5802008491B
:1005B0000A6B8243686902430A6300205B0506D523
:1005C000402203490B6B93432A6913430B63FEBD1F
:1005D0000010024000700040FFFCFFFFFFFFFEFF25
:1005E00088130000C0220C4B9200196A0A40426036
:1005F0000322196B0A4082601022196B0A40C26004
:100600008022196B0A404261044A02601A6B40233F
:10061000134003617047C0460010024021040300EC
:100620008022F8B5D20090426FD0031E934204D8C6
:10063000012827D0202837D07BE080256D02A842F2
:1006400004D080229202904236D072E0C0218020F5
:10065000394A8900136A40000B40834264D08020ED
:100660008000834206D10223526A1340181E61D0D3
:1006700032485FE000208B425CD113689B0359D560
:100680002F4857E003232C4A116B0B4002D104F092
:10069000ABFE4FE0032B02D11268013B3CE0012B83
:1006A00042D104F04FFE45E01023234A116B0B406A
:1006B00030D0102B3DD1F4E780211F4A106B014050
:1006C00080291AD1136800209B0133D5C0270F233E
:1006D00050685668D16A80027F02000F19403E4080
:1006E000841C0131AE4203D0BE4201D1154800E066
:1006F000154805F05DFA60431CE00020814219D1E5
:10070000526B1A4216D00F4814E040230A4A116B6C
:100710000B4006D1126802331340181E0AD00A4853
:1007200008E00020402B05D1106A8007C00FC003ED
:1007300000E00020F8BDC04600100240409C0000D0
:1007400090D00300006CDC0200127A0080211C4B68
:1007500009051A690A431A6119691A4A0A401A6195
:10076000194B1A4A59680A405A605A6801680A4384
:100770005A605A6841680A435A605A6881680A4355
:100780005A605A68120E12065A605A68C1680A43C3
:100790005A6001695A6809040A435A6019680C4A88
:1007A0000A401A604269196812020A4340211A601D
:1007B0001A680A431A601A6820390A431A60704797
:1007C00000100240FFFFFFF7006C0040FFFFFF48F2
:1007D000FFC0FFFF8021024A13680B43136070477C
:1007E000006C0040084A53689BB2036013689B0486
:1007F0009B0E436093681B0C8360802392681B02EE
:100800001340C3607047C046006C004038B5041CFC
:1008100000F07EF8051C0020631C08D00130002C7D
:1008200005D000F075F8401B84428041404201220F
:10083000174B9968114202D00221DA600843022264
:100840009968114203D0042108431149CA609A688B
:10085000520504D52022042110430D4AD1609A6824
:10086000D20504D5082204211043094AD1609A68B0
:10087000920504D5102204211043054AD1609A68DC
:1008800008231A4201D0024AD3600028C3D038BDE1
:10089000006C004070477047012210B50024064BE1
:1008A00052421A611C61DA60DC609A629C62FFF756
:1008B000F2FF201C10BDC0460010024010B5041C01
:1008C00004F07CFDFA21890005F072F900F0EEFEDB
:1008D0000120211C4042002200F094FE002010BDA7
:1008E0001021064A08B5136800200B431360FFF778
:1008F000E5FFFFF7A7FC002008BDC046002002402E
:10090000024A1368013313607047C0465404002044
:10091000014B18687047C0465404002013B501907D
:10092000FFF7F6FF041CFFF7F3FF019B001B984243
:10093000F9D313BD0221024A13688B431360704739
:1009400010E000E00221024A13680B431360704775
:1009500010E000E00048704700010301014B1868F7
:10096000000C704700580140024B18680005000D4C
:100970007047C046005801400221024A53680B43A9
:1009800053607047005801400221024A53688B436C
:1009900053607047005801400421024A53680B43DA
:1009A00053607047005801400421024A53688B434A
:1009B00053607047005801400322036870B599687E
:1009C0000A40012A01D0002030E01968114202D10A
:1009D000DA681204F7D5052299680A40012A0AD17B
:1009E00002219A68051C0A439A6003221A60FFF7E5
:1009F0008FFF061C08E010220124436C134343645C
:100A0000836C2343836410E001242B689B6823429A
:100A1000D9D0FFF77DFF801B0228F5D910226B6C1F
:100A200013436B64AB6C2343AB64201C70BD002389
:100A3000032273B50193036899680A40012A07D11C
:100A40001968114201D0002036E0DA681204FAD4A5
:100A500099681A4A114208D010220124436C1343AA
:100A60004364836C2343836425E001219A68051C59
:100A70000A439A60124B1349186805F099F80190DF
:100A8000019B002B03D0019B013B0193F8E7FFF78B
:100A90003FFF061C01242B681B682342D3D1FFF7BC
:100AA00037FF801B0228F5D910226B6C13436B644F
:100AB000AB6C2343AB64201C76BDC046170000809E
:100AC0000400002040420F00042238B503689968F2
:100AD000114201D100201EE09968114206D09A68A7
:100AE000920703D410219A680A439A60041CFFF706
:100AF0000FFF051C23689B685B07EBD5FFF708FF1A
:100B0000401B0228F6D910220120636C1343636452
:100B1000A36C0343A36438BD7047F8B501230028D4
:100B200000D195E0436C041C002B05D1021C40321F
:100B300083641370FFF7A0FB636CDB0675D404229B
:100B400023689868104070D1616C424A0A400221C3
:100B50000A436264032299680A40012A6BD119682A
:100B6000114202D1DA68120465D5D9683A4A266A78
:100B70000A40DA60A26977039103E269D203114364
:100B8000626B551E6A1E9541E2682D030A43216976
:100B90003A43022900D10420216B49000A432A4329
:100BA000656A0243012D0CD1002E03D18021490238
:100BB0000A4306E02021606C08436064A16C29436D
:100BC000A164C220A16AFF30814202D0E06A0143E1
:100BD0000A43D968A56B1143D960802149058D422C
:100BE00002D0691E062907D8072158698843586131
:100BF0005869294001435961D968184B0B40934209
:100C000008D100230321A364626C8A4302390A439A
:100C100062641DE01222636C9343023A13436364DF
:100C20000123A26C1A43A26412E01022636C1343E6
:100C3000636401230CE01821DA688A43A1680A433F
:100C4000DA601969626889008908114319618CE7C3
:100C5000181CF8BDFDFEFFFF1902FEFFE7FF3F83F2
:100C6000704738B5012500283BD00222436C041C94
:100C700013434364FFF728FF051E08D1201CFFF72C
:100C80009BFE051E012D29D00123636401E001288C
:100C900024D09F212368201C5A688A435A60196017
:100CA000D968114A0A400721DA601A69920092084D
:100CB0001A615A698A435A61196A0C4A0A401A62CF
:100CC0009A6AD20CD2049A62094A0A4B11680B4004
:100CD0001360FFF7FDFA0023A3646364002340342C
:100CE0002370281C38BDC04600023E8300F000F08F
:100CF00008270140FFFF3FFE38B50368051C9B68CD
:100D000002205B0720D42C1C40342378012B1BD0FD
:100D100001232370EB69012B11D16A6C0B4B00206E
:100D2000134080220421520013436B642B68E43A81
:100D3000A86420701A609A680A439A6004E0281C2C
:100D4000FFF775FE0028E8D038BDC046FEF0FFFF73
:100D500070B5051C40352B78041C0220012B12D0E5
:100D60000126201C2E70FFF7AFFE002809D1201CA1
:100D7000FFF722FE002804D1626C034B134033437B
:100D8000636400232B7070BDFEFEFFFFF8B545695C
:100D9000082D0ED003680C25DA6801231A4208D00A
:100DA0002021426C40300A43426000220270181C2D
:100DB00047E00E1C041CFFF7ABFD071C23681A68F4
:100DC0002A4212D1721CFAD0002E08D10422636C80
:100DD00040341343636000230320237031E0FFF7A6
:100DE00097FDC01BB042E9D9F0E78021626C890011
:100DF0000A436264C022D968120111421BD1226ADF
:100E0000002A18D11A68120715D59A6852070AD411
:100E10000C215A688A435A60616C0A4A0A400121CF
:100E20000A43626407E02021626C0A436264A26C98
:100E30001F390A43A2640020A269824201D10C2218
:100E40001A60F8BDFEFEFFFFF8B5041C0D1C161C51
:100E5000FFF75EFD071C23681A682A40AA4212D0D9
:100E6000721CF9D0002E08D10422636C4034134365
:100E700063600023032023701DE0FFF749FDC01BC2
:100E8000B042E8D9F0E7802D06D18021626C49029A
:100E90000A4362641D600DE0626B012A08D1802163
:100EA000626CC9000A4302216264A26C0A43A26414
:100EB00010221A600020F8BD38B50368041C9B6836
:100EC00002205B072ED4251C40352B78012B29D01E
:100ED00001232B70E369012B16D1626C124B1C218C
:100EE0001340802252001343636400236269A364A9
:100EF0002B7023681960082A0CD104215A688A4390
:100F00005A605A68143106E0201CFFF790FD002853
:100F100008D1E2E75A680A43042100205A609A681F
:100F20000A439A6038BDC046FEF0FFFF70B5051C4D
:100F300040352B78041C0220012B17D00126201CE1
:100F40002E70FFF7C1FD00280ED11C212268201C45
:100F500053688B435360FFF72FFD002804D1626C68
:100F6000034B13403343636400232B7070BDC046B2
:100F7000FEFEFFFF0368F7B59B6802255B0738D4C8
:100F8000061C40363378012B33D001233370C369FC
:100F9000171C0191041C012B26D1626C164B0025F5
:100FA00013408022520013436364E06B134BA5642B
:100FB00035708362124B2168C362124BF03A0363AF
:100FC0001C230B604B6813434B60CB680F3A1343F1
:100FD000CB60019A40313B1C00F0CCFC042122681C
:100FE00093680B43936004E0FFF721FD0028D4D001
:100FF000051C281CFEBDC046FEF0FFFF8110000846
:10100000F310000801110008F8B5061C40363378CB
:101010000225012B2BD001273770041CFFF754FD4C
:10102000051E22D12268E06BD368BB43D36000F079
:10103000CCFC051E03D04022636C13436364102173
:10104000226853688B43536000280BD1201CFFF7A4
:10105000B3FC051E09D1626C064B134001221343F9
:10106000636402E0201CFFF7A7FC00233370281CF8
:10107000F8BDC046FEFEFFFF0368186C704770475E
:10108000502208B5436A596C11422AD180215A6C0A
:1010900089000A43C0215A641A680901D0680842CD
:1010A0001BD1196A002918D11168090715D5916853
:1010B00049070AD40C20516881435160596C0B4A8E
:1010C0000A4001210A435A6407E020215A6C0A436E
:1010D0005A649A6C1F390A439A64181CFFF7CFFFB1
:1010E00002E0DB6B1B6B984708BDC046FEFEFFFFAE
:1010F000704708B5406AFFF7FBFF08BD70477047AF
:101100004022406A08B5436C13434364836C3C3A05
:1011100013438364FFF7F3FF08BD042238B5036867
:10112000041C1968114202D05968114206D10822E4
:101130001968114231D0596811422ED0626CD20622
:1011400004D48021626C89000A436264C022D96899
:10115000120111421BD1226A002A18D11A68120703
:1011600015D59A6852070AD40C215A688A435A60E6
:10117000626C204B134001221343636407E020227A
:10118000636C13436364A36C1F3A1343A364201C72
:10119000FFF775FF0C2223681A60802523681A6800
:1011A0002A420CD05B682B4209D08022636C520229
:1011B00013436364201CFFF7A1FF23681D60102206
:1011C00023681968114214D05968114211D0626B1A
:1011D000012A02D0DA68D20708D50221A26C201CAD
:1011E0000A43A26410221A60FFF789FF10222368C5
:1011F0001A6038BDFEFEFFFFF7B50023041C019303
:1012000040342278866B0233012A62D00268013BA7
:10121000956823706D0756D42F484F680D68874234
:101220003AD0AB40976A3B43936280235B059E4272
:101230000FD0013E062E0CD907238868516919404A
:10124000884206D0516999435161516903400B436B
:1012500053612B1C103B022B33D8204B80211A6882
:10126000102D03D0112D03D0490402E0090400E041
:10127000C9030A431A60102D23D1194B1949186864
:1012800004F096FC0A2358430190019B002B18D0D0
:10129000019B013B0193F8E7AB40916A99432B1CFA
:1012A000103B9162022B0CD80C4A1168102D03D010
:1012B000112D03D00C4B02E00C4B00E00C4B0B400B
:1012C0001360002303E02021426C0A4342640022A1
:1012D0002270181CFEBDC046011000000827014006
:1012E0000400002040420F00FFFFFFFEFFFF7FFFD2
:1012F000FFFFBFFFF0B5041C40342378051C02201B
:10130000012B3BD001222B6800189E6822703040D0
:101310002DD1DD681A4ACE682A40DA60DA680D6895
:101320002A434D68AD062A43DA601822DD6815406D
:10133000AD08AE40351CDE681F6A32400E69920867
:101340009640321C0F4E2D043E401E621E6A3243F0
:101350002A4380251A628A681D60012A03D15A68CF
:1013600015435D6008E05A68AA435A6004E02021F2
:10137000101C6B6C0B436B6400232370F0BDC046E4
:10138000FFFF3F8300F000F0406C7047806C7047B7
:10139000F0B50B6887B0029300230191029ADA40FE
:1013A00000D18FE001229A40029C1440009400D1A9
:1013B00086E0019A10245268171CA743022F0ED111
:1013C00007250F211D40AD00A940DC08A400041929
:1013D000266A8E4301990969A9400E4326620324B7
:1013E000251C5E00B5401440ED43B4400168013F48
:1013F00029400C430460012F0FD801998768CC68FD
:101400002F40B4403C43846001249C404768A7437C
:10141000D406E40F9C403C4344600199C468896849
:101420002540B1400D43C560D10049D50127264C68
:101430000326A5691E403D43A5610F25B600B540B2
:10144000A46922493C400594059C9C08A4006418AA
:10145000A168A943039190210025C905884208D0BD
:101460003D1C1B4FB84204D01A4F6D19B84200D032
:101470000335B54003990D430099A5600E1C164C29
:10148000CD4327683E43D10301D43E1C2E40266045
:101490006768009E3E43910301D43E1C2E40666067
:1014A000A768009E3E43D10201D43E1C2E40A66098
:1014B000E668009F3743920201D42E40371CE76054
:1014C00001336BE707B0F0BD00100240000001409F
:1014D0000004004800080048000401400023F7B55C
:1014E0000191019ADA4053D001229A409446614614
:1014F000019A0A40009249D003255A009540EA43D8
:101500000F260468311C1440046007241C40A4000A
:10151000A140DD08AD0045192F6A8F4361462F6257
:1015200084689027144084604468FF058C434460BD
:10153000C46818492240C2609A08920052180321D8
:10154000194089008E40956800243540B84208D083
:10155000114F0134B84204D0104F0134B84200D0CA
:1015600003348C40A54211D19168B1439160009938
:101570000B4AC94314680C40146054680C40546012
:1015800094680C409460D4682140D1600133A8E78E
:10159000F7BDC046000001400004004800080048B4
:1015A0000004014000690840411E8841C0B27047F4
:1015B000002A01D0816100E081627047436959408F
:1015C00041617047802382B05B020193019B0B4312
:1015D0000193019BC361C161019BC361C369019315
:1015E000C36901201B0C984302B07047704708B5CF
:1015F000034B5A69024202D05861FFF7F7FF08BD5A
:101600000004014070B58901002815DA0F23C0B22B
:101610000340083B124A9B0803249B009B18FF22AF
:101620002040A040141C8440DD691140A543814046
:101630002A1C0A43DA6112E084080A4B0326A4003C
:10164000E418FF233040B0401E1CC0258640AD008A
:1016500062591940B2438140131C0B43635170BD62
:1016600000ED00E000E100E01F2318401E3B834036
:10167000181C014B1860704700E100E01F23184060
:101680001E3B8340181C014BD867704704E100E003
:10169000BFF34F8F034A044BDA60BFF34F8FC0464E
:1016A000FDE7C0460400FA0500ED00E0094A431ECC
:1016B000012093420DD8C020074A084953600B6AA5
:1016C00000061B021B0A03430B62002007239060E5
:1016D00013607047FFFFFF0010E000E000ED00E046
:1016E000002809DA0F23C0B20340083B9B08084AD0
:1016F0009B009B185B6804E08308C033054A9B008D
:101700009B58032210409040C340D8B280097047D4
:1017100018ED00E000E100E01F2318401E3B83406D
:10172000181C014B58607047FCE100E01F22044B7D
:1017300010405B68C340181C012318407047C04626
:10174000FCE100E01F2318401E3B8340181CC0230F
:10175000014A5B00D050704700E100E0054B1A6879
:10176000042802D11043186002E004218A431A6061
:101770007047C04610E000E0704708B5FFF7FCFF77
:1017800008BDC04670B5051C40352A780223012AE1
:101790003FD00322013B2B70036899680A40012A5D
:1017A00005D1196811422ED1DA6812042BD4416C8C
:1017B000194A041C0A4002210A43802142649A68A3
:1017C00009060A439A60FFF7A3F8061C23689B6882
:1017D000002B0EDAFFF79CF8801B0228F6D91222A4
:1017E000636C9343023A1343636400232B70013309
:1017F0000FE00322636C9343023A134363640023B4
:1018000000222A7005E02022436C13434364012325
:10181000F6E7181C70BDC046FDFEFFFF031C30B587
:101820000120002B1FD09C1CE27FD2B2002A01D1E4
:101830001918CA7702221868E27701680A4A5D68B7
:1018400011409A682A43DD682A431D692A435D696D
:101850002A439D692A43DD692A430A430260002026
:1018600058630123E37730BD0FC0FFFF70B501233C
:10187000002855D0841CE27F191C022A50D003682E
:10188000284D1A688A431A60002249181A605A6063
:101890009A60DA60AB4210D0234A1E3193420CD0DA
:1018A000224A934205D0224A8021934204D08902E1
:1018B00003E08021890000E089011E4A516008216F
:1018C000AB4211D0184E7831B3420DD017498B423C
:1018D00005D017498B4205D08021090304E08021FF
:1018E000090101E08021090251600421AB4211D0BD
:1018F0000D4D3C31AB420DD00C498B4205D00C490B
:101900008B4205D08021C90204E08021C90001E09A
:101910008021C9010023516043630130E377C3771D
:10192000181C70BD080002401C000240300002403C
:101930004400024000000240F0B50226471CFD7F33
:10194000341C012D14D001258419FD77E677046835
:101950002668AE43266063604368102B02D1A26004
:10196000E16001E0A160E26023681D43256000247E
:10197000201CF0BDF0B50225471CFE7F2C1C012E5B
:1019800021D001264419FE77E57704682568B54320
:10199000256063604368102B02D1A260E16001E022
:1019A000A160E26002222368134323602368921837
:1019B0001343236023680432134323602368073AE8
:1019C000134323600024201CF0BD0121026838B5B8
:1019D0001368041C8B431360FEF79AFF051C2368F1
:1019E00018680123184011D0FEF792FFFA23401B1C
:1019F0009B009842F3D920220320636B1343636357
:101A0000A31CD87700230134E37703E0A21CE41879
:101A1000D377E07738BDF0B585B0041C0191171C71
:101A200003685E4E00290FD10225B34225D05C4ADF
:101A30001E35934221D05B4A934215D05A4A8025E5
:101A4000934214D0AD0218E00425B34215D0544A95
:101A50003C35934211D0534A93420AD0524A8025D2
:101A6000934209D0ED0208E08025AD0005E0AD010C
:101A700003E08025ED0000E0ED01FEF749FF029054
:101A80004A4A23681068111C28424ED112680392FA
:101A90000822B34211D04248783283420DD0414AE5
:101AA000934205D0404A934205D08022120304E0BD
:101AB0008022120101E080221202039810421ED0FF
:101AC0000822B34211D03648783283420DD0354ACD
:101AD000934205D0344A934205D08022120304E099
:101AE0008022120101E08022120201204A600422B9
:101AF000636B03436363A31CDA7724180BE07B1C3E
:101B0000BED0002F0AD120220320636B13436363EE
:101B1000A31CD87701340023E3773DE0FEF7F8FEFD
:101B2000029BC01AB842ABD9EDE7019AA01C002A6B
:101B300017D10232B34211D0194D1E32AB420DD033
:101B4000184A934205D0184A934205D08022920247
:101B500004E08022920001E0802292014A60012389
:101B600016E00422B34211D00D4D3C32AB420DD0F1
:101B70000C4A934205D00C4A934205D08022D202EF
:101B800004E08022D20001E08022D20111234A60C9
:101B9000C37700200134E07705B0F0BD08000240B3
:101BA0001C0002403000024044000240000002409D
:101BB00070B50368664D674E041C29680822B3425D
:101BC00011D06548783283420DD0644A934205D0E3
:101BD000634A934205D08022120304E0802212015E
:101BE00001E08022120211422AD008221968114213
:101BF00026D0196891431960B34211D05649783202
:101C00008B420DD0554A934205D0554A934205D098
:101C10008022120304E08022120101E080221202DD
:101C20006A600122636B134363630332A31CDA7798
:101C30000022631CDA77236B934201D0201C984763
:101C4000236829680422B34211D043483C328342BE
:101C50000DD0424A934205D0414A934205D080229A
:101C6000D20204E08022D20001E08022D20111429F
:101C700027D004211A680A4223D01A68920602D497
:101C80001A688A431A600422B34211D032493C32A6
:101C90008B420DD0314A934205D0314A934205D050
:101CA0008022D20204E08022D20001E08022D20110
:101CB0006A601122A31CDA77E36A002B01D0201C92
:101CC0009847236829680222B34211D022481E3265
:101CD00083420DD0214A934205D0214A934205D038
:101CE0008022920204E08022920001E08022920190
:101CF00011422CD002211A680A4228D01A68920692
:101D000002D41A688A431A600222B34211D01249DF
:101D10001E328B420DD0114A934205D0104A934295
:101D200005D08022920204E08022920001E080220D
:101D300092016A600122636B6363A31CDA77A318C4
:101D40000022DA77A36A934201D0201C984770BD25
:101D500000000240080002401C0002403000024027
:101D6000440002400230C07FC0B27047406B7047F1
:101D700070B50126341C036880204A6980009440B5
:101D80001D5835431D501E58304D35401D504E6A6C
:101D90001D583602354387261D50E043B6009D5935
:101DA00005409D51CD69002D0ED1103E9D59D200A8
:101DB00005409D51CD688E882D04354390269A1894
:101DC000B60095510E8810E0012D14D18326B6007F
:101DD0009D59D20025439D510D688E882D043543B1
:101DE00090269A18B60095518E898D682D0435433A
:101DF0009126B600955181228D699200002D02D165
:101E00009D58054001E09D5825439D500A69002AD0
:101E100005D1852292009D582840985006E0012A5D
:101E200004D1852080001A5822431A500A6A012AD8
:101E300004D1872189005A5814435C508021012025
:101E400089005A5882435A50002070BDFFC0FFFFDE
:101E50007047F8B50123002800D191E0051C393501
:101E60002B78041CDBB2002B04D1021C3832137017
:101E7000FEF74AFA0221236829701A688A431A6019
:101E80001A6801390A431A60FEF742FD071C012255
:101E900023685E68164009D1FEF73AFDC01B0A2888
:101EA000F5D9032338342B70267069E05968114244
:101EB00063D0A2698021012A02D11A680A4301E095
:101EC0001A688A431A60E2694021012A02D11A681D
:101ED0000A4301E01A688A431A60226A2021012A13
:101EE00002D11A680A4301E01A688A431A60626ADA
:101EF0001021012A02D11A680A4301E01A688A43B4
:101F00001A60A26A0821012A02D11A680A4301E074
:101F10001A688A431A60E26A0421012A02D11A6807
:101F20000A4301E01A688A431A60A168E2680A431A
:101F300021690A4361690A43616801390A43012141
:101F4000DA611A688A431A60FEF7E2FC061C012275
:101F50002368596811420AD0FEF7DAFC801B0A2870
:101F6000F5D90323002238342B70227008E05B6817
:101F7000134002D1E3632A7002E004232B70033B79
:101F8000181CF8BD704738B5041C0120002C0AD07D
:101F9000251C02233935201C2B70FEF7DBF90020AD
:101FA00038342870207038BDF7B501910168041CE1
:101FB0008B685B0106D48B681B0103D48B68DB0044
:101FC00000D4A5E0231C38331A780220012A00D15E
:101FD000A2E001221A709B181A78222A01D110322D
:101FE00000E012221A7000228B6800925B0105D477
:101FF00002238D682D01ED0F5B1B0093C020012291
:10200000009B40001B01CB181E5832401A50226B17
:102010009768D668002F04D11F583E4317687F0584
:1020200004E01D582F4355683E43EF003E431E50C9
:102030000F20844665461069019E2840019010617A
:10204000C22040001F58AF431F501F58019D2F430F
:102050001F50D07D009D0706907D00043843177DFA
:102060003843577D3F0238432F01C9198931FF3169
:102070000860D07E0706907E00043843177E074331
:10208000507E3A1C000202434A60C02101204900F0
:102090005A5802435A50FEF73BFC071C009A23682B
:1020A000002A04D19A681D4B13401D4A0BE0009A88
:1020B000012A04D19A681B4B13401B4A03E09A681B
:1020C0001A4B13401A4A9B185A1E9341DBB2002B3D
:1020D00011D0731CE2D0002E07D1231C032039330A
:1020E000187000233834237016E0FEF711FCC01B73
:1020F000B042D3D9F1E7231C39331A78322A01D1FF
:10210000103A00E00122002038341A70207003E0F9
:102110000423012039342370FEBDC04603000004AF
:10212000FDFFFFFB0003000800FDFFF700000310A8
:102130000000FDEF0368F7B59A68520105D49A686C
:10214000120102D49A68D2007FD5021C383214786A
:102150000221012C7DD0012414709C6800226401AE
:1021600003D49A681201D20F8A1AC02501211201E4
:102170009C186D006659019231406151016B8E6867
:10218000CF68002E04D166593E430F687F0504E0F6
:10219000625916434A683E43D7003E430F226651B8
:1021A000C2250E696D0016400E616759974367514D
:1021B0006759019A3E436651CD7D9A182E068D7D52
:1021C00089322D0435430E7DFF3235434E7D360274
:1021D00035431560CD7E2E068D7E2D0435430E7E53
:1021E0002E434D7E311C2D0229435160021C393291
:1021F0001178222901D1103100E012211170002143
:1022000038304160017080205A69400002435A61B1
:102210005A690018024380205A615A69C00002437B
:1022200080205A615A690001024380205A615A692C
:102230000002024301205A615A6902435A61C022D6
:102240005200A3580343A35003E004230121393073
:102250000370081CFEBDF7B5061C3836347802231F
:10226000012C00D1AAE0071C013B337039373B78C1
:10227000122B01D1203300E022233B700D1C009271
:10228000041CFEF745FB01902268002D01D1D168A6
:1022900000E01169032319404B424B41DBB2002B94
:1022A00012D0009B0133EFD0009B002B04D10323FD
:1022B00000223B70327081E0FEF72AFB019BC01ABE
:1022C000009B9842E0D9F2E7D8202B014000D318B8
:1022D0001F58616BBC46042760460740D8208F60BA
:1022E0004000002F03D11F587F0D0F6002E01F58E0
:1022F000FF084F601F5802203840C860DA204000B5
:10230000185884460F20674638400861DA2040009C
:102310001B581B0ADBB2CB612B01D218B932FF323A
:1023200012680A752268616BD218B932FF321268DE
:10233000120A4A752268616BD218B932FF321268EC
:10234000120C8A752268616BD218B932FF3212689A
:10235000120ECA752268616BD218B932FF32526808
:102360000A762268616BD218B932FF325268120ABB
:102370004A762268616BD218B932FF325268120C69
:102380008A762268D318B933FF335B68626B1B0E01
:10239000D37623682022002D03D1D9680A43DA605E
:1023A00002E019690A431A6139342378322B01D1CA
:1023B000203B00E00123237000233370181CFEBD76
:1023C000031C30B539331A78041C012A03D01A785B
:1023D0000220122A37D1251C38352A780220012AFA
:1023E00031D001222A701A78122A01D1203200E05D
:1023F00022221A7000222368E26380245869640054
:102400002043586158692419204380245861586931
:10241000E40020438024586158692401204380242B
:10242000586158692402204358612A70914205D1AD
:1024300002205A6902435A61081C04E010205969BD
:102440000143101C596130BDF7B5061C383633788E
:102450000224012B2AD0071C0125032201683937E9
:1024600035703C700B6893431C430C604B681A40FA
:10247000022A03D000232C1C337017E0051CFEF742
:1024800047FA019003242B685B682340022B09D094
:10249000FEF73EFA019BC01A0A28F3D900233C70CC
:1024A000337003E00024013B3B703470201CFEBD00
:1024B000F8B5051C022238352B78041C101C012BA2
:1024C00024D0261C0123216839362B7032700B680A
:1024D00093430B60FEF71CFA071C022321684A682D
:1024E0001A4009D0FEF714FAC01B0A28F5D90320B8
:1024F000002330702B7009E048681840013B002829
:1025000002D02A70181C01E033702870F8BD7047A3
:102510007047F8B5D824042605680B01EB18640051
:102520001F59426B3E40966003D11E59760D1660CE
:1025300002E01E59F60856601E590224DA2726408A
:10254000D6607F00DE59B4460F26644626401661E9
:10255000DB591B0ADBB2D3610B01ED18B935FF352E
:102560002D6815750268446BD218B932FF321268B3
:10257000120A62750268446BD218B932FF321268CF
:10258000120CA2750268446BD218B932FF3212687D
:10259000120EE2750268446BD218B932FF325268EB
:1025A00022760268446BD218B932FF325268120A9E
:1025B00062760268446BD218B932FF325268120C4C
:1025C000A2760268D318B933FF335B68426B1B0EE7
:1025D000D37603682022002905D1D9680A43DA603E
:1025E0005A69022104E019690A4310211A615A69E3
:1025F0008A435A61021C39321178222913D15C694D
:102600000E49214059615C690D49214059615C695D
:102610000C49214059615C690B49214059615C6951
:102620000A49214059611378322B01D1203B00E047
:1026300001231370FFF76CFF0020F8BDFFFEFFFFC2
:10264000FFFDFFFFFFFBFFFFFFF7FFFFFF7FFFFF28
:102650007047036810B55A69041CD20735D59A68CB
:1026600058490A408A4209D09A6857490A408A4222
:1026700004D09A6855490A408A4226D101215A69F4
:102680008A435A61221C39321178122913D15869B0
:102690004F490140596158694E4901405961586993
:1026A0004D490140596158694C4901405961586987
:1026B0004B49014059611378322B01D1103B00E0A6
:1026C00001231370201CFFF722FF23685A69920729
:1026D00006D5DB689B0703D0201C0021FFF719FFFC
:1026E00023685A69D20606D51B699B0703D0201CB4
:1026F0000121FFF70EFF012123689A690A4208D0E1
:102700005A69D20505D55A69120402D5E26B0A430B
:10271000E26302219A690A4208D05A69920505D5F6
:102720005A69120402D5E26B0A43E26304219A69F2
:102730000A4208D05A69520505D55A69120402D5D1
:10274000E26B0A43E2637022996911422BD0596906
:10275000090528D55969090425D599690A40302AFF
:1027600012D006D8102A0CD0202A18D1E26B1021E2
:1027700013E0502A0BD0602A0CD0402A0FD1E16B15
:102780000BE0E26B082108E0E26B202105E0E26B40
:10279000802102E08021E26B49000A43E26370215C
:1027A0009A698A439A61E26B002A0AD004215A6826
:1027B000201C0A435A60231C012239331A70FFF788
:1027C00047FF10BD030000040003000800000310D1
:1027D000FFFEFFFFFFFDFFFFFFFBFFFFFFF7FFFF18
:1027E000FF7FFFFF39300078C0B27047C06B704781
:1027F00000220421054BDA61054B1A690A431A616C
:102800001A693C310A431A617047C046C804002067
:102810000020024070B5061C124802F093FF002809
:102820001FD120254022104B104CD86123690D4840
:102830002B43236123691343236102F083FF236940
:10284000AB43236100280CD12369103D2B43236146
:10285000074BB6B21E80034802F074FF2369AB43F6
:10286000236170BD50C30000C80400200020024056
:1028700000F8FF1F062370B5124CBB25E269134018
:10288000022B03D01135042B00D0223D0E4802F05C
:1028900059FF002814D1202640220C4BD86123690F
:1028A00009483343236123691343236102F04AFF3C
:1028B0002369B3432361002802D1E8B2FFF7AAFFDE
:1028C00070BDC0460020024050C30000C804002074
:1028D000F7B5464C051C237E0220012B00D183E076
:1028E0002B680138207603423ED0AB68404E0193FE
:1028F0006B68376A834217D13E4802F023FF0028F5
:1029000070D1E061FFF7B6FF00286BD11022019B68
:102910009F433369FFB213433361FF2F1ED0364B01
:102920001A8917401F8116E0324802F00BFF002879
:1029300058D1E061FFF79EFF002853D11022019B80
:102940001F433369FFB213433361FF2F06D02A4A76
:1029500013891F431781274802F0F4FE10223369C0
:102960009343336100283DD12B689B0704D5287B16
:10297000FFF750FF002835D12B685B0718D56B7B1C
:102980001C48019302F0DEFE00282BD11027184EC0
:10299000E0613369184A3B4333616B469B881548B5
:1029A000538002F0CFFE3369BB433361002819D155
:1029B0002B681B0716D52B690E4801932E7D02F05C
:1029C000C1FE00280ED11027094DE0612B69B6B277
:1029D0003B432B61019B07481E8002F0B3FE2B692D
:1029E000BB432B6100232376FEBDC046C8040020F4
:1029F0000020024050C3000000F8FF1F07230360BF
:102A0000084B1A6A82600622D9690A40BB21022A51
:102A100003D01131042A00D022390173DB691B0A6B
:102A20004373704700200240044A054B904202D194
:102A3000D869000200E0D869000E704704F8FF1F53
:102A40000020024000220221054BDA61054B1A6981
:102A50000A431A6158611A693E310A431A61704784
:102A6000C804002000200240F7B5224B051C1A7E46
:102A700002200193012A3CD001241C762B680F1CF4
:102A80001D48A34210D102F05DFE002801D00120B4
:102A90002CE0FFF7ADFE184802F054FE0421174A5F
:102AA00013698B43136121E002F04CFE0028EED144
:102AB0000123201C5B423B606E68AB686A689B0226
:102AC0009B189E4212D2301CFFF7BCFF0A4802F04E
:102AD00039FE0221094A13698B431361002801D092
:102AE0003E6003E08023DB00F618E6E70023019A4E
:102AF0001376FEBDC804002050C300000020024031
:102B000070B5114A0223117E01291BD01478013BB4
:102B1000E4B21376002C15D1A0260C4D760129695C
:102B2000314329610168994204D101331370FFF7E1
:102B30005FFE06E013708368406853609060FFF7A3
:102B400081FF231C181C70BDC80400200020024017
:102B50008021054B49051A690A431A611969034A1C
:102B60000A401A617047C04600100240FFFFFFEFA5
:102B70008021034A490013680B4313607047C04625
:102B800000700040024A034B11680B40136070470D
:102B900000700040FFFEFFFF8022C0B25200824062
:102BA000101C02494B681843486070470070004091
:102BB0008022C0B25200824002494B6893434B606E
:102BC0007047C046007000400420064A13698343E2
:102BD0001361012901D130BF02E040BF20BF20BFF7
:102BE0007047C04600ED00E010B503240A4A1368A0
:102BF000A343184310600420084B1A6902431A616A
:102C0000012901D130BF02E040BF20BF20BF042115
:102C10001A698A431A6110BD0070004000ED00E09F
:102C20000221054A13680B431360044A49181369CB
:102C30000B43136130BF70470070004000ED00E0AF
:102C40000221024A13690B431361704700ED00E053
:102C50000221024A13698B431361704700ED00E0C3
:102C60001021024A13690B431361704700ED00E025
:102C70001021024A13698B431361704700ED00E095
:102C800030B50468064D606889052840039D890DAC
:102C9000284303430B4312041343636030BDC04613
:102CA000009800FC70B5041C0D1CFDF731FE236874
:102CB000061C98691023184035D023682022996992
:102CC000114215D16A1CF9D0002D0BD1231C2022F2
:102CD00035331A70221C002336323434137003202B
:102CE000237020E0FDF714FE801BA842E5D9EDE734
:102CF0001021D961DA619A690F390A4202D19A69C1
:102D00000A439A615968084A01200A405A6004231C
:102D1000A363231C202235331A70221C0023363271
:102D200034341370237070BD00E800FEF7B51D1C2D
:102D3000041C0E1C0192FDF7EBFD019B071C002BF0
:102D400029D1226893693340B3420FD06B1CF9D06C
:102D5000002D0FD0FDF7DCFDC01BA842F1D909E022
:102D60006B1C05D193693340B342F9D0002014E0C5
:102D7000002D0BD1231C202235331A70221C002376
:102D80003632343413700320237006E0FDF7C0FDA3
:102D9000C01BA842EED82268E4E7FEBD70B5041C53
:102DA0000D1CFDF7B5FD061C23689B699B071ED40F
:102DB000201C291CFFF776FF00281AD16B1CF3D0CA
:102DC000002D0ED12022A36B03201343A363231CE9
:102DD00035331A70221C00233632343413702370BA
:102DE00008E0FDF795FD801BA842DDD9EAE7002049
:102DF00000E0012070BD73B5151C1E1CDAB28023E3
:102E00009B0100938023041C5B04FFF739FF201C07
:102E10000699FFF7C3FF002804D0A36B0120042B01
:102E200016D116E02368012E08D02A0A9A62201CC7
:102E30000699FFF7B3FF0028EFD12368EDB29D623A
:102E4000201C80210022069BFFF770FF002800D085
:102E5000032076BD73B5151C1E1CDAB28023041C3A
:102E60009B0100930023FFF70BFF201C0699FFF73F
:102E700095FF002804D0A36B0120042B16D116E087
:102E80002368012E08D02A0A9A62201C0699FFF7AF
:102E900085FF0028EFD12368EDB29D62201C402100
:102EA0000022069BFFF742FF002800D0032076BDDA
:102EB00070B5041C0D1CFDF72BFD061C23689B69D7
:102EC0009B061CD4201C291CFFF7ECFE002818D1FF
:102ED000002D0ED12022A36B03201343A363231CD8
:102EE00035331A70221C00233632343413702370A9
:102EF00008E0FDF70DFD801BA842DFD9EAE70020BE
:102F000000E0012070BD70B5041C0D1CFDF700FD34
:102F1000061C23689B695B072BD4201C291CFFF728
:102F2000C1FE002827D120222368996911420CD0C4
:102F3000DA615D68114929405960231CA06335336B
:102F400034341A705870207015E0002D0BD12022F7
:102F5000A36B03201343A363231C35331A70002390
:102F60003434237008E0FDF7D3FC801BA842D0D98D
:102F7000EDE7002000E0012070BDC04600E800FE43
:102F8000704738B5041C0120002C47D0251C35356E
:102F90002B78DBB2002B05D1221C34321370201C9D
:102FA000FFF7EEFF242301212B7023681A688A4360
:102FB0001A6061681A4A0A401A619968194A0A40F7
:102FC0009A60A268E168002A0AD0012904D1802110
:102FD00009020A439A6008E08420000202439A60D2
:102FE000022902D1802212015A605A680E4900203B
:102FF0000A435A60616922691143A26912020A43B5
:10300000DA60E169226A0A4301211A601A680A43F8
:103010001A602023A06336342B70207038BDC04660
:10302000FFFFFFF0FF7FFFFF00800002704738B511
:10303000041C0120002C12D0251C242322683535C5
:103040002B70136883431360201CFFF7EFFF0020F1
:10305000231CA0633633343428701870207038BDB8
:10306000F0B51D1C031C85B03533029103931B780A
:10307000041C171C0220202B77D123689A69802317
:103080001B02134071D1221C3432117801296CD0FB
:1030900001211170212203990A70221C102136325D
:1030A0001170A36380239B01FF2D09D90093802316
:1030B000201C0299FF225B04FFF7E2FDFF2616E0C9
:1030C00000938023EAB2201C02999B04FFF7D8FDED
:1030D0002E1C0CE0FFF762FE00280DD123683A7821
:1030E000013D013E9A62ADB2002E0AD00137201C8C
:1030F0000A99002DEED124E0A36B0120042B33D1DB
:1031000033E0002DF2D0201C8021321C0A9BFFF7F7
:103110000DFE002828D1FF2D09D980230096201C00
:103120000299FF225B04FFF7ABFDFF36DEE7802349
:103130000096EAB2201C02999B04FFF7A1FD2E1C09
:10314000D4E7FFF7B5FE0028D6D120212368084A2E
:10315000D9615E6832405A60039B1970231C343475
:1031600036331D70257000E0032005B0F0BDC04669
:1031700000E800FEF0B51D1C031C85B0353302923B
:1031800003931B78041C0F1C0220202B00D093E01B
:1031900023689A6980231B02134000D08CE0221C14
:1031A00034321178012900D186E0012111702222E8
:1031B00003990A70221C102136321170A3639023E8
:1031C0009B01FF2D09D900938023201C391CFF226D
:1031D0005B04FFF755FDFF262DE0002D08D000937E
:1031E0008023EAB2201C391C9B04FFF749FD14E040
:1031F0000093201C391C2A1C2B1CFFF741FD201CAE
:1032000040212A1C0A9BFFF791FD00281FD1802135
:103210002268C90153680B4353602E1C0BE02368DE
:10322000029A5B6A013D013E1370ADB2002E10D0D0
:10323000029B01330293201C002D2AD00421FFF7AA
:1032400062FE0028EBD0A36B0120042B34D00320B6
:1032500032E0002DECD0201C8021321C0A9BFFF7AD
:1032600065FD0028F3D1FF2D09D980230096201C8D
:10327000391CFF225B04FFF703FDFF36D8E78023EC
:103280000096EAB2201C391C9B04FFF7F9FC2E1CA7
:10329000CEE71921FFF70CFE0028D4D120212368A6
:1032A000064AD9615E6832405A60039B1970231C3C
:1032B000343436331D70257005B0F0BD00E800FED3
:1032C000F7B51E1C031C353300931D78041CEDB2AA
:1032D0000220202D00D08FE0002901D101208BE0B9
:1032E000002AFBD0231C34331F78012F00D183E048
:1032F000019201221A702123009A371C1370231C9B
:10330000002236330E1C21681D70A26348683B4BB7
:1033100003404B60201C3B1C0821FFF707FD23687E
:10332000021E0CD10825DD61E368022B0ED13B1C87
:10333000201C291CFFF7FAFC2368002805D08021F7
:103340005A6809020A435A604DE0DD618021201C61
:10335000490200223B1CFFF7E9FC002806D080212F
:103360002268090253680B4353603CE0019D013D14
:10337000ADB2013573190193201C391CFFF70EFD06
:103380002368051E08D080215A6809020A435A6042
:10339000A36B042B27D1A1E7327801369A62019BF7
:1033A0009E42E9D1201C1921FFF782FD23680028E5
:1033B00009D080215A6809020A435A60A26B03208F
:1033C000042A19D1A563802520262D02DE61291C3F
:1033D00001223B1C201CFFF7A9FC23685A681543F7
:1033E0005D60002801D0032006E0009B1E70231CB6
:1033F0003434363318702070FEBDC046FF7FFFFFA7
:10340000F7B51F1C031C353300931B78041CDBB27B
:10341000151C0220202B00D081E0002901D10120C1
:103420007DE0002AFBD0221C34321678012E76D0A3
:1034300001950125157022220E1C00990A70221C8C
:103440003632137000222168A2634868344B03406F
:103450004B60201C3B1C0821FFF768FC23680028F8
:1034600005D080215A6809020A435A6010E00822F8
:103470008021DA61201C49022A1C3B1CFFF756FC04
:10348000002807D080212268090253680B4353604B
:10349000032044E0019D013DADB201357519201CAA
:1034A000391CFFF730FD236800280ED080215A68B0
:1034B00009020A435A609A69520701D55B6A337060
:1034C000A36B0320202BAAD129E05B6A337001365D
:1034D000AE42E4D1201C1921FFF7EAFC80252368C5
:1034E0002D02002806D05A6815435D60A36B042B9B
:1034F000CED194E72026291CDE6101223B1C201C32
:10350000FFF714FC23685A6815435D600028BFD19B
:10351000009B1E70231C3434363318702070FEBD9F
:10352000FF7FFFFFF0B5071C85B0039235373D786C
:10353000041C0220202D35D12568AE6980252D027E
:103540002E402FD1251C34352A78012A2AD0013863
:10355000287020303870201C1027039A36300770EE
:10356000A66362626385FF2B00D9FF232385802336
:10357000228D9B01FF2A07D1608DFF2804D900937B
:103580008023201C5B0404E000938023201CD2B223
:103590009B04FFF775FBF221002022682870136856
:1035A0000B43136005B0F0BDF0B5071C85B0039266
:1035B00035373D78041C0220202D35D12568AE69B1
:1035C00080252D022E402FD1251C34352A78012A42
:1035D0002AD00138287021303870201C1027039A17
:1035E00036300770A66362626385FF2B00D9FF2324
:1035F00023859023228D9B01FF2A07D1608DFF2810
:1036000004D900938023201C5B0404E000938023F2
:10361000201CD2B29B04FFF733FBF4210020226868
:10362000287013680B43136005B0F0BDF0B5051C9E
:1036300035352B78041CDBB20220202B1FD101383A
:1036400000291CD0002A1AD0261C343637780130C5
:10365000012F14D01F302870201C36300370002337
:103660002068A3634768064D3D4045606162FA21CA
:1036700062852285026833700A430260181CF0BD1F
:10368000FF7FFFFFF0B5051C35352B78041CDBB23E
:103690000220202B1FD1013800291CD0002A1AD06B
:1036A000261C343637780130012F14D02030287092
:1036B000201C3630037000232068A3634768064D42
:1036C0003D4045606162FC2162852285026833705D
:1036D0000A430260181CF0BDFF7FFFFFF0B50E1C0F
:1036E000111C021C85B0353203921578041C02208F
:1036F000202D76D1802725683F02AA693A4094465A
:103700006FD1271C34373A78012A6AD00138039ADE
:10371000387020301070102202373A7062466162B1
:10372000A2636385FF2B00D9FF232385238D002B04
:1037300039D0E06A2C4A82622C4A02632A1C283261
:10374000FEF718F98023228D9B01FF2A08D1618D95
:10375000FF2905D900938023201C311C5B0405E060
:1037600000938023201C311CD2B29B04FFF788FAFF
:10377000201C1921FFF712FB236800280DD080219F
:103780005A6809020A435A60E06AFEF71EF9A36B01
:103790000120042B25D0032023E080211A68C901D1
:1037A0000A431A601AE08022920100921A1C8023B8
:1037B000201C311C9B04FFF763FA201C1921FFF722
:1037C00077FB0028E3D120212368094AD9615D688D
:1037D0002A405A60231C3533197038700020343465
:1037E000207005B0F0BDC046C341000897410008F5
:1037F00000E800FEF0B5061C85B0039235360D1CBE
:103800003178041C0220202977D1802721683F02CB
:103810008A693A40944670D1271C34373A78012A95
:103820006BD0624601383870213030700136123862
:103830003070A263039A63856262FF2B02D9EF3076
:10384000208500E02385278D002F35D0206B2C4B61
:10385000039A83622B4B243103633B1CFEF78AF8E7
:103860009023228D9B01FF2A08D1618DFF2905D964
:1038700000938023201C291C5B0405E00093802317
:10388000201C291CD2B29B04FFF7FAF9201C04214A
:10389000FFF739FB002808D0206BFEF796F8A36BE2
:1038A0000120042B29D0023027E080212268090260
:1038B00013680B4313601DE0DAB290239B01009361
:1038C000201C291C3B1CFFF7DBF93A1C201C402163
:1038D0001923FFF72BFA021C0320002A0DD18020A8
:1038E0002168C0014B6803434B60231C2021353302
:1038F0001970327000203434207005B0F0BDC0461D
:10390000FD42000897410008F8B5061C3536131C27
:103910003278041CD2B20220202A53D10138002967
:1039200050D0002B4ED0251C34352F780130012F7C
:1039300048D00138287020303070201C00263630E6
:103940000270E06A204AA663616263852385826211
:103950001E4A026322682832FEF70CF822681C4BCC
:103960005168201C0B4053600821321C194BFFF793
:10397000DDF92368021EB24217D10826DE61E36832
:10398000022B08D1134B201C311CFFF7CFF9236801
:1039900000280AD1DE6180211923201C490200225F
:1039A000FFF7C4F92368002806D080215A6809026D
:1039B0000A435A60032005E080211A68C9010A43BE
:1039C0001A602870F8BDC0464944000897410008B5
:1039D000FF7FFFFF102700008C46011CF8B5353132
:1039E000131C0A78041CD2B20220202A49D1654651
:1039F0000138002D45D0002B43D0251C34352E78BE
:103A00000130012E3DD0012620302E7008704A7002
:103A1000624600276262206B1A4AA763238563858A
:103A200021688262184A243102636246FDF7A2FFD0
:103A30002268164B5168201C0B4053600821144B20
:103A40003A1CFFF773F92368B84203D080215A6803
:103A500009020EE008228021DA61201C321C1923A1
:103A60004902FFF763F9802223681202002804D07C
:103A700059680A435A60032003E019680A431A6030
:103A80002870F8BDB944000897410008FF7FFFFF88
:103A900010270000F0B5041C87B003910CA901C9E0
:103AA00005930D88211C35310E780220202E00D080
:103AB00088E00C9E002E24D0002D22D02668B76905
:103AC000802636023E407DD1271C34373B78012BBF
:103AD00078D0012321203B700870211C36310491DD
:103AE0004021049B201C19700E9BA6630399009330
:103AF000059BFFF780F9002805D0A36B3E70042BCF
:103B00005FD101205EE0FF2D09D980230090039949
:103B1000201CFF225B04FFF7B3F8FF2608E0802398
:103B20000090EAB2201C03999B04FFF7A9F82E1C11
:103B30000C9F201C0E99FFF731F9002830D1236823
:103B40003A78013D013E9A62ADB2002E20D1002D9F
:103B500020D0201C8021321C0E9BFFF7E7F80028A4
:103B60002FD1FF2D0AD980230096201C0399FF2214
:103B70005B04FFF785F8FF360137DAE7802300960C
:103B8000EAB2201C03999B04FFF77AF82E1CF3E796
:103B9000002DF1D1201C1921FFF78AF9002801D04E
:103BA000A36BACE720212368074AD9615D682A40EE
:103BB0005A60231C35331970049B343418702070FC
:103BC00000E0032007B0F0BD00E800FEF0B5041CE3
:103BD00085B002910AA901C903930D88211C3531D2
:103BE0000E780220202E00D08AE00A9E002E4AD0B5
:103BF000002D48D02668B769802636023E407FD126
:103C0000271C34373B78012B7AD0012322203B70CC
:103C10000870211C0C9B1E3036310870A663201CD6
:103C200000930299039BFFF715F9002802D0A36BBC
:103C30003E7026E090239B01FF2D26D90093802320
:103C4000201C0299FF225B04FFF71AF8FF260A9F47
:103C5000201C042100220C9BFFF768F8002840D1AB
:103C60002368013D5B6A013E3B70ADB2002E35D149
:103C7000002D14D1201C1921FFF71AF9002832D089
:103C8000A36B042B2DD101203AE000938023EAB2EC
:103C9000201C02999B04FEF7F3FF2E1CD7E7201C83
:103CA0008021321C0C9BFFF741F8002819D1FF2D11
:103CB0000AD980230096201C0299FF225B04FEF79C
:103CC000DFFFFF360137C3E780230096EAB2201CEE
:103CD00002999B04FEF7D4FF2E1CF3E7002DF1D1CF
:103CE000C8E703200CE020212368064AD9615D68FB
:103CF0002A405A60231C34343533197058702070B0
:103D000005B0F0BD00E800FEF0B5041C85B00F1C46
:103D10000AA901C903938446201C35300678098816
:103D20000225202E50D16646013D002E4CD00029A0
:103D30004AD02568AE6980252D022E4002960225C4
:103D4000002E41D1261C34363378012B3CD0013D66
:103D50003570029B203505701F354570A36363469F
:103D600061856362FF2900D9FF2121851921201C6B
:103D70000091039B391CFFF73EF8051E08D0002375
:103D8000A26B343423700125042A1DD003251BE0C7
:103D9000228DFF2A08D1638DFF2B05D98023009047
:103DA000391C201C5B0406E0002300938023201CA8
:103DB000391CD2B29B04FEF763FF0023F221226874
:103DC000337013680B431360281C05B0F0BDF0B5C9
:103DD000041C85B00F1C0AA901C903938446201C4A
:103DE0003530067809880225202E4BD16646013DE4
:103DF000002E47D0002945D02568AE69022533043E
:103E000040D4261C34363378012B3BD06346013D29
:103E10003570213505701E35457063626185FF2957
:103E200000D9FF2121851921201C0091039B391CF9
:103E3000FFF710F8051E08D00023A26B343423705E
:103E40000125042A1ED003251CE09023228D9B010E
:103E5000FF2A08D1618DFF2905D900938023201CFA
:103E6000391C5B0405E000938023201C391CD2B26E
:103E70009B04FEF705FF0023F421226833701368CA
:103E80000B431360281C05B0F0BDF0B587B0049259
:103E9000021C3532059303920CAB0D1C127802CB39
:103EA000041C1B880220202A63D1002937D0002B54
:103EB00035D0802722683F02966902923E4058D151
:103EC000271C34373A78012A53D00120039A3870DE
:103ED00020301070201C402736300770A6636162C6
:103EE0006385FF2B00D9FF232385E06A224B029ACA
:103EF0008362224B28320363238DFDF73BFD192398
:103F0000201C0093291C049A059BFEF774FF0028CF
:103F100007D00023A26B34342370042A1FD1012060
:103F200027E0228DFF2A08D1638DFF2B05D980233E
:103F30000090291C201C5B0406E0002300938023D2
:103F4000201C291CD2B29B04FEF79AFE201C1921CA
:103F5000FEF724FF002804D0A36B042BDFD003203E
:103F600007E080212268C901136834340B431360D1
:103F7000207007B0F0BDC0463145000897410008E9
:103F8000F0B5061C87B00492059335360CAB0D1CBA
:103F900004CB3178041C1B880220202961D1013810
:103FA000002A5ED0002B5CD0216801308F6903911C
:103FB000390456D4271C34373978012951D00138B7
:103FC000387021303070201C402136300170626220
:103FD0006385FF2B00D9FF232385206B224B039998
:103FE0008362224B24310363238DFDF7C3FC192325
:103FF000201C0093291C049A059BFEF72BFF002828
:1040000007D00023A26B343423700120042A27D167
:1040100027E09023228D9B01FF2A08D1618DFF2983
:1040200005D900938023201C291C5B0405E0009324
:104030008023201C291CD2B29B04FEF721FE201CE9
:10404000042100221923FEF771FE002808D18021E7
:1040500022680902136834340B431360207000E0B7
:10406000032007B0F0BDC046A146000897410008F4
:10407000F0B5071C1D1C002385B000920393353753
:104080003B78041C0220202B7AD123689E69802370
:104090001B021E4074D1231C34331A78012A6FD0BE
:1040A00001221A70242301913B70A663019BE168F1
:1040B0009B0522689B0D012901D1324901E0A02115
:1040C00089010B435360FCF723FC071C23689A69A2
:1040D000920604D510269A69324025D114E09A69D7
:1040E000D206F7D4261C35363278A02AF2D06A1CC4
:1040F000EDD0002D02D1202333703DE0FCF708FC09
:10410000C01BA842E2D9F6E7201C20212B1CFEF799
:104110000DFE002833D120232268D361221C3434C1
:104120003532137020702BE00022201C20212B1C24
:10413000FEF7FCFD021E22D12368DE612026DE612F
:104140000399481C0390009881420DD18020596842
:10415000C00101435960201C311C2B1CFEF7E6FDF9
:1041600000280CD12368DE61039B009A93429DD303
:10417000231C202235331A7000233434237003208B
:1041800005B0F0BD002000027047704770477047CF
:104190007047704770478021406A08B5026809027D
:1041A00053680B435360021C0023202135324385A2
:1041B000117053701022836B13438363FFF7EAFF80
:1041C00008BD37B5446A4B4D238D201CFF2B6AD1A7
:1041D000638DFF2B67D9802100221923FEF7A6FDEE
:1041E000002803D02022A36B1343A3632268136823
:1041F0001D401560A36B002B32D1636A208D191806
:10420000638D61621B1A9BB26385638DFF2B01D99D
:10421000FF2300E0638D23855568238D2832E06AF3
:10422000FDF7A8FB228DAD05AD0DFF2A09D1638DE9
:10423000FF2B06D9002300938023201C291C5B043C
:1042400006E0002300938023201C291CD2B29B048B
:10425000FEF716FD201C1921FEF7A0FD00281BD03B
:10426000201C1921FEF724FE002806D0A26BA36BA8
:10427000042A00D020221343A363202123681E4A6E
:10428000D961586802405A60221C00233532638588
:10429000201C1170537026E080212268C901136828
:1042A0000B43136024E01921FEF702FE002806D01C
:1042B000A26BA36B042A00D020221343A363202106
:1042C00023680D4AD961586802405A601A68201C58
:1042D0001540221C1D600023353263851170537018
:1042E000A36B002B02D0FFF755FF01E0FFF74CFF57
:1042F00037BDC046FFBFFFFF00E800FE37B5446A88
:104300004F4D238D201CFF2B73D1638DFF2B70D954
:10431000802100221923FEF709FD002803D0202266
:10432000A36B1343A36321680B681D400D60A36B4F
:10433000002B3BD1636A208D1A18638D62621B1AB1
:104340009BB26385638DFF2B01D9FF2300E0638D52
:1043500023854D68238D2431206BFDF70BFB228DC7
:10436000AD05AD0DFF2A09D1638DFF2B06D90023C2
:1043700000938023201C291C5B0406E0002300938B
:104380008023201C291CD2B29B04FEF779FC201C40
:10439000042100221923FEF7C9FC002803D02022A3
:1043A000A36B1343A363A36B002B1BD0201C192109
:1043B000FEF77EFD002806D0A26BA36B042A00D076
:1043C00020221343A363202123681E4AD961586821
:1043D00002405A60221C002335326385201C117074
:1043E000537026E080212268090213680B43136092
:1043F00024E01921FEF75CFD002806D0A26BA36B18
:10440000042A00D020221343A363202123680D4AED
:10441000D961586802405A601A68201C1540221C55
:104420001D6000233532638511705370A36B002B20
:1044300002D0FFF7AFFE01E0FFF7A7FE37BDC04691
:10444000FF7FFFFF00E800FE38B5446A1921201CF9
:10445000FEF72EFD002808D0A36B042B01D100230A
:1044600002E02022A36B1343A3632025802123684D
:10447000201CDD61090201221923FEF757FC0028E8
:1044800002D0A36B2B43A36322680A4B1168201C44
:104490000B401360231C00222021353362851970E4
:1044A0005A70A36B934202D0FFF774FE01E0FFF74E
:1044B0006DFE38BDFFBFFFFF38B5446A1921201CCF
:1044C000FEF7F6FC002806D0A26BA36B042A00D0EE
:1044D00020221343A363202580212368201CDD6153
:1044E000090201221923FEF721FC002802D0A36B48
:1044F0002B43A36323680D4A1968201C0A408021BE
:104500001A605A6809020A435A60231C00222021BB
:104510003533628519705A70A36B934202D0FFF74E
:1045200039FE01E0FFF733FE38BDC046FF7FFFFFD5
:1045300037B5446A584D238D201CFF2B00D087E0EF
:10454000638DFF2B00D883E0802100221923FEF722
:10455000EDFB002803D02022A36B1343A363226842
:1045600013681D401560A36B002B19D0201C192166
:10457000FEF79EFC002806D0A26BA36B042A00D095
:1045800020221343A36320212368444AD961586839
:1045900002405A6000236385231C353319704CE0B8
:1045A000636A208D1918638D61621B1A9BB2638543
:1045B000638DFF2B01D9FF2300E0638D23855568B0
:1045C000238D2832E06AFDF7D5F9228DAD05AD0DBA
:1045D000FF2A09D1638DFF2B06D900230093802386
:1045E000201C291C5B0406E0002300938023201C70
:1045F000291CD2B29B04FEF743FB201C1921FEF7B5
:10460000CDFB00281DD0201C1921FEF751FC0028ED
:1046100006D0A26BA36B042A00D020221343A3630D
:10462000202123681D4AD961586802405A60221C23
:1046300000233532638511705370201CFFF7AAFDEB
:1046400028E080212268C90113680B43136021E030
:104650001921FEF72DFC002806D0A26BA36B042ABB
:1046600000D020221343A363202123680B4AD96181
:10467000586802405A601A68201C1540221C1D60B0
:1046800000233532638511705370A36B002BD5D195
:10469000FFF77EFD37BDC046FFBFFFFF00E800FE0D
:1046A00037B5446A4F4D238D201CFF2B73D1638D8A
:1046B000FF2B70D9802100221923FEF737FB002839
:1046C00003D02022A36B1343A36321680B681D4012
:1046D0000D60A36B002B3BD1636A208D1A18638D8C
:1046E00062621B1A9BB26385638DFF2B01D9FF2386
:1046F00000E0638D23854D68238D2431206BFDF709
:1047000039F9228DAD05AD0DFF2A09D1638DFF2B3F
:1047100006D9002300938023201C291C5B0406E09B
:10472000002300938023201C291CD2B29B04FEF797
:10473000A7FA201C042100221923FEF7F7FA00280B
:1047400003D02022A36B1343A363A36B002B1BD0C6
:10475000201C1921FEF7ACFB002806D0A26BA36B2E
:10476000042A00D020221343A363202123681E4A79
:10477000D961586802405A60221C00233532638593
:10478000201C1170537026E08021226809021368F2
:104790000B43136024E01921FEF78AFB002806D0A2
:1047A000A26BA36B042A00D020221343A363202111
:1047B00023680D4AD961586802405A601A68201C63
:1047C0001540221C1D600023353263851170537023
:1047D000A36B002B02D0FFF7DDFC01E0FFF7D9FC53
:1047E00037BDC046FF7FFFFF00E800FE0368F7B556
:1047F0009A69041C92070ED49A6912060BD49A691E
:10480000520608D49A69920605D49A69D20602D44F
:104810009A69120750D57A2219680A407A2A4BD130
:10482000261C36363278D2B2202A45D1251C3435A2
:104830002978012940D00121986929700F31084257
:104840000DD0628DD961002A34D00422A36B201CC4
:104850001343A36300232B70FFF79CFC2AE008207E
:104860009969014001D0D86124E09869104212D0C2
:10487000FE271868B8438027186058683F023843FD
:104880005860DA61231C35331A70201C317029708E
:10489000FFF77CFC0EE09A6992070BD5628D002A27
:1048A00008D0626A511C616212789A62638D013B82
:1048B0009BB2638500232B7023689A6992070CD4FE
:1048C0009A69120609D49A69520606D49A69920620
:1048D00003D49A69D20600D4A6E0722219680A406D
:1048E000722A00D0A0E0221C36321178102903D0A1
:1048F0001178402900D097E0251C3435297801290A
:1049000000D191E001212970996989070CD5626A6B
:10491000511C616212789A62238D013B2385638D5D
:10492000013B9BB263857DE080219869014024D0E2
:10493000208D00281CD1628D002A19D05968638D02
:104940008905890DFF2B08D9802300905B04201C6A
:10495000FF22FEF795F9FF2308E08023628D009087
:104960009B04D2B2201CFEF78BF9638D238559E09E
:10497000002340222B70A36B4FE040209E6906422B
:104980000CD0628D002A05D180215A68C9010A43E2
:104990005A6047E0A36B297003433FE020219869E8
:1049A00001401020002931D09969014204D0D8611A
:1049B000A16B0C380143A163F2201968814319608F
:1049C0002021D9615868A2490140012059609969A4
:1049D000014202D1996901439961211CA36B3531D0
:1049E000002B05D020230B70002313702B7016E0D2
:1049F0002020167808701370201C2B70402E02D1D6
:104A0000FFF7C6FB0EE0FFF7BFFB0BE09A6902421F
:104A100008D00422D861A36B29701343A363201C20
:104A2000FFF7B8FB00232B7023689A6952070ED456
:104A30009A6912060BD49A69520608D49A699206AA
:104A400005D49A69D20602D49A6912074ED57C22FF
:104A500019680A407C2A49D1261C36363278D2B2EF
:104A6000202A43D1251C3435297801293ED0012143
:104A7000986929700F3108420AD0D96100232B7040
:104A8000A36B1C3A1343A363201CFFF783FB2BE0AB
:104A900008219869084201D0D96125E0042198696C
:104AA00001400CD0626A5B6A511C61621370238DF5
:104AB000013B2385638D013B9BB2638514E09869BC
:104AC000104211D0FE271868B84380271860586834
:104AD0003F0238435860DA61231C35331A70201CBA
:104AE00031702970FFF753FB00232B7023689A69FC
:104AF00052070CD49A69120609D49A69520606D450
:104B00009A69920603D49A69D20600D49EE0742270
:104B100019680A40742A00D098E0221C36321178B5
:104B2000102903D01178402900D08FE0251C34359E
:104B30002978012900D189E0012104262970996989
:104B400031420CD0626A5B6A511C61621370238D22
:104B5000013B2385638D013B9BB2638574E080211B
:104B60009869014025D0208D00281CD1628D002A33
:104B700019D05968638D8905890DFF2B08D98023C9
:104B800000905B04201CFF22FEF77AF8FF2308E068
:104B90008023628D00909B04D2B2201CFEF770F837
:104BA000638D238550E0002340222B70A36B1343B9
:104BB0000FE040209F6907420DD0628D002A05D189
:104BC00080215A68C9010A435A603DE0A36B2970ED
:104BD0000343A36335E02021986901401020002998
:104BE00027D09969014203D0D861A16B0E43A66317
:104BF000F4201968814319602021D9615E68144846
:104C000030405860201CA36B3530002B04D00023AB
:104C1000017013702B7014E0167801701370201C53
:104C20002B70402E02D1FFF7B4FA0DE0FFF7ADFA7A
:104C30000AE09A69024207D0D861A36B29701E432B
:104C4000A663201CFFF7A6FA00232B70F7BDC04611
:104C500000E800FE8021036849009A6910B50A4205
:104C600007D01A68120604D50124826B224382639E
:104C7000D96180219A69C9000A4207D01A681206D0
:104C800004D50824826B22438263D96180219A690A
:104C900089000A4207D01A68120604D50224826BE2
:104CA00022438263D9610B23826B1A4205D0031C15
:104CB000202235331A70FFF76DFA10BD35300078B9
:104CC000C0B2704736300078C0B27047806B704712
:104CD00081210B4B1A680A431A605968094A0A4035
:104CE0005A601968084A0A401A601968074A0A4057
:104CF0001A6000225A60DA621A639A607047C046EE
:104D0000001002400CF8FFF0FFFFF6FEFFFFFBFF74
:104D1000F0B5036885B0041CDB0703D423689B0748
:104D20005CD4A6E00C23C04D6A681A40042A0BD05C
:104D30006A681340082B0ED1C0236A685B021340D7
:104D400080225202934206D12B689B03E6D563680A
:104D5000002BE3D18FE12B68B44FB54E3B402B6065
:104D60002B6833402B60FBF7D3FD01902A68AE4BD4
:104D7000920307D5FBF7CCFD019BC01A6428F5D937
:104D80000320F8E16268012A12D0002A09D11A68CA
:104D900017401F601A6816401E60FBF7B9FD061C1D
:104DA00018E0052A0AD180211A68C9020A431A604C
:104DB00080211A6849020A431A60CBE11A68174039
:104DC0001F601A6816401E60C4E1FBF7A1FD801B3E
:104DD0006428D5D82B689B03F7D49FE70C23924D0A
:104DE0006A681A420BD06A681340082B16D1C02398
:104DF0006A685B0213408022120293420ED12B6834
:104E00009B0703D5E368012B00D034E1F8212B6820
:104E100022698B43D20013432B602AE0E36801220E
:104E2000002B17D02B6813432B60FBF771FD061C7A
:104E30002B687D499B0705D4FBF76AFD801B022880
:104E4000F6D99DE7F8200B6822698343D20013430B
:104E50000B600EE02B6893432B60FBF759FD061C9B
:104E60002B689B0705D5FBF753FD801B0228F7D95C
:104E700086E723681B0703D423685B072DD530E042
:104E8000236A0122684D002B0ED06B6A13436B62BC
:104E9000FBF73EFD061C6B6A9B07EDD4FBF738FD64
:104EA000801B0228F7D96BE76B6A93436B62FBF7B1
:104EB0002FFD061C6B6A9B07DED5FBF729FD801BC7
:104EC0000228F7D95CE7FBF723FD5A4B801B984279
:104ED00000D955E72B6A9B07F5D52368DB0663D419
:104EE000ACE08023504D5B05EA69534E1A43EA61FA
:104EF000EA69134080220393039B336852001343F3
:104F00003360FBF705FD071C3368DB0505D4FBF7B1
:104F1000FFFCC01B6428F7D932E701222B6A9343B8
:104F20002B622B6A033293432B62FBF7F1FC061CC6
:104F30002A6A3D4B920706D5FBF7EAFC3D4B801BE6
:104F40009842F5D91CE7A268012A02D1196A0A43DE
:104F50001DE00121002A0AD11A6A8A431A621A6ADC
:104F600003318A431A62FBF7D3FC061C18E0052ABA
:104F700007D104201A6A02431A621A6A114319629D
:104F8000F5E01A6A8A4304211A621A6A8A431A628D
:104F9000EDE0FBF7BDFC274B801B984200D9EFE604
:104FA0002B6A9B07F5D498E762691F4D0423012AF9
:104FB0001AD1696B0B436B636B6B1A436A63FBF724
:104FC000A7FC061C6B6B18499B0705D4FBF7A0FCDC
:104FD000801B0228F6D9D3E6F8204B6BA2698343E5
:104FE000D20013434B6329E005320AD1F8216A6BE2
:104FF0009A436A636B6BA2698B43D20013436B6362
:105000001CE06A6B134301226B636B6B93436B630E
:10501000FBF77EFC061C6B6B9B070FD5FBF778FC40
:10502000801B0228F7D9ABE600100240FFFFFEFF0D
:10503000FFFFFBFF881300000070004023689B0601
:1050400003D4626A002A3CD167E00C234B4D6A68A6
:105050001A409A4209D06A681340082B0DD1C02229
:105060006B6852021340934207D16B6BDB03E8D5A8
:10507000E369012BE5D001207DE0E369002B10D02E
:1050800080226B6B520213436B63FBF741FC061CDF
:105090006B6BDB03D5D4FBF73BFC801B0228F7D9F5
:1050A0006EE66A6B364B13406B63FBF731FC061CF4
:1050B0006B6BDB03C5D5FBF72BFC801B0228F7D9F4
:1050C0005EE60C232D4D69680B40082BD3D02D4B89
:1050D000022A30D12A6813402B60FBF719FC061C0A
:1050E0002A68264B92011AD40F21DA6A8A43216B6F
:1050F0000A43DA62E16AA06A5A68084322490A4010
:10510000802102435A601A6849040A431A60FBF777
:10511000FFFB041C2B689B0107D500202BE0FBF74D
:10512000F7FB801B0228DBD92AE6FBF7F1FB001B0B
:105130000228EFD924E62A6813402B60FBF7E8FB2E
:10514000041C2B689B01E8D5FBF7E2FB001B02283F
:10515000F7D915E6FBF7DCFB061C2B689B0300D593
:10516000DCE5FBF7D5FB801B6428F6D908E6FBF7E6
:10517000CFFB061CAEE605B0F0BDC04600100240F5
:10518000FFFFFEFFFFFFFFFEFF7FC2FF0123F7B51A
:10519000484E32681A4091420AD80268930711D5E6
:1051A000F025454C6368AB4385682B43636009E099
:1051B00032689A430A433260326813408B42ECD023
:1051C000012075E00191051CD30707D40123316844
:1051D0000198384A1940884256D35BE04368364C00
:1051E000012B03D1226892030FD4E9E7022B03D1EC
:1051F0002268920109D4E3E7032B03D1626BD20347
:1052000003D4DDE722689207DAD5032162688A4376
:1052100013436360FBF77CFB6B68071C012B0CD10D
:105220000C2362681340042BD0D0FBF771FB234B97
:10523000C01B9842F4D903203AE0022B0BD10C2377
:1052400062681340082BC1D0FBF762FB1B4BC01BED
:105250009842F4D9EFE7032B11D10C236268134075
:105260000C2BB3D0FBF754FB144BC01B9842F4D962
:10527000E1E7FBF74DFB114BC01B9842DBD80C2339
:1052800062681A42F5D1A1E711689943116012686A
:105290001A4295D12B685B0706D50749084B4A6827
:1052A0001340EA6813434B600020FBF707FB002024
:1052B000FEBDC046002002400010024088130000DE
:1052C000FFF8FFFF70B586B00D1C161C01A8002169
:1052D000142200F051FE80230E4C9B026269902044
:1052E0001A4362616269C00513400093009B8023EA
:1052F0005B000193FE3B029301A901330493FCF789
:1053000047F86268044B1A4032432A43626006B091
:1053100070BDC04600100240FFFFFF808021034A9D
:10532000090313680B4313607047C0460010024026
:10533000024A034B11680B40136070470010024093
:10534000FFFFF7FF30B5194C89B0211C10226846C9
:1053500000F0D4FD211C04AD10311022281C00F0F7
:10536000CDFD0C2212494B681A40082A03D00C2AA2
:1053700019D1104818E068469A02120F845C0F2277
:10538000C96A80200A40A95CC02252021340400230
:10539000834206D0934204D1064800F009FC6043E2
:1053A00002E00548F9E7044809B030BD186200087A
:1053B00000100240006CDC0200127A0008B5FFF712
:1053C000C1FF064B5B681B061A0F054B01339B1888
:1053D000DB7FD840034B186008BDC0460010024078
:1053E000186200080400002008B5FFF7E7FF054B2E
:1053F0005B685B055A0F044B01339B18DB7FD84079
:1054000008BDC04600100240186200083F23036038
:10541000284B1A68520301D5052205E0802219683D
:1054200052020A4000D00122012142601A680A405B
:1054300001D0C16000E0C2601A681206D20E02619B
:105440001A6A520701D5052206E00121194A126A9B
:105450000A4001D0816000E0826001215A6A0A405E
:1054600001D0016200E002621A68D20101D5022275
:1054700000E001224262C022596852020A40826260
:10548000F022596892030A40C2620F22D96A0A4088
:10549000012102635A6B0A4001D0416100E0426180
:1054A0005A6B1206D20E82611B6BDB03DB0FC361EA
:1054B0007047C046001002400723032203600A4BD6
:1054C00010B55C6822404260F0225C682240826035
:1054D0005A68E023DB001340C360044B1A680123C1
:1054E00013400B6010BDC046001002400020024077
:1054F000704710B58024044B9B68234203D0FFF70C
:10550000F7FF024B1C7010BD001002400A10024051
:10551000094BDA68D20604D502200849CA69024359
:10552000CA61DA68520704D501200449CA690243F6
:10553000CA611422DA60704700200240C8040020CB
:10554000F0B51F1C134B161C1A7E051C0220012AE5
:105550001ED00122A020104C1A762269400102437D
:105560002261996003221E615F61012D02D0042235
:10557000022D02D11A705D6002E0052018705A6099
:1055800000200122D8612369B6B2134323610E8043
:10559000F0BDC046C804002000200240704770479C
:1055A000F7B5444E444CF368DB0602D4F3685B075E
:1055B0000AD50123A5685B42A360FFF7A9FF281C59
:1055C000FFF7EDFF002323702023F268394D1A42C4
:1055D00062D0EB602378002B5ED02378012B1BD1A7
:1055E0006368013B63606368002B0ED0A068FFF71F
:1055F000D5FF80230222A068DB00C018A0602B69C1
:1056000093432B61FDF71EFA46E001204042A06063
:105610002370FFF7C3FF3FE02378022B07D104225A
:105620002B69002093432B61FFF7B8FF32E06368DA
:10563000013B63606368002B1BD0A3680233A36047
:10564000A368206961690193020C0B041A430B0CD7
:105650000121226163612B698B432B61226963699C
:105660000023E3612B6992B20B432B61019B1A80EB
:1056700012E02378032B01D1A06806E02378A0680C
:10568000042B01D1023800E00638FFF787FF012321
:105690005B42A360002323702378DBB2002B08D188
:1056A000072132698A4332613169044A0A40326112
:1056B0002376F7BD00200240C8040020FFEBFFFF67
:1056C000054B01201A69120604D50020034A5A60CE
:1056D000034A5A607047C0460020024023016745D4
:1056E000AB89EFCD8021034A002013690B4313617E
:1056F0007047C046002002408023064A9B00116983
:1057000001200B4004D1181C0349916003499160AA
:105710007047C0460020024023016745AB89EFCDAA
:10572000034A044B116900200B4013617047C046C7
:1057300000200240FFFDFFFF014BD8697047C046C3
:10574000C804002038B5041CFBF7E2F8051C104B18
:10575000DA68D2070BD5631CF9D0002C01D10320E5
:1057600015E0FBF7D5F8401BA042F0D9F7E720225F
:10577000D968114200D0DA60D8681023184003D1EC
:10578000034BDB685B0702D5FFF7C2FE012038BD83
:1057900000200240F0B51F1C1F4B161C1A7E051C72
:1057A00085B00220012A34D001221C4802960397BA
:1057B00001911A76FFF7C6FF041E26D12F1E012F76
:1057C00002D0022D00D004270025EBB2BB421CD230
:1057D000029803992A0100F07DFA00220E4B104E28
:1057E000DA61336901321343019A33616B009B180C
:1057F00080B218800948FFF7A5FF01223369AD1870
:10580000934333610028E0D0041C0022201C024B8B
:105810001A7605B0F0BDC046C804002050C3000091
:10582000002002408021054A08B5136989010B4315
:1058300013610348FFF786FF08BDC0460020024001
:1058400050C30000E021194A13688B4301680B43E1
:105850001360174B174A5968114059601968114075
:105860001960996811409960D9680A40DA60426805
:1058700080204002024202D019680143196091035E
:1058800004D580205968400201435960D10704D5EE
:1058900080209968400201439960920704D58021D5
:1058A000DA6849020A43DA607047C0460070004077
:1058B00000040140FFFFFEFF1021024A13680B4362
:1058C00013607047007000401021024A13688B4338
:1058D0001360704700700040704738B58025044C55
:1058E0006D0263692B4202D0FFF7F6FF656138BD98
:1058F000000401408020044B000619680143196030
:10590000DA680243DA60704700040140064B1A6807
:10591000520052081A60DA6852005208DA609A6837
:10592000520052089A60704700040140704710B559
:10593000044C6369002B04DAFFF7F8FF80231B0691
:10594000636110BD00040140F0B5041C35342278B9
:10595000031CD2B20220202A18D11D1C34352E7807
:10596000012E13D001271B68223020701868B8431D
:1059700018601E68064806401E60186808431860D4
:10598000002019683943196022702870F0BDC046A4
:10599000FFEFFFFFF0B5051C35352C78031CE4B292
:1059A0000220202C17D11E1C34363278012A12D046
:1059B00024221B682A701A68013882431A601F6803
:1059C000054A09023A40114319601A68024300204F
:1059D0001A602C703070F0BDFFF0FFFF011C70B535
:1059E00035310A78031CD2B20220202A16D11D1CA0
:1059F00034352C78012C11D00126223008708020FB
:105A00001B68C0021C68B4431C601C6804431C6013
:105A100018683043186000200A70287070BD011C9F
:105A200070B535310A78031CD2B20220202A15D174
:105A30001D1C34352C78012C10D001261B68223017
:105A400008701C68B4431C601868054C04401C6056
:105A500018683043186000200A70287070BDC04676
:105A6000FFFFFBFF0123074A82B09169194391614F
:105A700092691340044A0193019B13681843106014
:105A800002B0704700100240000001400123074AA5
:105A900082B091691943916192691340044A01935C
:105AA000019B13688343136002B0704700100240EB
:105AB000000001400121114B1A680A431A6058681E
:105AC0000F4A02405A6018680E4A02401A6018686D
:105AD0000D4A02401A6058680C4A02400F205A6072
