:020000040800F2
:10000000001800207D1600085F090008610900083B
:1000100000000000000000000000000000000000E0
:10002000000000000000000000000000ED160008C5
:100030000000000000000000ED1600086309000841
:10004000ED160008ED160008ED160008ED16000884
:10005000ED160008ED160008ED160008ED16000874
:10006000ED160008ED160008ED160008ED16000864
:10007000ED160008ED160008ED160008ED16000854
:10008000ED1600080000000000000000ED1600085A
:1000900000000000ED160008ED160008ED1600083F
:1000A00000000000ED160008ED160008ED1600082F
:1000B000ED16000800000000ED160008ED1600081F
:1000C00008B5054B054803331B1A062B03D9044B0F
:1000D000002B00D0984708BD3004002030040020D9
:1000E000000000000648074908B5091A8910CB0F1F
:1000F0005918491003D0044B002B00D0984708BD75
:1001000030040020300400200000000010B5074C2F
:100110002378002B09D1FFF7D3FF054B002B02D02A
:10012000044800E000BF0123237010BD300400200C
:1001300000000000E418000808B5094B002B03D0AC
:100140000848094900E000BF08480368002B02D1B5
:10015000FFF7C8FF08BD064B002BF9D09847F7E71B
:1001600000000000E41800083404002030040020DF
:1001700000000000002243088B4274D303098B4225
:100180005FD3030A8B4244D3030B8B4228D3030C67
:100190008B420DD3FF22090212BA030C8B4202D309
:1001A0001212090265D0030B8B4219D300E0090A31
:1001B000C30B8B4201D3CB03C01A5241830B8B423A
:1001C00001D38B03C01A5241430B8B4201D34B0323
:1001D000C01A5241030B8B4201D30B03C01A524188
:1001E000C30A8B4201D3CB02C01A5241830A8B420D
:1001F00001D38B02C01A5241430A8B4201D34B02F6
:10020000C01A5241030A8B4201D30B02C01A524159
:10021000CDD2C3098B4201D3CB01C01A524183090D
:100220008B4201D38B01C01A524143098B4201D347
:100230004B01C01A524103098B4201D30B01C01A72
:100240005241C3088B4201D3CB00C01A52418308EC
:100250008B4201D38B00C01A524143088B4201D319
:100260004B00C01A5241411A00D201465241104679
:100270007047FFE701B5002000F0FCF802BDC04662
:100280000029F7D003B5FFF775FF0EBC4243891A6A
:100290001847C04603460B437FD4002243088B42D5
:1002A00074D303098B425FD3030A8B4244D3030BFD
:1002B0008B4228D3030C8B420DD3FF22090212BAC2
:1002C000030C8B4202D31212090265D0030B8B423E
:1002D00019D300E0090AC30B8B4201D3CB03C01A28
:1002E0005241830B8B4201D38B03C01A5241430B03
:1002F0008B4201D34B03C01A5241030B8B4201D3F3
:100300000B03C01A5241C30A8B4201D3CB02C01A5D
:100310005241830A8B4201D38B02C01A5241430AD5
:100320008B4201D34B02C01A5241030A8B4201D3C4
:100330000B02C01A5241CDD2C3098B4201D3CB016B
:10034000C01A524183098B4201D38B01C01A52411A
:1003500043098B4201D34B01C01A524103098B421E
:1003600001D30B01C01A5241C3088B4201D3CB0009
:10037000C01A524183088B4201D38B00C01A5241EC
:1003800043088B4201D34B00C01A5241411A00D29C
:1003900001465241104670475DE0CA0F00D0494205
:1003A000031000D34042534000229C4603098B4275
:1003B0002DD3030A8B4212D3FC22890112BA030AFD
:1003C0008B420CD3890192118B4208D3890192117F
:1003D0008B4204D389013AD0921100E08909C30904
:1003E0008B4201D3CB01C01A524183098B4201D306
:1003F0008B01C01A524143098B4201D34B01C01AF1
:10040000524103098B4201D30B01C01A5241C30868
:100410008B4201D3CB00C01A524183088B4201D3D7
:100420008B00C01A5241D9D243088B4201D34B00F2
:10043000C01A5241411A00D20146634652415B1034
:10044000104601D34042002B00D549427047634615
:100450005B1000D3404201B5002000F00BF802BD54
:100460000029F8D003B5FFF715FF0EBC4243891AE7
:100470001847C0467047C04613B56B46DC1D211CAB
:1004800000F075F9074B22781978914207D0002ABD
:1004900005D090202024C0054169614041611A7057
:1004A00013BDC0464C040020302330B50024012584
:1004B00093B0059305A8203B0B930C950A950E94D9
:1004C00000F082FD0723291C019301A8043B02933D
:1004D0000394049400F0B6FF01F08CF8FA2189002F
:1004E000FFF748FE00F038FC042000F04FFC01202C
:1004F000211C4042221C00F0FDFB13B030BD000067
:10050000F7B500F027FBFFF7CFFFC021404BC90232
:100510005A69C0200A435A619022D205916980032A
:100520000143A02091611168C0000143E0201160E7
:100530001168C00101430C20116036491C1C0A6877
:1005400002430A6080219A6989000A4301219A6165
:100550005A6B0A435A63636B9B0703D4012000F074
:1005600017FBF8E701222C4CA3681343A360012575
:100570002368294A2B4203D1281C00F009FBF6E727
:10058000136996219B009B0813618023234EC900A9
:100590009B009362301C0A1C2B1C00F043F8F821CE
:1005A000C9000A1C2B1C01A800F03CF8C6213068C9
:1005B000C9001B4A00F09EF8002500F0EBF8042269
:1005C000A3681343A3600423A2681A40FBD1124B13
:1005D0001F6C8C23B9B25B004B431B0B14335B1BAA
:1005E000002B06DC90211020151CC9054B694340E7
:1005F0004B61281C0521FFF733FF002903D1B9B255
:10060000306800F0A1F80120013500F0C1FAD4E70C
:100610000010024000040048002401406004002053
:1006200079040008F7B52F4C071C2578009101923A
:100630001E1C002D07D100F09BF900F0BBF92A4BDE
:100640001D700123237000233B60E8245C43274A8C
:100650000198A15A81420DD11419A28B00998A42A6
:1006600008D101229A40131C21493C600A781343A7
:100670000B7034E00133042BE7D1002E01D10024AC
:100680002DE0002600F0F0F8184800F007F900F01F
:10069000FDF8174B1A78131C012133410B421AD174
:1006A000E8257543114B5C193C6000F0DDF80F4BF9
:1006B000009958191C3000F01FF90199201C00F016
:1006C0001BF900F0E3F80123B3401E1C084A13781D
:1006D0001E43167003E00136042EDCD1CFE7201C48
:1006E000FEBDC0464F0400204E040020007C0008E0
:1006F0004D040020F8B5124B002499421DD8A242A7
:100700001BD06300C3189E880E4DAE4211D1071C4A
:10071000161C0234A4003D19181D00F0EDF8281D28
:10072000311C00F00FF96868841B62425441E4B246
:1007300003E00134042CE4D10024201CF8BDC046A1
:10074000FF070000FFFF00001FB5402201AB1A7138
:100750003D3A9A7000225971DA70090A028899713B
:10076000181C05211A8000F04FF905B000BD031CCC
:1007700010B50120002B0BD01A790230540907D193
:100780009C78022C04D1002A02D1101C5B790B70DA
:1007900010BD0000F8B5002000F0B4F900281CD00E
:1007A0000E4D0521281C00F07BF9E8230C4C9B0022
:1007B000E7180026A3192A889B889A4204D173005F
:1007C000E318DB68281C98470236082EF2D1E8347B
:1007D000BC42EED10022034B1A70F8BD5004002039
:1007E000007C00084E040020012307B5094A0120BF
:1007F000916940421943916100219269134001932C
:100800000A1C019B00F076FA1021034A13680B437F
:10081000136007BD00100240000001407FB5026870
:100820000F4B9A4219D180230E4A9B04D169902024
:100830001943D161D269C00513400093009BC023C6
:100840005B01019302230293002303930333049378
:1008500001A90133059300F0A7F907B000BDC04618
:100860000064004000100240054BDA68D207FBD458
:100870001A69120603D5034A5A60034A5A60704740
:100880000020024023016745AB89EFCD8021024A59
:1008900013690B4313617047002002400221154B7E
:1008A00030B51A690A431A6158611A693E310A4320
:1008B000191C1A610122C8680E4B1040FAD120247D
:1008C000DD68254203D0DA682243DA600DE00424B3
:1008D000D868204204D0D8682043D860101C04E0B7
:1008E0001020DA680243DA600E3802220B69934363
:1008F0000B6130BD0020024010B50124104B1A6975
:1009000022431A610180191C0122C8680C4B104057
:10091000FAD12021DC680C4203D0DA680A43DA609D
:100920000DE00420D968014204D0D9680143D960A0
:10093000101C04E010210220DA680A43DA6010BDBE
:100940000020024010B589B2041CFFF7D5FF011E3C
:1009500003D1A01CFFF7D0FF011C081C10BD70477D
:10096000FEE708B500F006F900F01FFA08BD000028
:10097000002201210A4B1A605A609A60DA609A617B
:100980005A611A615A62D9611962064B30321A6093
:10099000054B064A1A600622054B1A707047C0467E
:1009A000B0040020680400206C04002000640040B3
:1009B000AC04002070B5104E3378062B1BD10F4BC2
:1009C0000F4C1B6800256360C0239B0223618023BA
:1009D000201C9B036361A560E560A561E56125625C
:1009E0006562A562E562256300F054FA201C0549A2
:1009F00000F0E0F9357070BDAC0400206804002000
:100A00006C040020B0040020F7B50022131C22491A
:100A100018331B015B58DB0704D50132032AF5D1DB
:100A2000052038E0C02405881B4913016D055918BD
:100A300064000D51C578002D03D002260D593543B1
:100A40000D510F24857846072C40C2256D004C516E
:100A5000124C071D1B1900245C601C60331A0193A3
:100A60000E4C13011B19019C067A0419E400A640E0
:100A70005D68013035435D60C6781D68A640341C52
:100A80002C431C60B842EBD1C022012052008B588D
:100A9000034300208B50FEBD006400408865004089
:100AA000174B10B5D9680222890727D0D8246400D3
:100AB0001959490D01800021C1701959114201D005
:100AC000013AC270DA2252009958A63AFF3A0A4017
:100AD000827000220430DE2149005958084CD14070
:100AE0000171DC2149005958D140083201700130B0
:100AF000202AF0D1E3681A43E2600022101C10BDE6
:100B000000640040084B021C1B780020062B0AD012
:100B1000064B1B68824201D1D86800E018690323A4
:100B200018404042C00F7047AC0400206C04002005
:100B300010B5041C00F05EFDFA218900FFF71AFBD6
:100B400000F00AF90120211C4042002200F0D2F8F6
:100B5000002010BD1021064A08B5136800200B4381
:100B60001360FFF7E5FFFFF73FFE002008BDC0461A
:100B700000200240024A1368013313607047C046E8
:100B80005C040020014B18687047C0465C040020DC
:100B900013B50190FFF7F6FF041CFFF7F3FF019B6D
:100BA000001B9842F9D313BDF0B50B6887B00293D0
:100BB00000230191029ADA4000D18FE001229A408D
:100BC000029C1440009400D186E0019A10245268DF
:100BD000171CA743022F0ED107250F211D40AD0082
:100BE000A940DC08A4000419266A8E43019909690A
:100BF000A9400E4326620324251C5E00B540144024
:100C0000ED43B4400168013F29400C430460012FCB
:100C10000FD801998768CC682F40B4403C4384606A
:100C200001249C404768A743D406E40F9C403C4302
:100C300044600199C46889682540B1400D43C5608E
:100C4000D10049D50127264C0326A5691E403D4306
:100C5000A5610F25B600B540A46922493C40059422
:100C6000059C9C08A4006418A168A94303919021E5
:100C70000025C905884208D03D1C1B4FB84204D04E
:100C80001A4F6D19B84200D00335B54003990D4392
:100C90000099A5600E1C164CCD4327683E43D10336
:100CA00001D43E1C2E4026606768009E3E4391039F
:100CB00001D43E1C2E406660A768009E3E43D102D0
:100CC00001D43E1C2E40A660E668009F3743920286
:100CD00001D42E40371CE76001336BE707B0F0BD4D
:100CE00000100240000001400004004800080048D5
:100CF0000004014070B58901002815DA0F23C0B245
:100D00000340083B124A9B0803249B009B18FF22C8
:100D10002040A040141C8440DD691140A54381405F
:100D20002A1C0A43DA6112E084080A4B0326A40055
:100D3000E418FF233040B0401E1CC0258640AD00A3
:100D400062591940B2438140131C0B43635170BD7B
:100D500000ED00E000E100E0094A431E012093425B
:100D60000DD8C020074A084953600B6A00061B02D1
:100D70001B0A03430B620020072390601360704737
:100D8000FFFFFF0010E000E000ED00E0054B1A68F7
:100D9000042802D11043186002E004218A431A603B
:100DA0007047C04610E000E0704708B5FFF7FCFF51
:100DB00008BD000070B50126341C036880204A6914
:100DC000800094401D5835431D501E58304D35400D
:100DD0001D504E6A1D583602354387261D50E0438C
:100DE000B6009D5905409D51CD69002D0ED1103E94
:100DF0009D59D20005409D51CD688E882D04354304
:100E000090269A18B60095510E8810E0012D14D145
:100E10008326B6009D59D20025439D510D688E88CA
:100E20002D04354390269A18B60095518E898D6809
:100E30002D0435439126B600955181228D6992008B
:100E4000002D02D19D58054001E09D5825439D503D
:100E50000A69002A05D1852292009D5828409850A1
:100E600006E0012A04D1852080001A5822431A5036
:100E70000A6A012A04D1872189005A5814435C5018
:100E80008021012089005A5882435A50002070BDA9
:100E9000FFC0FFFFF8B50123002800D191E0051C39
:100EA00039352B78041CDBB2002B04D1021C3832FC
:100EB0001370FFF7B3FC0221236829701A688A4374
:100EC0001A601A6801390A431A60FFF75BFE071CB3
:100ED000012223685E68164009D1FFF753FEC01B4C
:100EE0000A28F5D9032338342B70267069E0596835
:100EF000114263D0A2698021012A02D11A680A43F3
:100F000001E01A688A431A60E2694021012A02D18D
:100F10001A680A4301E01A688A431A60226A20218B
:100F2000012A02D11A680A4301E01A688A431A604A
:100F3000626A1021012A02D11A680A4301E01A6884
:100F40008A431A60A26A0821012A02D11A680A4358
:100F500001E01A688A431A60E26A0421012A02D178
:100F60001A680A4301E01A688A431A60A168E268B5
:100F70000A4321690A4361690A43616801390A43E6
:100F80000121DA611A688A431A60FFF7FBFD061C2B
:100F900001222368596811420AD0FFF7F3FD801B34
:100FA0000A28F5D90323002238342B70227008E078
:100FB0005B68134002D1E3632A7002E004232B70C4
:100FC000033B181CF8BD0000F0B5036885B0041C95
:100FD000DB0703D423689B075CD4A6E00C23C04D39
:100FE0006A681A40042A0BD06A681340082B0ED195
:100FF000C0236A685B02134080225202934206D1EA
:101000002B689B03E6D56368002BE3D18FE12B6847
:10101000B44FB54E3B402B602B6833402B60FFF73D
:10102000B1FD01902A68AE4B920307D5FFF7AAFDE8
:10103000019BC01A6428F5D90320F8E16268012AEF
:1010400012D0002A09D11A6817401F601A6816408A
:101050001E60FFF797FD061C18E0052A0AD18021C3
:101060001A68C9020A431A6080211A6849020A43B1
:101070001A60CBE11A6817401F601A6816401E609C
:10108000C4E1FFF77FFD801B6428D5D82B689B0344
:10109000F7D49FE70C23924D6A681A420BD06A6816
:1010A0001340082B16D1C0236A685B0213408022CC
:1010B000120293420ED12B689B0703D5E368012BE4
:1010C00000D034E1F8212B6822698B43D20013430E
:1010D0002B602AE0E3680122002B17D02B68134312
:1010E0002B60FFF74FFD061C2B687D499B0705D43D
:1010F000FFF748FD801B0228F6D99DE7F8200B6812
:1011000022698343D20013430B600EE02B689343A4
:101110002B60FFF737FD061C2B689B0705D5FFF7F3
:1011200031FD801B0228F7D986E723681B0703D40B
:1011300023685B072DD530E0236A0122684D002B20
:101140000ED06B6A13436B62FFF71CFD061C6B6AC3
:101150009B07EDD4FFF716FD801B0228F7D96BE73C
:101160006B6A93436B62FFF70DFD061C6B6A9B076E
:10117000DED5FFF707FD801B0228F7D95CE7FFF7F4
:1011800001FD5A4B801B984200D955E72B6A9B07FB
:10119000F5D52368DB0663D4ACE08023504D5B05B6
:1011A000EA69534E1A43EA61EA69134080220393C5
:1011B000039B3368520013433360FFF7E3FC071CC3
:1011C0003368DB0505D4FFF7DDFCC01B6428F7D9C5
:1011D00032E701222B6A93432B622B6A033293433B
:1011E0002B62FFF7CFFC061C2A6A3D4B920706D5FF
:1011F000FFF7C8FC3D4B801B9842F5D91CE7A2685D
:10120000012A02D1196A0A431DE00121002A0AD1EC
:101210001A6A8A431A621A6A03318A431A62FFF70A
:10122000B1FC061C18E0052A07D104201A6A024303
:101230001A621A6A11431962F5E01A6A8A43042194
:101240001A621A6A8A431A62EDE0FFF79BFC274B89
:10125000801B984200D9EFE62B6A9B07F5D498E7EC
:1012600062691F4D0423012A1AD1696B0B436B631A
:101270006B6B1A436A63FFF785FC061C6B6B18499E
:101280009B0705D4FFF77EFC801B0228F6D9D3E626
:10129000F8204B6BA2698343D20013434B6329E0D0
:1012A00005320AD1F8216A6B9A436A636B6BA269B3
:1012B0008B43D20013436B631CE06A6B1343012220
:1012C0006B636B6B93436B63FFF75CFC061C6B6B90
:1012D0009B070FD5FFF756FC801B0228F7D9ABE61A
:1012E00000100240FFFFFEFFFFFFFBFF881300001E
:1012F0000070004023689B0603D4626A002A3CD138
:1013000067E00C234B4D6A681A409A4209D06A681C
:101310001340082B0DD1C0226B6852021340934238
:1013200007D16B6BDB03E8D5E369012BE5D0012026
:101330007DE0E369002B10D080226B6B52021343D7
:101340006B63FFF71FFC061C6B6BDB03D5D4FFF749
:1013500019FC801B0228F7D96EE66A6B364B1340E6
:101360006B63FFF70FFC061C6B6BDB03C5D5FFF748
:1013700009FC801B0228F7D95EE60C232D4D696815
:101380000B40082BD3D02D4B022A30D12A681340B2
:101390002B60FFF7F7FB061C2A68264B92011AD434
:1013A0000F21DA6A8A43216B0A43DA62E16AA06A92
:1013B0005A68084322490A40802102435A601A6849
:1013C00049040A431A60FFF7DDFB041C2B689B01EC
:1013D00007D500202BE0FFF7D5FB801B0228DBD9C7
:1013E0002AE6FFF7CFFB001B0228EFD924E62A6884
:1013F00013402B60FFF7C6FB041C2B689B01E8D54C
:10140000FFF7C0FB001B0228F7D915E6FFF7BAFB70
:10141000061C2B689B0300D5DCE5FFF7B3FB801BA4
:101420006428F6D908E6FFF7ADFB061CAEE605B06A
:10143000F0BDC04600100240FFFFFEFFFFFFFFFEB1
:10144000FF7FC2FF0123F7B5484E32681A40914230
:101450000AD80268930711D5F025454C6368AB4361
:1014600085682B43636009E032689A430A4332601F
:10147000326813408B42ECD0012075E00191051CCD
:10148000D30707D4012331680198384A19408842AC
:1014900056D35BE04368364C012B03D1226892039C
:1014A0000FD4E9E7022B03D12268920109D4E3E7C4
:1014B000032B03D1626BD20303D4DDE722689207CA
:1014C000DAD5032162688A4313436360FFF75AFB4E
:1014D0006B68071C012B0CD10C2362681340042B92
:1014E000D0D0FFF74FFB234BC01B9842F4D9032009
:1014F0003AE0022B0BD10C2362681340082BC1D0B9
:10150000FFF740FB1B4BC01B9842F4D9EFE7032BBE
:1015100011D10C23626813400C2BB3D0FFF732FBC0
:10152000144BC01B9842F4D9E1E7FFF72BFB114B9A
:10153000C01B9842DBD80C2362681A42F5D1A1E7A0
:1015400011689943116012681A4295D12B685B07A4
:1015500006D50749084B4A681340EA6813434B60B5
:101560000020FFF7E5FA0020FEBDC0460020024043
:101570000010024088130000FFF8FFFF30B5194C3F
:1015800089B0211C1022684600F0F8F8211C04AD37
:1015900010311022281C00F0F1F80C2212494B687F
:1015A0001A40082A03D00C2A19D1104818E06846BE
:1015B0009A02120F845C0F22C96A80200A40A95C3B
:1015C000C022520213404002834206D0934204D10B
:1015D0000648FEF7CFFD604302E00548F9E70448FE
:1015E00009B030BDFC18000800100240006CDC029D
:1015F00000127A0008B5FFF7C1FF054B054A5B688A
:101600001B061B0FD35CD840034B186008BDC046B7
:10161000001002401C190008000000200121114B9D
:101620001A680A431A6058680F4A02405A601868DC
:101630000E4A02401A6018680D4A02401A60586843
:101640000C4A02400F205A60DA6A8243DA62186B51
:10165000094A02401A635A6B8A435A6300229A600D
:101660007047C046001002400CB8FF08FFFFF6FEAE
:10167000FFFFFBFFFFFFC0FF2CFEFFFF1348854667
:1016800004200168090E1F22914205D11048012152
:101690000160104800210160002103E00E4B5B58FF
:1016A000435004310D480E4B42189A42F6D30D4A6E
:1016B00002E00023136004320B4B9A42F9D3FFF788
:1016C000ADFF00F037F8FEF71BFFFEE70018002023
:1016D00018100240000001404019000800000020DE
:1016E0003004002030040020D8040020FEE7000071
:1016F00008B5011C00220020002300F07DF808BD81
:1017000038B5094B094CE41AA41009D0084AA518A9
:10171000AD00ED182B68013C9847043D002CF9D131
:1017200000F0E6F838BDC0463C1900084019000832
:10173000FFFFFF3F70B50D4E0D4D0024AD1BAD10EA
:1017400005D0A300F35801349847A542F9D100F021
:10175000C9F8084E084D0024AD1BAD1005D0A300FC
:10176000F35801349847A542F9D170BD34190008E7
:1017700034190008341900083C19000870B50F2A04
:1017800032D9041C0C430B1CA40731D1151C041CBA
:10179000103D2D0901352D0149191E6826605E682E
:1017A00066609E68A660DE681033E6601034994279
:1017B000F3D10F2345191340032B1BD91C1F002302
:1017C000A4080134A400CE58EE500433A342FAD149
:1017D000ED18C91803231A4005D00023CC5CEC5443
:1017E00001339342FAD170BD051C002AF5D1FAE706
:1017F000051CF2E71A1CF8E7F8B544465F46564662
:101800004D469B462F4BF0B41C68A4235B00051C7F
:10181000E0580E1C904600284BD043681F2B0DDC6F
:101820005C1C002D21D102339B0044601E5000201F
:101830003CBC90469946A246AB46F8BD224B002BD5
:101840003CD0C820400000E000BF002836D0A422D1
:1018500000235200A15843600160A05040328350E1
:10186000043283500124002DDDD09A00914681443A
:10187000424688214F467A50C42252009046804406
:1018800042468739994012688A460A43944642463E
:1018900061461160842249465F4652008F50022DF6
:1018A000C1D1021C55468D32FF3211680D431560BF
:1018B000B9E7201C4D30FF30E050AEE70120404238
:1018C000B6E7C046301900080000000008B5034B19
:1018D000002B02D00248FFF70BFF08BD00000000FC
:1018E00001170008F8B5C046F8BC08BC9E46704712
:0C18F000F8B5C046F8BC08BC9E46704726
:1018FC0002030405060708090A0B0C0D0E0F101045
:10190C000102030405060708090A0B0C0D0E0F1043
:10191C000000000001020304010203040607080989
:08192C00430000000800002048
:08193400CD180008390100087C
:04193C000D01000891
:1019400000127A000000000000000000F4020020F5
:101950005C030020C4030020000000000000000021
:101960000000000000000000000000000000000077
:101970000000000000000000000000002C1900081A
:101980000000000000000000000000000000000057
:101990000000000000000000000000000000000047
:1019A0000000000000000000000000000000000037
:1019B0000000000000000000000000000000000027
:1019C0000000000000000000000000000000000017
:1019D0000000000000000000000000000000000007
:1019E00000000000000000000000000000000000F7
:1019F00001000000000000000E33CDAB34126DE694
:101A0000ECDE05000B0000000000000000000000FC
:101A100000000000000000000000000000000000C6
:101A200000000000000000000000000000000000B6
:101A300000000000000000000000000000000000A6
:101A40000000000000000000000000000000000096
:040000050800167D5C
:00000001FF
