:020000040800F2
:1000000000180020F96D0008BD040008C1040008B4
:1000100000000000000000000000000000000000E0
:10002000000000000000000000000000696E0008F1
:100030000000000000000000696E0008C504000810
:10004000696E0008696E0008696E0008696E000834
:10005000696E0008696E0008696E0008696E000824
:10006000696E0008696E0008696E0008696E000814
:10007000696E0008696E0008696E0008696E000804
:10008000696E00080000000000000000696E0008B2
:1000900000000000696E0008696E0008696E0008C3
:1000A00000000000696E0008696E0008696E0008B3
:1000B000696E000800000000696E0008696E0008A3
:1000C00008B5054B054803331B1A062B03D9044B0F
:1000D000002B00D0984708BD3804002038040020C9
:1000E000000000000648074908B5091A8910CB0F1F
:1000F0005918491003D0044B002B00D0984708BD75
:1001000038040020380400200000000010B5074C1F
:100110002378002B09D1FFF7D3FF054B002B02D02A
:10012000044800E000BF0123237010BD3804002004
:10013000000000001872000808B5094B002B03D01E
:100140000848094900E000BF08480368002B02D1B5
:10015000FFF7C8FF08BD064B002BF9D09847F7E71B
:1001600000000000187200083C0400203404002045
:1001700000000000144B002B00D1124B9D46402282
:1001800092029A1A924600218B460F461148124A53
:10019000121A06F0FFFE0D4B002B00D098470C4BB7
:1001A000002B00D098470020002104000D000B48D0
:1001B00006F05CFE06F08CFE2000290000F054F8EA
:1001C00006F05CFE000008000000000000000000D7
:1001D0000000000038040020E80400209D6E0008A4
:1001E0000A4A916804230B439360111C04228B6814
:1001F0001A42FCD1054B1B6C03801804000C8C23A5
:100200005B005843000B14307047C0460024014087
:1002100010B592B0302305932F3B0C930A930F3304
:100220000B9300240E9405A805F0A6FC0723019368
:10023000043B02930394049401A8012105F076FF86
:1002400006F0C6F8FA21890006F044FD01F0FCFB37
:10025000042001F05FFC012040420021002201F057
:100260009BFB12B010BDC046F0B5474680B48AB0C3
:1002700000F040FCFFF7CCFF3C4B5A69C021C9029B
:100280000A435A619022D2059169C020800301433C
:1002900091611168A020C000014311601168E02045
:1002A000C00101431160324908680C2202430A6010
:1002B0009A69802189000A439A61596B01220A4395
:1002C0005A635B6B9B0707D4284D0224012000F082
:1002D0002FFC6B6B1C42F9D0264B9A6801210A4314
:1002E0009A601B68194206D1224C012000F020FCC4
:1002F0002368DB07F9D51F4C23699B009B0823610A
:1003000000F0E6F800F004F980239B00A3620025CA
:10031000002401AEFF3BFF3B98469027FF050020DD
:1003200000F07CF90028FAD0301C032100F06AF9B3
:10033000002803D1757D2D02337D1D43281CFFF756
:100340004FFF001B002805DC7A69102353407B61B6
:10035000002406E04346234203D07B6920229343D6
:100360007B610134012000F0E3FBD8E7001002407C
:10037000000400480024014000B583B00A4A916996
:10038000012001439161936903400193019B02386D
:100390000021002201F000FB044A116810230B43E6
:1003A000136003B000BDC0460010024000000140D1
:1003B00030B587B00268114B9A421CD1104A91693E
:1003C00080239B0019439161926913400093009B25
:1003D000C023019303250295002403949020C005B7
:1003E00001A901F059F902230193029503940548EC
:1003F00001A901F051F907B030BDC0460024014009
:10040000001002400004004808B50268084B9A42F8
:100410000DD1084A9169084B0B4093619020C005AB
:10042000C02101F007FA0548022101F003FA08BDD6
:100430000024014000100240FFFDFFFF00040048BF
:1004400000B587B002680F4B9A4219D10E4AD169A4
:1004500080239B041943D161D26913400093009B10
:10046000C0235B0101930223029300230393033310
:100470000493013305939020C00501A901F00CF904
:1004800007B000BD006400400010024008B50268DB
:10049000074B9A420AD1074AD169074B0B40D361F7
:1004A0009020C005C021490101F0C4F908BDC04633
:1004B0000064004000100240FFFFFFFD7047C0468F
:1004C000FEE7C04608B500F025FB01F035FB08BD8E
:1004D0000A4B00221A605A609A60DA609A61012120
:1004E000D9615A611A615A6219622F31044B19603D
:1004F0000449054B1960054B1A707047A004002091
:1005000058040020006400405C0400209C0400208B
:1005100010B5114B1B78002B1DD1104C104B1B68D4
:1005200063600023A360E360C02292022261802204
:1005300092036261A361E36123626362A362E36287
:100540002363201C01F0A4FF201C064901F012FFC8
:100550000122014B1A7010BD9C0400205C04002095
:1005600058040020A0040020082828D88000144B3C
:100570001B589F4696229200124B1A601FE096224B
:100580005200104B1A601AE078220E4B1A6016E0E7
:100590003C220C4B1A6012E030220A4B1A600EE02B
:1005A0001822084B1A600AE00C22064B1A6006E07B
:1005B0000822044B1A6002E00622024B1A607047C0
:1005C0003472000858040020074B1B78012B09D017
:1005D000002804D080221206044B9A6002E0002218
:1005E000024B9A607047C0469C0400205C040020C7
:1005F00008B5034B1863181C02F01CF808BDC04670
:100600005C04002008B50A1C034B5863181C002129
:1006100002F0C0F908BDC0465C040020021C0B4B70
:100620001B780020002B10D0002A07D1084B1B6834
:10063000D868032318404042C00F06E0044B1B68F3
:100640001869032318404042C00F70479C040020E3
:100650005C040020F0B5474680B482B0041C0368F7
:10066000DB034DD53F4AD16980235B051943D16136
:10067000D26913400193019B3B4A136880214900D2
:100680000B43136000F04EFA071C374E80256D00B7
:1006900004E000F047FAC01B64285BD833682B42A3
:1006A000F7D0304B1B6A62685340C022920013425D
:1006B00026D02C4B186A2D4A0240196A80256D02FB
:1006C000294319621D6A2A49294019621A6283075F
:1006D0000FD500F027FA8046224E0225254F05E06F
:1006E00000F020FA4346C01AB84235D8336A1D429A
:1006F000F6D01C4A116A1D4B0B4061680B43136214
:100700002368DB0706D5174A136B03218B43A168C7
:100710000B43136323689B0606D5124A136B102103
:100720008B43E1680B43136323689B0306D50D4A93
:10073000136B80218B4361690B4313630020236893
:100740005B050AD507490B6B40229343226913438B
:100750000B6302E0032000E0032002B004BC9046DB
:10076000F0BDC0460010024000700040FFFCFFFFDB
:10077000FFFFFEFF881300000E4B03600E4B196A4B
:10078000C02292000A4042601A6B03210A40826034
:100790001A6B0D310A40C260084A02601A6B703150
:1007A0000A404261064A02601B6B4022134003610B
:1007B0007047C046210001000010024021000300E4
:1007C0002104030010B58023DB00984200D19CE097
:1007D00004D8012832D020284ED0AAE080235B0222
:1007E000984204D080239B02984256D0A1E0584BF7
:1007F0001A6AC0239B00134080225200934205D105
:10080000534B186A8007C00FC0039FE080229200FC
:10081000934206D14E4B5B6A00209B0700D495E0C3
:1008200089E00020C0229200934200D08EE0484B25
:100830001B689B0300D480E0464887E0444B1B6B59
:100840000322134002D105F0D7FD7FE0032B05D131
:100850003F4B1B6800209B0778D570E0012B02D12D
:1008600005F06EFD72E00020022B6FD1384B186A44
:100870008007C00FC00369E0354B1B6B102213408B
:1008800005D1334B1B6800209B075FD559E0002042
:10089000102B5BD105F054FD58E02D4B1B6B8022D3
:1008A0001340802B28D12A4B1B6800209B014DD57B
:1008B000274948684A68C0235B021A408002000F3B
:1008C000841CCB6A0F211940013180235B029A42BC
:1008D00004D1214806F0FEF9604337E0C0235B02F3
:1008E0009A4204D11D4806F0F5F960432EE01A48FB
:1008F00006F0F0F9604329E00020002B26D1144BCC
:100900005B6B9B031FD5154820E0114B1B6B4022EE
:10091000134005D10E4B1B6800209B0716D514E031
:100920000020402B12D10A4B186A8007C00FC00369
:100930000CE000200AE00A4808E0002006E0064833
:1009400004E0054802E0002000E0034810BDC04676
:100950000010024090D0030000127A00006CDC020C
:10096000409C00001C4B1A69802109050A431A614A
:1009700019691A4A0A401A61194B5968194A0A40FA
:100980005A605A6801680A435A605A6841680A43C3
:100990005A605A6881680A435A605A68120E1206F1
:1009A0005A605A68C1680A435A605A680169090462
:1009B0000A435A6019680C4A0A401A601968426969
:1009C00012020A431A60196840220A431A60196821
:1009D00020220A431A60704700100240FFFFFFF711
:1009E000006C0040FFFFFF48FFC0FFFF024A116894
:1009F00080230B4313607047006C0040084A536823
:100A00001B041B0C036013689B049B0E43609368DC
:100A10001B0C8360926880231B021340C3607047E5
:100A2000006C0040F8B5071C00F07CF8061C01259E
:100A30001B4C7B1C09D0281C002F07D000F072F83B
:100A4000801B87428041404200E00020A3681D4295
:100A500002D002231843E560A3689B0703D5042353
:100A60001843023BE360A3685B0503D520231843CA
:100A70001C3BE360A368DB0503D508231843043B54
:100A8000E360A3689B0503D5102318430C3BE36088
:100A9000A3681B0701D50823E3600028C9D0F8BD6F
:100AA000006C00407047C0467047C04608B5074B11
:100AB00001214942196100221A61D960DA60996204
:100AC0009A62FFF7F1FF002008BDC0460010024007
:100AD00010B5041C05F07CFCFA21890006F0FAF838
:100AE00000F0B2FF01204042211C002200F054FF20
:100AF000002010BD08B5064A116810230B4313608F
:100B00000020FFF7E5FFFFF737FC002008BDC046D7
:100B100000200240024A1368013313607047C04648
:100B200054040020014B18687047C046540400204C
:100B300010B582B00190FFF7F5FF041CFFF7F2FF3C
:100B4000019B001B9842F9D302B010BD024A136802
:100B500002218B431360704710E000E0024A1168E5
:100B600002230B431360704710E000E00048704719
:100B700000010301014B1868000C70470058014048
:100B8000024B18680005000D7047C0460058014030
:100B9000024A516802230B435360704700580140DA
:100BA000024A536802218B4353607047005801404A
:100BB000024A516804230B435360704700580140B8
:100BC000024A536804218B43536070470058014028
:100BD00070B5036899680022490723D59A685207BF
:100BE00006D59A68920703D4996810220A439A603E
:100BF000041CFFF797FF061C04250EE0FFF792FF89
:100C0000801B022809D9626C102313436364A26C11
:100C100001231343A364012204E023689B681D425F
:100C2000ECD10022101C70BD70B5026893680321DE
:100C30000B400021012B38D11368DB072FD4D36878
:100C40001B042CD431E0041C916802230B439360F5
:100C5000036803221A60FFF765FF061C012518E0F0
:100C6000426C102313434364826C01231343836457
:100C700001211AE0FFF756FF801B022809D9626C98
:100C8000102313436364A26C01231343A364012163
:100C90000BE023689B681D42ECD1002105E09368BE
:100CA00005210B40012BDBD1CDE7081C70BDC046F0
:100CB00070B582B0002301930268936803210B4052
:100CC000012B3FD111680023C90740D4D168090422
:100CD0003DD437E0426C102313434364826C0123FC
:100CE00013438364012332E0041C916801230B4306
:100CF0009360184B1868184905F0ECFF0190019BB0
:100D0000002B05D0019B013B0193019B002BF9D1E6
:100D1000FFF708FF061C01250EE0FFF703FF801B0D
:100D2000022809D9626C102313436364A26C012367
:100D30001343A36401230AE023681B681D42ECD01F
:100D4000002304E09168054B1942CDD0C2E7181C7E
:100D500002B070BD0400002040420F001700008068
:100D60007047C04670B5002800D192E0041C436C67
:100D7000002B04D1836440228354FFF719FB636C7A
:100D8000DB0600D57FE02268936804210B407AD10E
:100D9000606C484901400220014361649168013060
:100DA0000140012977D11168C90702D4D16809042B
:100DB00071D52168C868404A0240CA60A26991039F
:100DC000E269D2031143266A7003626B1D1C012A7B
:100DD00001D080256D01E2680A430243216902299E
:100DE00000D10423216B49000A432A431343626A5A
:100DF000012A0DD1002E03D180225202134307E0B5
:100E0000616C20220A436264A16C01220A43A2643D
:100E1000A26AC221FF318A4202D0E16A0A43134327
:100E20002168CA681A43CA60A26B802149058A42B8
:100E300002D0013A062A0AD8206841690722914364
:100E4000416120684169A56B2A400A4342612268DA
:100E5000D1681A4A0A409A4209D10023A364636CFC
:100E600003229343023A13436364002021E0636C3E
:100E700012229343023A13436364A26C0123134387
:100E8000A364012015E0626C102313436364012006
:100E90000FE001200DE0D16818208143A0680143D4
:100EA000D16021680A6992009208606802430A6171
:100EB0007FE770BDFDFEFFFF1902FEFFE7FF3F83E6
:100EC0007047C04638B5002843D0041C426C02234A
:100ED00013434364FFF77CFE051E08D1201CFFF777
:100EE000A3FE051E012D2FD00123636401E001281C
:100EF0002AD021684B689F2293434B6023681A6075
:100F00002268D168144B0B40D360226813699B00A0
:100F10009B0813612268536907218B435361226840
:100F2000116A0E4B0B4013622268936ADB0CDB04E0
:100F300093620B4A11680B4B0B401360201CFFF7A8
:100F400063FA0023A364636400224023E254281C54
:100F500000E0012038BDC04600023E8300F000F0F2
:100F600008270140FFFF3FFE10B503689A6802237F
:100F7000520723D43E33C25C3E3B012A1ED0041CE0
:100F800001223E33C254C369012B03D0FFF790FE08
:100F9000031E13D1626C0A4B13408022520013438C
:100FA00063640023A364C03AA3542368243A1A60FC
:100FB0002268916804230B4393600023181C10BD22
:100FC000FEF0FFFF10B5031C4022825C0220012AC4
:100FD00016D01C1C01224023E254201CFFF7F8FD10
:100FE00000280AD1201CFFF71FFE002805D1626CE3
:100FF000044B134001221343636400224023E25454
:1010000010BDC046FEFEFFFFF8B54369082B0DD0AA
:101010000368DB680C25DB0709D5426C20231343EA
:10102000436400224023C25401204AE008250C1CDE
:10103000061CFFF777FD071C11E0631C10D0002C85
:1010400004D0FFF76FFDC01B844208D2726C0423EA
:101050001343736400224023F254032031E03268CA
:1010600013682B42E9D0736C802189000B437364B1
:10107000D168C0231B0119421CD1336A002B19D13E
:1010800013681B0716D593685B070BD453680C21B4
:101090008B435360726C0B4B1A400433FF33134382
:1010A000736407E0726C202313437364B26C0123F2
:1010B0001343B3640020B369002B02D133680C22C0
:1010C0001A60F8BDFEFEFFFFF8B5061C0C1C151CCF
:1010D000FFF728FD071C11E06B1C10D0002D04D079
:1010E000FFF720FDC01B854208D2726C0423134316
:1010F000736400224023F25403201EE03268136818
:101100002340A342E8D1802C08D1736C802149028E
:101110000B4373648023136000200EE0736B012B7C
:1011200008D1736C8021C9000B437364B16C022336
:101130000B43B364102313600020F8BD10B503689F
:101140009A680223520736D43E33C25C3E3B012AE2
:1011500031D0041C01223E33C254C369012B03D099
:10116000FFF7A6FD031E26D1626C144B13408022AC
:101170005200134363640023A364C03AA35423685A
:10118000243A1A606369082B0AD122685368042143
:101190008B4353602268516818230B43536004E06B
:1011A000226851681C230B43536022689168042312
:1011B0000B4393600023181C10BDC046FEF0FFFFD8
:1011C00010B5031C4022825C0220012A1BD01C1C8B
:1011D00001224023E254201CFFF7FAFC00280FD123
:1011E000226853681C218B435360201CFFF71CFDB1
:1011F000002805D1626C044B134001221343636441
:1012000000224023E25410BDFEFEFFFF70B50368CC
:101210009C68022364073FD43E33C45C3E3B012CF0
:101220003AD0151C0E1C041C01223E33C254C36963
:10123000012B03D0FFF73CFD031E2DD1626C174B31
:10124000134080225200134363640023A364C03A16
:10125000A354E36B124A9A62E36B124ADA62E36BBD
:10126000114A1A6323681C221A60226851681023ED
:101270000B4353602268D16801230B43D36021687C
:101280004031E06B321C2B1C00F076FD2268916827
:1012900004230B4393600023181C70BDFEF0FFFF76
:1012A00039130008AD130008C113000838B5031C3A
:1012B0004022825C0220012A35D01D1C01224023DD
:1012C000EA54281CFFF784FC041E1CD12A68D3684A
:1012D00001218B43D360E86B00F084FD041E17D01E
:1012E0006A6C402313436B642A68536810218B4354
:1012F0005360281CFFF798FC05E06A6C0A4B13400A
:10130000012213436B6400224023EA54201C0AE0AC
:101310002A68536810218B435360281CFFF784FC14
:10132000041EEAD0EFE738BDFEFEFFFF0368186C2D
:101330007047C0467047C04608B5436A5A6C502192
:1013400011422AD15A6CB131FF310A435A641A68EA
:10135000D068C021090108421BD1196A002918D19F
:101360001168090715D5916849070AD451680C20FE
:1013700081435160596C0B4A0A4001210A435A6467
:1013800007E0596C20220A435A64996C01220A43EF
:101390009A64181CFFF7CEFF02E0DB6B1B6B9847CB
:1013A00008BDC046FEFEFFFF7047C04608B5406A54
:1013B000FFF7FAFF08BDC0467047C0467047C046F9
:1013C00008B5406A426C402313434364826C042393
:1013D00013438364FFF7F2FF08BDC04610B5041C39
:1013E00003681A68520702D55A68520705D41A686A
:1013F000120731D55A6812072ED5626CD20604D472
:10140000626C802189000A436264D968C02212019B
:1014100011421BD1226A002A18D11A68120715D569
:101420009A6852070AD45A680C218A435A60626C3F
:101430001F4B134001221343636407E0626C2023B7
:1014400013436364A26C01231343A364201CFFF7BE
:1014500071FF23680C221A6023681A6812060DD5E2
:101460005B681B060AD5636C8022520213436364D7
:10147000201CFFF7A1FF236880221A6023681A68E6
:10148000D20614D55A68D20611D5626B012A02D051
:10149000DA68D20708D5A16C02220A43A26410229E
:1014A0001A60201CFFF78AFF236810221A6010BD03
:1014B000FEFEFFFF30B583B0002301934033C25CD2
:1014C0003E3B012A7ED0041C01223E33C2540368F5
:1014D0009A6852076CD43D4A486890424CD0986A4A
:1014E00001220D68AA4002439A62A36B8022520532
:1014F000934213D0013B062B10D922685369072071
:1015000003408868984209D0506907239843506186
:10151000206842698D682B40134343610A68101CA0
:101520001038002302284AD8294B1B68102A04D0FF
:10153000112A05D08022520404E08022120401E026
:101540008022D2031343224A13600A680023102A20
:1015500035D1204B1868204905F0BCFB83001818D2
:1015600040000190019B002B28D0019B013B01937F
:10157000019B002BF9D122E09A6A01200D68A84056
:1015800082439A620A68111C10390023022916D876
:101590000F4B1968102A03D0112A03D00F4B02E019
:1015A0000F4B00E00F4B0B40094A1360002306E08D
:1015B000426C202313434364012300E000230021F5
:1015C0004022A154181C03B030BDC04601100000D9
:1015D000082701400400002040420F00FFFFFFFEEB
:1015E000FFFF7FFFFFFFBFFF70B54023C25C3E3BA4
:1015F000012A46D001223E33C25403689A6852073A
:1016000037D4DC68204A2240DA600468E3680A685C
:1016100013434A6892061343E3600468E26818259E
:101620002A409208CB6893401A1CE3682B409B0821
:101630000D699D402B1C266A144D354025620568B6
:101640002C6A2343120413432B62036880221A601E
:101650008B68012B06D1026851687F330B435360BE
:1016600000230BE00268536880218B435360002302
:1016700004E0426C202313434364012300214022F1
:101680008154181C70BDC046FFFF3F8300F000F07E
:10169000406C7047806C7047F0B55F4656464D46CB
:1016A0004446F0B485B00B68002B00D1B0E00025B3
:1016B000012291460F329246594A9346594A904622
:1016C000021C01954846A840034000D19AE04868B2
:1016D0005446A04302280ED1EC08A4001419276A2E
:1016E0000530284080000F268640B7430E698640AB
:1016F000301C3843206210686C00A4460327A740C2
:10170000FF4338404C68032634406646B4402043CB
:10171000106048685446A0430138012813D89068E7
:101720003840CC68B4402043906050684C46019EDD
:10173000B440A0434C68564634402409019EB4404E
:10174000261C06435660D068074088686446A0405F
:101750000743D760486880246405204252D0584629
:1017600080694C4620435C46A061A0694C462040FD
:1017700003900398A80880002B4CA4466044866818
:1017800003242C40A4000F27A740BE439027FF0549
:10179000BA4207D0254FBA4206D0254FBA4205D0EB
:1017A000052704E0002702E04F4600E00227A7409B
:1017B0003C1C3443846040460068DC434E68F603BA
:1017C00001D4204000E018434646306070684E68FF
:1017D000B60301D4204000E0184346467060B0686C
:1017E0004E68F60201D4204000E018434646B0603F
:1017F000F0684E68B60202D4031C234000E00343A5
:101800004046C36001350B68181CE84000D058E71B
:1018100005B03CBC90469946A246AB46F0BDC046DA
:101820000010024000040140000001400004004894
:1018300000080048F0B55F4656464D464446F0B4B1
:1018400083B0002964D000230122944602329346DB
:101850000C329246324A9046019162469A40019972
:101860000A4051D005685C005E46A640F44325401E
:101870000560DD08AD0045192F6A07261E40B60039
:101880005146B1408F432F62856825408560456889
:1018900066469E40B5434560C5682C40C4609C08C0
:1018A000A400204989464C44A6685D461D40AD0011
:1018B0005746AF403E409021C905884208D01A499A
:1018C000884208D01949884207D00521894606E098
:1018D0000021894603E0E14601E0022189464946AC
:1018E000A940B14210D1A568BD43A56041460C682E
:1018F000D24314400C604C6814404C608C68144017
:101900008C60CC682240CA600133019ADA40A4D1CD
:1019100003B03CBC90469946A246AB46F0BDC046DB
:101920000004014000000140000400480008004895
:1019300000690840411E8841C0B27047002A01D0AA
:10194000816100E08162704743695940416170479D
:1019500082B080235B020193019B0B430193019BA7
:10196000C361C161019BC361C3690193C069000C7C
:1019700001235840184002B07047C0467047C04627
:1019800008B5044B5B69034203D0024B5861FFF773
:10199000F5FF08BD0004014070B5002816DAC0B29A
:1019A0000F230340083B9B089B00134A9446634463
:1019B000DA6903242040C000FC34251C8540AA437A
:1019C0008901214081400A43DA6114E083089B00C9
:1019D0000A4A94466344C025AD005A590324204066
:1019E000C000FC34261C8640B2438901214081405E
:1019F000081C1043585170BD00ED00E000E100E00C
:101A00001F2318401E3B8340181C014B1860704771
:101A100000E100E01F2318401E3B8340181C802378
:101A2000014AD0507047C04600E100E0BFF34F8F3D
:101A3000034A044BDA60BFF34F8FC046FDE7C04650
:101A40000400FA0500ED00E0431E0120094A93421C
:101A50000ED8094A536009490B6A1B021B0AC020B1
:101A6000000603430B6200239360073313600020DA
:101A70007047C046FFFFFF0010E000E000ED00E00F
:101A8000002810DAC0B20F230340083B9B089B00DC
:101A90000B4A944663445B6803221040C000C34075
:101AA0001806800F0AE08308C0339B00054A9B5844
:101AB00003221040C000C3401806800F7047C04684
:101AC00018ED00E000E100E01F2318401E3B8340BA
:101AD000181C80235B00014AD050704700E100E0F1
:101AE00080235B00044AD3581F221040C340181CB7
:101AF000012318407047C04600E100E01F23184052
:101B00001E3B8340181CC0235B00014AD050704725
:101B100000E100E0042805D1054A116804230B43C5
:101B2000136004E0024A136804218B43136070477A
:101B300010E000E07047C04608B5FFF7FBFF08BDA6
:101B400038B54023C25C3E3B012A44D0041C01222C
:101B50003E33C2540268936803210B40012B25D108
:101B60001368DB0731D4D3681B042ED41EE0FEF7C4
:101B7000D9FF401B02280AD9636C12229343023A10
:101B80001343636400224023E2543F3B23E0236875
:101B90009B68002BEBDB636C03229343023A1343F5
:101BA0006364002300214022A15414E0616C0B4BBC
:101BB0000B4002210B4363649368802109060B43A9
:101BC0009360FEF7AFFF051CE1E7626C202313432F
:101BD00063640123E6E7181C38BDC046FDFEFFFF25
:101BE00030B5002822D02123C35C002B02D1002273
:101BF0002033C254212102234354046822680C4B31
:101C00001A40836845682B43C5682B4305692B43FD
:101C100045692B4385692B43C5692B4313432360D7
:101C20000023436301334354002000E0012030BD12
:101C30000FC0FFFF00286AD02123C35C022B68D0AD
:101C40000268136801218B4313600268002313604C
:101C500002685360026893600268D36003682E4A8A
:101C600093420BD02D4A93420AD02D4A934209D079
:101C70002C4A934209D08022920208E0022206E018
:101C8000202204E08022920001E080229201264B73
:101C90005A600368204A93420BD0204A93420AD0EC
:101CA0001F4A934209D01F4A934209D0802212034F
:101CB00008E0082206E0802204E08022120101E010
:101CC00080221202184B5A600368134A93420BD0C9
:101CD000124A93420AD0124A934209D0114A9342BF
:101CE00009D08022D20208E0042206E0402204E06B
:101CF0008022D20001E08022D2010B4B5A600023E7
:101D0000436321228354013A8354002002E00120DE
:101D100000E001207047C046080002401C0002405D
:101D200030000240440002400000024070B5202410
:101D3000055D1E3C012D1DD001261E3406550225D1
:101D40000134055505682C68B4432C600468636051
:101D50004368102B04D103689A600368D96003E0DC
:101D6000036899600368DA600268116801230B4315
:101D700013600024201C70BD70B52024055D1E3C3E
:101D8000012D2CD001261E3406550225013405559F
:101D900005682C68B4432C60046863604368102BAA
:101DA00004D103689A600368D96003E0036899600E
:101DB0000368DA600268116802230B43136002684B
:101DC000116804230B4313600268116808230B4356
:101DD00013600268116801230B4313600024201C68
:101DE00070BDC046F8B5041C0268136801218B431E
:101DF0001360FEF797FE071C0125FA26B6000FE0D8
:101E0000FEF790FEC01BB0420AD9636B2022134339
:101E1000636303212123E1540023A35403200AE038
:101E200023681B681D42EBD101222123E2540022CA
:101E3000013BE2540020F8BDF0B557464E464546FA
:101E4000E0B482B0051C8A46171C00290FD1036834
:101E50006E4A93421BD06E4A93421AD06D4A934207
:101E600019D06D4A934219D08026B60222E0036849
:101E7000664A934215D0664A934214D0654A93420B
:101E800013D0654A934213D08026F60212E0022650
:101E900010E020260EE08026B6000BE08026B6017A
:101EA00008E0042606E0402604E08026F60001E073
:101EB0008026F601FEF736FE0190584C534B9846AB
:101EC00052E021682B68434508D0634508D093420F
:101ED00008D04B4509D08020000308E0082006E028
:101EE000802004E08020000101E080200002014207
:101EF00025D0464A93420BD0454A93420AD0454AE0
:101F0000934209D0444A934209D08022120308E048
:101F1000082206E0802204E08022120101E08022F3
:101F200012023E4B5A606A6B012313436B63042217
:101F30002123EA540022013BEA54012060E07B1C8B
:101F400017D0002F05D0FEF7EDFD019BC01A874288
:101F50000AD26B6B202213436B6303212123E954C4
:101F60000023AB5403204BE0294B9C46294A2A4BC3
:101F7000994623683342A4D05346002B1ED12B68C8
:101F8000224A93420BD0224A93420AD0214A9342DA
:101F900009D0214A934209D08022920208E002220D
:101FA00006E0202204E08022920001E080229201DB
:101FB0001A4B5A6001222123EA541DE02B68134A70
:101FC00093420BD0124A93420AD0124A934209D04C
:101FD000114A934209D08022D20208E0042206E08E
:101FE000402204E08022D20001E08022D2010B4B8B
:101FF0005A6011222123EA5400222023EA540020AF
:1020000002B01CBC90469946A246F0BD08000240B2
:102010001C00024030000240440002400000024028
:1020200038B5041CB74B1A680368B74883420CD014
:10203000B648834200D1D3E0B548834200D1D7E00F
:10204000B448834200D0DBE0E2E0120700D515E19E
:1020500034E11A6808218A431A602368AA4A934225
:102060000BD0AA4A93420AD0A94A934209D0A94A5E
:10207000934209D08022120308E0082206E0802261
:1020800004E08022120101E0802212029D4B5A607E
:10209000626B01231343636304222123E254002271
:1020A000013BE254236B002B01D0201C9847954B39
:1020B000196823689448834200D1CFE09348834253
:1020C00000D1BCE09248834200D1B1E09148834204
:1020D00000D0BCE0A4E00A4200D022E13BE11A6853
:1020E000920603D41A6804218A431A602368864A38
:1020F00093420BD0854A93420AD0854A934209D035
:10210000844A934209D08022D20208E0042206E0E9
:10211000402204E08022D20001E08022D201794BEB
:102120005A6011222123E254E36A002B01D0201CC3
:102130009847744B186823681A1C0221724DAB42F1
:1021400012D072498A4208D071498A4207D0714937
:102150008A4207D08021890206E0202104E0802104
:10216000890001E080218901014200D1F8E01A686C
:10217000920700D4F4E01A68920603D41A68022188
:102180008A431A602368604A93420BD05F4A9342A5
:102190000AD05F4A934209D05E4A934209D0802216
:1021A000920208E0022206E0202204E0802292004F
:1021B00001E080229201534B5A60636B63630122FA
:1021C0002123E2540022013BE254A36A002B00D1F8
:1021D000C6E0201C9847C3E04A4A116840227AE7CB
:1021E00012065DD4F8E7474A11688022D20072E7F0
:1021F00012054CD4F7E7434A11688022D2026AE7FD
:10220000120356D4F7E73F4A11688022D20162E7F1
:1022100012042AD4F7E73B4A106880218901A3E71A
:102220004A0455D4F7E7374A1068802189009BE7B4
:102230004A0558D4F7E7334A1068202194E74A0644
:102240005BD4F8E72F4A1068802189028CE74A03A3
:1022500072D4F7E72B4A1068022185E74A0775D444
:10226000F8E7284B19682368DAE71A68120700D5DF
:10227000EFE6F6E7234B19682368EFE71A681207C1
:1022800000D5E6E6F6E71F4B19682368D0E71A6821
:10229000120700D5DDE6F6E71A4B19682368CEE78A
:1022A0001A68120700D5D4E6F6E7164B19682368BA
:1022B000CDE71A68120700D5CBE6F6E7114B19688F
:1022C0002368CBE70F4B18682368802189014BE70F
:1022D0001A68520700D502E7F4E70A4B186823682A
:1022E0008021890040E71A68520700D5F7E6F4E735
:1022F000044B18682368202136E71A68520700D576
:10230000EDE6F5E700000240080002401C00024034
:102310003000024044000240124B186823681A1C27
:102320000FE71A68520700D5D9E6F5E70D4B186894
:1023300023688021890217E71A68520700D5CEE684
:10234000F4E7084B1868236802210DE71A68520762
:1023500000D5C4E6F5E7034B186823681A1CF0E6BD
:1023600038BDC046000002402123C05CC0B27047A7
:10237000406B704770B50124221C4B699A40056878
:1023800080239B00EE583443EC500568EE583E4CD9
:102390003440EC500668F4584D6A2D022C43F4503A
:1023A00006688725AD007459D3431C407451CC692D
:1023B000002C18D10668103D74591C4074518D884A
:1023C000CC68240425434C694834E4000668A551D0
:1023D0000D888C68240425434C694834E400066861
:1023E000B44664446560CC69012C19D10668832524
:1023F000AD007459144374518D880C68240425432E
:102400004C694834E4000668A5518D898C68240421
:1024100025434C694834E4000668B446644465606A
:102420008C69002C06D106688125AD0074591C40CA
:10243000745105E006688125AD0074591443745148
:102440000C69002C05D105688524A4002E59334061
:102450002B510B69012B05D105688524A4002B594C
:1024600013432B510B6A012B05D104688721890086
:1024700063581A4362500168802292008B580120F1
:1024800083438B50002070BDFFC0FFFF7047C046E4
:1024900070B5002800D1B7E0041C3923C35C002BC1
:1024A00004D100223833C254FDF7CAFF0221392378
:1024B000E154226813688B4313602268116801237A
:1024C0000B431360FEF72EFB061C01250CE0FEF704
:1024D00029FB801B0A2807D903223923E254002252
:1024E000013BE254032090E023685A681542EED085
:1024F0005A68D20700D482E0A269012A04D119687F
:102500007F320A431A6003E01A6880218A431A6006
:10251000E369012B05D1226811683F330B43136037
:1025200004E02268136840218B431360236A012B67
:1025300005D1226811681F330B43136004E0226841
:10254000136820218B431360636A012B05D1226835
:1025500011680F330B43136004E0226813681021E5
:102560008B431360A36A012B05D1226811680733DE
:102570000B43136004E02268136808218B43136047
:10258000E36A012B05D12268116803330B43136002
:1025900004E02268136804218B4313602168E36818
:1025A000A268134322691343626913436268013AC4
:1025B0001343CB612268136801218B431360FEF73C
:1025C000B1FA061C01250CE0FEF7ACFA801B0A28C4
:1025D00007D903223923E2540022013BE2540320AD
:1025E00013E023685A681542EED15B68DB0706D416
:1025F0000023E36301223933E254002005E0042282
:102600003923E254012000E0012070BD7047C0462C
:1026100038B500280BD0041C392502234355FDF79B
:1026200035FF002363553822A354002000E0012029
:1026300038BDC046F0B557464E464546E0B482B078
:10264000019103689A68520106D49A68120103D472
:102650009A68D20000D4CEE03822845C363A012C4D
:1026600000D1CCE00124363284540132825C222A2B
:1026700003D131341732845402E0122439228454B5
:102680009A680025520104D49D682D01ED0F0222A5
:10269000551B2A019B18C02676009C5901273C40F7
:1026A0009C51036B9C68002C0AD10468A418371C49
:1026B000A659D9680E431B685B053343E3510BE011
:1026C00001688E18C0277F00F1590C43D9680C436C
:1026D0005B68DB001C43F451019E041C016B0F2757
:1026E0000B693B400B6103689918C2235B00C85813
:1026F000B843C85021688918CF58206B0069384307
:10270000C850216BC87D00068B7D1B0418430B7DD0
:1027100018434B7D1B0218432B012168C9188931CE
:10272000FF310860206BC17E0F06817E09043943AA
:10273000077E3943407E000201432068844663449B
:102740008933FF33596023689C466244C0214900A5
:102750005058012303435350FEF7E4F982462B4BB4
:1027600098462B4B99462B4F11E0731C0FD0002E2F
:1027700005D0FEF7D7F95346C01A864207D2032286
:102780003923E2540022013BE254033237E0002DAA
:1027900009D123689B683B401F4A944663445A1EF4
:1027A0009341DBB216E0012D0AD123689B684A46AB
:1027B00013401A4A944663445A1E9341DBB209E01F
:1027C00023689B6842461340154A944663445A1E48
:1027D0009341DBB2002BC8D13933E35C322B03D1F8
:1027E00022220733E25402E001223923E25400227C
:1027F0003823E25403E004223923C254033A101C64
:1028000002B01CBC90469946A246F0BD00000310E1
:102810000003000803000004FDFFFFFB00FDFFF7BD
:102820000000FDEFF0B5026893685B0106D4936881
:102830001B0103D49368DB0000D4A4E03823C15CFF
:10284000363B012900D1A2E001213633C154916801
:102850000023490104D493681B01DB0F0221CB1A2A
:1028600019015218C0256D005459012634405451A5
:10287000026B9468002C0AD1046864182E1C6559F8
:10288000D7683D43126852052A43A2510BE0056800
:102890006D18C0267600AF593C43D7683C43526858
:1028A000D2001443AC51046B0F26226932402261DE
:1028B00002685418C2225200A558B543A5500468B6
:1028C0006418A658056B2D693543A550056BEC7D42
:1028D0002406AA7D120414432A7D14436A7D120241
:1028E00014431B010268D2188932FF321460056B51
:1028F000EC7E2406AA7E120414432A7E14436A7EC8
:10290000120214430268944663448933FF335C60C7
:102910003923C35C222B03D132221733C25402E085
:1029200012223923C2540023C3633822835402681D
:10293000536980246400234353610268536901345E
:10294000FF3423435361026853698024E400234326
:102950005361026853698024240123435361026850
:10296000536980242402234353610468636901226C
:102970001343636103685B18C02149005858024340
:102980005A50002303E004223923C254383B181C58
:10299000F0BDC046F0B5474680B43823C45C363B32
:1029A000012C00D1CAE001243633C4540133C35C86
:1029B000122B03D131342733C45402E022243923AB
:1029C000C454161C0D1C041CFEF7ACF880460327EB
:1029D00011E0731C0FD0002E05D0FEF7A3F843467C
:1029E000C01A864207D203223923E2540022013B57
:1029F000E254353BA2E0002D07D12368DB683B4061
:102A00001A1C53425341DBB206E023681B693B406A
:102A10001A1C53425341DBB2002BDAD1626B2B1CE0
:102A20001B331B0121685B5804210B409360636BCF
:102A30009A68002A07D12A1C1B32120121685258B9
:102A4000520D1A6006E02A1C1B32120121685258EE
:102A5000D2085A60616B2B1C1B331B0122689A58E9
:102A600002200240CA60616B2268D21852680D30A1
:102A700002400A61626B21688C4663445B681B04F8
:102A80001B0ED3612B012268D218B932FF321268B3
:102A9000616B0A752268D218B932FF321268120AC5
:102AA000616B4A752268D218B932FF321268120C73
:102AB000616B8A752268D218B932FF321268120E21
:102AC000616BCA752268D218B932FF325268616BE5
:102AD0000A762268D218B932FF325268120A616B44
:102AE0004A762268D218B932FF325268120C616BF2
:102AF0008A76226894466344B933FF335B681B0EC1
:102B0000626BD376002D05D12268D16820230B4358
:102B1000D36004E02268116920230B431361392339
:102B2000E35C322B03D112220733E25402E001228C
:102B30003923E25400223823E2540023181C04BC39
:102B40009046F0BD30B53923C35C012B04D0392346
:102B5000C25C373B122A43D13823C25C363B012A80
:102B60003ED001223633C2540133C35C122B03D151
:102B700031322733C25402E022223923C2540022C8
:102B8000C2630468636980256D002B436361046838
:102B900063690135FF352B436361046863698025F0
:102BA000ED002B4363610468636980252D012B438D
:102BB00063610468636980252D022B4363613823B8
:102BC000C254002906D102685169363B0B43536158
:102BD000002305E00268516910230B435361002371
:102BE000181C30BD70B53823C25C363B012A34D086
:102BF00001223633C254363B38328354046822688B
:102C000003218A431343236003685B680B40022B54
:102C100004D000223823C254373B1EE0041CFDF7C9
:102C200081FF061C03250CE0FDF77CFF801B0A28B2
:102C300007D903223923E2540022013BE254353BF9
:102C40000BE023685B682B40022BEDD10122373368
:102C5000E2540022013BE2540023181C70BDC04620
:102C600070B5041C3823C35C0220012B2ED0012236
:102C70003823E25402210133E154226813688B4364
:102C80001360FDF74FFF061C02250CE0FDF74AFF1D
:102C9000801B0A2807D903223923E2540022013B72
:102CA000E254032012E023685A681542EED15B68B3
:102CB0009B0704D500223823E254012006E00122BC
:102CC0003923E2540022013BE254002070BDC0468B
:102CD0007047C0467047C04638B5426B0B1C1B336B
:102CE0001B0104681B59042423409360436B9A68BA
:102CF000002A07D10A1C1B32120104681259520D16
:102D00001A6006E00A1C1B32120104681259D2082C
:102D10005A60446B0B1C1B331B0102689A58022536
:102D20002A40E260446B0268D21852680D352A408E
:102D30002261426B0468A44663445B681B041B0E5B
:102D4000D3610B010268D218B932FF321268446BAA
:102D500022750268D218B932FF321268120A446B27
:102D600062750268D218B932FF321268120C446BD5
:102D7000A2750268D218B932FF321268120E446B83
:102D8000E2750268D218B932FF325268446B22767B
:102D90000268D218B932FF325268120A446B627666
:102DA0000268D218B932FF325268120C446BA27614
:102DB000026894466344B933FF335B681B0E426B71
:102DC000D37600290AD10268D16820230B43D3604F
:102DD0000268536902218B43536109E0026811695B
:102DE00020230B4313610268536910218B43536105
:102DF0003923C35C222B18D102685169124B0B4056
:102E0000536102685169114B0B405361026851696B
:102E10000F4B0B405361026851690E4B0B405361DD
:102E2000026851690C4B0B4053613923C35C322B50
:102E300003D112220733C25402E001223923C254C3
:102E4000FFF748FF002038BDFFFEFFFFFFFDFFFF3B
:102E5000FFFBFFFFFFF7FFFFFF7FFFFF7047C0464D
:102E600010B5041C03685A69D2073DD59A686349B6
:102E70000A408A4209D09A6861490A408A4204D0CD
:102E80009A6860490A408A422ED15A6901218A43D0
:102E90005A613923E35C122B18D1226851695A4BCD
:102EA0000B40536122685169584B0B4053612268B3
:102EB0005169574B0B40536122685169554B0B4088
:102EC000536122685169544B0B4053613923E35CD1
:102ED000322B03D122220733E25402E001223923AC
:102EE000E254201CFFF7F4FE23685A69920706D5C6
:102EF000DB689B0703D0201C0021FFF7EDFE236851
:102F00005A69D20606D51B699B0703D0201C0121F4
:102F1000FFF7E2FE23689A69D20709D55A69D205FC
:102F200006D55A69120403D5E16B01220A43E26314
:102F30009A69920709D55A69920506D55A69120409
:102F400003D5E16B02220A43E2639A69520709D56D
:102F50005A69520506D55A69120403D5E16B042259
:102F60000A43E2639A697021114238D05A69120506
:102F700035D55A69120432D59A690A40302A16D0DA
:102F800004D8102A09D0202A0CD024E0502A18D0C6
:102F9000602A1BD0402A1ED10EE0E16B08220A43B2
:102FA000E26318E0E16B10220A43E26313E0E16B95
:102FB00020220A43E2630EE0E16B40220A43E2630F
:102FC00009E0E16B80220A43E26304E0E26B8021C6
:102FD00049000A43E2639A6970218A439A61E36B6C
:102FE000002B0AD02268516804230B43536001224E
:102FF0003923E254201CFFF731FF10BD0300000409
:103000000003000800000310FFFEFFFFFFFDFFFFAD
:10301000FFFBFFFFFFF7FFFFFF7FFFFF3923C05CD0
:10302000C0B27047C06B70470022064BDA61064B96
:10303000196904320A431A61196940220A431A6164
:103040007047C046C80400200020024070B5051C2F
:10305000134803F0B7FB002820D10022114BDA619E
:10306000114C2369202633432361226940231343F3
:1030700023610B4803F0A6FB2369B34323610028B7
:103080000CD12369103E33432361ADB2074B1D8041
:10309000034803F097FB2369B343236170BDC04627
:1030A00050C30000C80400200020024000F8FF1FA9
:1030B00070B5154BDB6906221340022B03D0042B9D
:1030C00003D0AA2502E0BB2500E0CC250F4803F081
:1030D00079FB002816D100220D4BDA610A4C2369D6
:1030E0002026334323612269402313432361074889
:1030F00003F068FB2369B3432361002802D1E8B2DF
:10310000FFF7A4FF70BDC0460020024050C300007E
:10311000C8040020F8B5041C584B1B7E0220012B6C
:1031200000D1A9E00123554A137622681A4253D0F0
:103130006368012B25D1A668514B1D6A514803F0E5
:1031400041FB002844D100224C4BDA61FFF7B0FF6D
:1031500000283DD1B543FF231D40494A1169EF3B8B
:103160000B431361FF2D06D0474B1A8915401D8173
:10317000444803F027FB424A136910218B43136133
:1031800024E0A5683E4B1E6A3E4803F01BFB002866
:103190001ED10022394BDA61FFF78AFF002817D1D0
:1031A0003543FF231D40364A1169EF3B0B43136142
:1031B000FF2D06D0344B1A8915431D81314803F089
:1031C00001FB2F4A136910218B431361002804D09F
:1031D00000222A4B1A764FE0012023689B0708D56E
:1031E000207BFFF733FF002803D00021234A11760C
:1031F00042E023685B071CD5657B224803F0E2FAB6
:10320000002812D100221D4BDA611D4E33691027B0
:103210003B433361ADB21C4B5D801A4803F0D2FAD8
:103220003369BB433361002803D00022134B1A7665
:1032300022E023681B071CD52669247D114803F072
:10324000C1FA002811D100220C4BDA610C4D2B6918
:1032500010273B432B61A4B234800A4803F0B2FA32
:103260002B69BB432B61002803D00022034B1A7645
:1032700002E00022014B1A76F8BDC046C8040020C7
:103280000020024050C3000000F8FF1F0723036026
:103290000A4B1A6A8260DB6906221340022B03D0B4
:1032A000042B03D0AA2302E0BB2300E0CC2303734A
:1032B000024BDB691B0A43737047C0460020024083
:1032C000054B984204D1054BD8690002000E02E07C
:1032D000024BD869000E704704F8FF1F002002401F
:1032E0000022064BDA61064B196902320A431A6161
:1032F0005861196940220A431A617047C8040020C6
:1033000000200240F0B5474680B4294B1A7E0223C4
:10331000012A49D08846061C0122254B1A760368EB
:10332000012B11D1234803F04DFA0123002838D195
:10333000FFF77AFE1F4803F045FA031C1E490A698D
:10334000042082430A612CE01A4803F03BFA01236F
:10335000002826D1023B424613607468B3689B0282
:103360001B199C421CD2144F0225201CFFF7B8FFEA
:10337000104803F027FA031C3A69AA433A6100286F
:1033800002D0424614600CE08022D200944664448D
:10339000B268920271688C466244A242E5D800E0AD
:1033A00001230021024A1176181C04BC9046F0BD8E
:1033B000C804002050C300000020024008B5144B90
:1033C0001A7E0223012A21D0114B01221A761A7883
:1033D0000123002A1AD10F4A1369A02149010B4386
:1033E00013610368012B06D10222094B1A70FFF703
:1033F0001BFE00230AE0064B01221A7082685A6005
:1034000042689A604068FFF76BFF0023181C08BDF4
:10341000C804002000200240054B1A69802149059C
:103420000A431A611969034A0A401A617047C04683
:1034300000100240FFFFFFEF034A1368802149009C
:103440000B4313607047C04600700040024A116889
:10345000024B0B401360704700700040FFFEFFFFFF
:1034600004494B68FF22104001328240101C18436F
:10347000486070470070004004494B68FF221040CC
:103480000132824093434B607047C0460070004059
:10349000064A1369042083431361012901D130BF17
:1034A00002E040BF20BF20BF7047C04600ED00E0F3
:1034B00010B50C4A13680324A343184310600A4A4A
:1034C0001069042303431361012901D130BF02E0D5
:1034D00040BF20BF20BF044A136904218B431361FE
:1034E00010BDC0460070004000ED00E0054A1168C4
:1034F00002230B431360044A116904230B43136135
:1035000030BF70470070004000ED00E0024A1169D2
:1035100002230B431361704700ED00E0024A136978
:1035200002218B431361704700ED00E0024A1169EC
:1035300010230B431361704700ED00E0024A13694A
:1035400010218B431361704700ED00E030B5056832
:103550006868064C2040039C204303438905890D7D
:103560000B43120413436B6030BDC046009800FC4F
:10357000F8B5071C0C1CFDF7D5FA051C3B689B69C8
:1035800020260020DB0634D512E0631C11D0002C6D
:1035900004D0FDF7C7FA401B844209D2202235230C
:1035A000FA5400231632BB54023ABB54032020E0E5
:1035B0003A6893691E42E8D01023D3613B68202209
:1035C000DA613B689A69D20703D4996901220A43F8
:1035D0009A613A685168074B0B4053600423BB6300
:1035E00020223133FA5400231632BB54023ABB5422
:1035F0000120F8BD00E800FEF8B5041C0D1CFDF725
:1036000091FA061C02271BE0201C291CFFF7B0FFC3
:1036100000281BD16B1C13D0002D04D0FDF782FABB
:10362000801B85420CD2A36B20221343A363352356
:10363000E25400231632A354023AA354032006E0B6
:1036400023689B691F42DFD0002000E00120F8BD05
:10365000F0B5474680B4061C0C1C171C1D1CFDF75A
:1036600061FA8046002F14D02EE06B1C12D0002D82
:1036700005D0FDF757FA4346C01A854209D22022E9
:103680003523F25400231632B354023AB3540320C4
:1036900020E0326893692340A342E6D1002019E07C
:1036A0006B1C12D0002D05D0FDF73CFA4346C01A22
:1036B000854209D220223523F25400231632B35416
:1036C000023AB354032005E0326893692340A342D1
:1036D000E6D0002004BC9046F0BDC04670B582B074
:1036E000041C161C1D1CDAB280239B01009380234E
:1036F0005B04FFF72BFF201C0699FFF77DFF0028D6
:1037000004D0A36B042B21D0032024E0012D03D18E
:103710002368F6B29E6210E02368320A9A62201C87
:103720000699FFF769FF002804D0A36B042B0FD084
:10373000032010E02368F6B29E62201C8021002244
:10374000069BFFF785FF002804D104E0012002E07A
:10375000012000E0032002B070BDC04670B582B009
:10376000041C161C1D1CDAB280239B01009300234D
:10377000FFF7ECFE201C0699FFF73EFF002804D05F
:10378000A36B042B21D0032024E0012D03D1236857
:10379000F6B29E6210E02368320A9A62201C0699F3
:1037A000FFF72AFF002804D0A36B042B0FD00320BF
:1037B00010E02368F6B29E62201C40210022069B86
:1037C000FFF746FF002804D104E0012002E00120B9
:1037D00000E0032002B070BDF8B5051C0C1CFDF71D
:1037E000A1F9071C202619E0281C211CFFF7C0FEA8
:1037F000002819D1002C04D0FDF794F9C01B844295
:103800000CD2AB6B20221343AB633523EA54002365
:103810001632AB54023AAB54032006E02B689B6986
:103820001E42E1D0002000E00120F8BDF0B547467F
:1038300080B4041C0D1CFDF775F980460426202772
:103840002DE0201C291CFFF793FE00282DD12368B2
:103850009A69174210D02022DA6121684868154B16
:1038600003404B600023A363352162541632A354F6
:10387000023AA354012019E0002D05D0FDF752F9BA
:103880004346C01A85420AD2A36B20221343A36386
:103890003523E2540022013BE254032006E0236872
:1038A0009B691E42CDD0002000E0012004BC904660
:1038B000F0BDC04600E800FE7047C04610B50028C5
:1038C00053D0041C3523C35C002B04D100223433B5
:1038D000C254FFF7F1FF24223523E2542268136813
:1038E00001218B4313602268214B61680B401361F7
:1038F000226891681F4B0B409360A368002B0DD08A
:10390000E268012A05D12268802109020B439360F5
:1039100004E02268842109020B439360E368022BD0
:1039200003D12368802212015A6022685368124929
:103930000B4353602168626923691A43A3691B0220
:103940001343CB602268236AE1690B43136022684A
:10395000116801230B4313600023A3632021352248
:10396000A1540132A354002000E0012010BDC04644
:10397000FFFFFFF0FF7FFFFF008000027047C0469F
:1039800038B5002813D0041C35252423435502687C
:10399000136801218B431360FFF7F0FF0023A3633B
:1039A00063553622A354023AA354002000E00120BC
:1039B00038BDC046F0B585B0071C0391161C1C1C11
:1039C0003523C35C0220202B00D086E03B689B6936
:1039D0001B0400D581E03423FB5C012B7DD0012248
:1039E0003423FA5420320133FA54113A0133FA5491
:1039F0000023BB63FF2C0CD980239B010093381C50
:103A0000EF3280235B04FFF7A1FDFF25002C0DD1D1
:103A100043E0E2B280239B010093381C039980238A
:103A20009B04FFF793FD251CF0E70136381C0A992B
:103A3000FFF7E2FD002804D0BB6B042B48D0032025
:103A40004BE03B6832789A62013D013CA4B2002D04
:103A500021D1002C21D0381C802100220A9BFFF7A5
:103A6000F7FD002836D1FF2C0AD900230093381C1B
:103A70000399FF2280235B04FFF768FDFF35D4E73D
:103A8000E2B200230093381C039980239B04FFF7C4
:103A90005DFD251CC9E7002CC7D1381C0A99FFF72A
:103AA0009BFE002804D0BB6B042B15D0032014E030
:103AB0003B682022DA6139684C68094B23404B602F
:103AC0003523FA5400231632BB54023ABB5404E0A7
:103AD000012002E0032000E0012005B0F0BDC04657
:103AE00000E800FEF0B585B0041C0391161C1D1CF7
:103AF0003523C35C0220202B00D0A3E023689B6900
:103B00001B0400D59EE03423E35C012B00D199E037
:103B100001223423E25421320133E254123A0133B8
:103B2000E2540023A363FF2D0CD990239B01009343
:103B3000201CEF3280235B04FFF708FDFF27002DD8
:103B400029D15FE0002D0BD0EAB290239B010093B6
:103B5000201C039980239B04FFF7F8FC2F1C1AE01C
:103B600090239B010093201C039900220023FFF760
:103B7000EDFC201C402100220A9BFFF769FD031C7D
:103B80000320002B5ED1226853688021C9010B43BA
:103B9000536037E00136201C0421FFF747FE002860
:103BA00004D0A36B042B48D003204BE023685B6A4E
:103BB0003370013F6B1E9DB2002F21D1002D21D00B
:103BC000201C802100220A9BFFF742FD002836D1ED
:103BD000FF2D0AD900230093201C0399FF22802384
:103BE0005B04FFF7B3FCFF37D4E7EAB2002300938E
:103BF000201C039980239B04FFF7A8FC2F1CC9E716
:103C0000002DC7D1201C1921FFF7E6FD002804D0A4
:103C1000A36B042B15D0032014E023682022DA6163
:103C200021684D68084B2B404B603523E25400233C
:103C30001632A354023AA35404E0012002E0032008
:103C400000E0012005B0F0BD00E800FEF0B583B053
:103C50003524055D333C202D00D0B1E0002900D192
:103C60009AE0013C002A00D1AAE03334055D323CE1
:103C7000012D00D1A4E01D1C01920E1C071C012285
:103C80003423C25420320133C254013A0133C254A6
:103C900000238363026851684B4B0B40536008213B
:103CA00000222B1CFFF7D4FC002807D03A68536889
:103CB000802109020B435360013481E03B680822F4
:103CC000DA61FB68022B6BD1381C082100222B1C07
:103CD000FFF7BEFC002807D03A685368802109022C
:103CE0000B43536003246BE03B680822DA6157E022
:103CF0003A685368802109020B43536003245FE054
:103D0000381C291CFFF778FC00280AD03A68536851
:103D1000802109020B435360BB6B042B3ED003246C
:103D20004EE03B6822789A620134B442E8D1381CF4
:103D30001921FFF751FD00280BD03A685368802104
:103D400009020B435360BB6B0324042B38D10023BF
:103D5000BB633B682022DA61381C802109021F3ACC
:103D60002B1CFFF775FC041E07D03A6853688021AE
:103D700009020B435360032422E03A685368802110
:103D800009020B43536020223523FA5400231632D4
:103D9000BB54023ABB5413E0012411E001240FE0AC
:103DA000381C8021490200222B1CFFF751FC0028FF
:103DB0009ED1341C0199013989B2013176189FE7EF
:103DC000201C03B0F0BDC046FF7FFFFFF0B583B0FD
:103DD0003524055D333C202D00D0A0E0002900D122
:103DE0009AE0013C002A00D199E03334055D323C71
:103DF000012D00D193E01C1C01920E1C071C012216
:103E00003423C25421320133C254023A0133C25422
:103E10000023836302685168424B0B4053600821C2
:103E20000022231CFFF714FC002807D03A685368CF
:103E3000802109020B435360032470E03B68082291
:103E4000DA61381C80214902073A231CFFF700FC85
:103E5000002807D03A685368802109020B43536059
:103E600003245CE0351C0199013989B201317618CF
:103E70000195381C211CFFF7D9FC002812D03A68A4
:103E80005368802109020B4353603B689A695207CB
:103E900002D55B6A019A1370BB6B0324202B3ED0C2
:103EA000023C3CE03B685B6A2B700135B542DFD1D8
:103EB000381C1921FFF790FC00280AD03A68536893
:103EC000802109020B435360BB6B042B26D00324D3
:103ED00025E03B682022DA61381C802109021F3A64
:103EE000231CFFF7B5FB041E07D03A6853688021F6
:103EF00009020B435360032411E03A6853688021A0
:103F000009020B43536020223523FA540023163252
:103F1000BB54023ABB5402E0012400E00124201CFF
:103F200003B0F0BDFF7FFFFF30B583B0041C352028
:103F3000255C3338202D40D12068856902202D046E
:103F40003BD43230255C3238012D36D00125323059
:103F50002554203501302554113D013025540020D1
:103F6000A06362626385FF2B03D9FF232385FF22B1
:103F700003E023851A1EFF2A0DD1638D9BB2FF2B10
:103F800009D980239B010093201CFF2280235B041E
:103F9000FFF7DCFA08E0D2B280239B010093201CDB
:103FA00080239B04FFF7D2FA00223423E2542268D4
:103FB0001168BE330B431360002003B030BDC04610
:103FC00030B583B0041C3520255C3338202D40D11A
:103FD0002068856902202D043BD43230255C3238BC
:103FE000012D36D00125323025542135013025549C
:103FF000123D013025540020A06362626385FF2BCF
:1040000003D9FF232385FF2203E023851A1EFF2AFD
:104010000DD1638D9BB2FF2B09D990239B01009397
:10402000201CFF2280235B04FFF790FA08E0D2B245
:1040300090239B010093201C80239B04FFF786FAAA
:1040400000223423E25422681168C0330B4313600A
:10405000002003B030BDC046F0B53523C45C333B0F
:10406000202C25D1002922D0013B002A20D0333337
:10407000C45C323B012C1BD03424013B0355212569
:104080003433C554013D0133C554002585630668AA
:104090007768084B3B407360416202854285055555
:1040A00002681168FA230B431360002300E0012328
:1040B000181CF0BDFF7FFFFFF0B53523C45C333B18
:1040C000202C25D1002922D0013B002A20D03333D7
:1040D000C45C323B012C1BD03424013B0355222508
:1040E0003433C554023D0133C55400258563066849
:1040F0007768084B3B4073604162028542850555F5
:1041000002681168FC230B431360002300E00123C5
:10411000181CF0BDFF7FFFFF70B582B0041C0E1CA1
:104120003520255C3338202D00D08CE0216889694A
:10413000090400D587E03421615C012900D182E0C7
:10414000013834216054203001316054113801317C
:1041500060540021A16362626385FF2B02D9FF23B3
:10416000238502E02385002B43D0E36A3749996217
:10417000E36A3749196325682835238DE06A111CE5
:104180002A1CFDF7F9FD228DFF2A0DD1638D9BB20C
:10419000FF2B09D980239B010093201C311C802315
:1041A0005B04FFF7D3F909E0D2B280239B010093AF
:1041B000201C311C80239B04FFF7C8F9201C192107
:1041C000FFF71AFA00280DD02268536880210902EF
:1041D0000B435360E06AFDF705FEA36B042B2FD061
:1041E000032030E0226813688021C9010B4313606B
:1041F00021E080239B010093201C311C002280239E
:104200009B04FFF7A3F9201C1921FFF7E5FA00280A
:1042100004D0A36B042B15D0032014E023682022C4
:10422000DA61216848680B4B03404B603523E25448
:1042300000220133E25400223423E254002002E041
:10424000012000E0012002B070BDC046854D00088D
:10425000554D000800E800FE30B583B0041C0D1C6D
:104260003521415C0220202900D07DE02168896948
:10427000090479D43421615C012975D001383421D5
:1042800060542130013160541238013160540021F2
:10429000A16362626385FF2B02D9FF23238502E0BD
:1042A0002385002B3BD0236B30499962236B304927
:1042B000196321682431238D206BFDF75DFD228D6C
:1042C000FF2A0DD1638D9BB2FF2B09D990239B014F
:1042D0000093201C291C80235B04FFF737F909E0B9
:1042E000D2B290239B010093201C291C80239B04A5
:1042F000FFF72CF9201C0421FFF798FA002807D0BB
:10430000206BFDF76FFDA36B042B2CD003202BE05B
:1043100022681368802109020B4313601EE090237A
:104320009B010093201C291C00220023FFF70EF99B
:10433000201C402100221923FFF78AF9031C0320C7
:10434000002B11D1226853688021C9010B435360AF
:1043500020223523E25400220133E2540022342388
:10436000E254002000E0012003B030BD414F0008BE
:10437000554D000810B5041C3523C35C0220202BCA
:104380006DD100296AD00138002A68D01433E35C6B
:104390000130012B63D001383423E0542030013345
:1043A000E05401380133E0540023A3636162628565
:1043B0002285E36A2A4A9A62E36A2A4A1A632268D1
:1043C0002832238DE06AFDF7D7FC22685168264B1E
:1043D0000B405360201C08210022244BFFF738F9C2
:1043E000002807D022685368802109020B435360DC
:1043F000032034E023680822DA61E368022B12D13B
:10440000201C08210022194BFFF722F9002807D0B1
:1044100022685368802109020B43536003201EE089
:1044200023680822DA61201C802149020022192316
:10443000FFF70EF9002807D022685368802109028F
:104440000B43536003200AE0226813688021C901EE
:104450000B43136000223423E25400E0012010BD1E
:104460000D510008554D0008FF7FFFFF1027000089
:1044700038B5041C0D1C131C3522825C0220202A36
:1044800057D1002954D00138002B52D01432A25CED
:104490000130012A4DD001213422A15421310132B1
:1044A000A15402390132A1540022A263656223851E
:1044B0006385226B1F499162226B1F49116321683A
:1044C0002431206B2A1CFDF757FC226851681B4BD6
:1044D0000B405360201C08210022194BFFF7B8F84D
:1044E000002807D022685368802109020B435360DB
:1044F00003201EE023680822DA61201C8021490283
:10450000073A1923FFF7A4F8002807D02268536858
:10451000802109020B43536003200AE022681368DC
:10452000802109020B43136000223423E25400E08F
:10453000012038BD85510008554D0008FF7FFFFF61
:1045400010270000F0B585B0041C03910AA940C9EA
:104550000D883521415C0220202900D0A3E0002EE7
:1045600000D199E00138002D00D19CE021688969D3
:104570000130090400D596E03421615C012900D1A5
:1045800091E00138342160542030013160541F30F3
:10459000013160540021A1630C990091201C039902
:1045A000FFF79CF800280CD0A36B042B04D1002249
:1045B0003033E254012076E000223423E254032019
:1045C00071E0FF2D0AD900230093201C0399FF22DC
:1045D00080235B04FEF7BAFFFF270BE0EAB200235B
:1045E0000093201C039980239B04FEF7AFFF2F1C30
:1045F00000E00136201C0C99FEF7FEFF002804D0D5
:10460000A36B042B4AD003204DE0236832789A62D2
:10461000013F6B1E9DB2002F21D1002D21D0201C07
:10462000802100220C9BFFF713F8002838D1FF2DC2
:104630000AD900230093201C0399FF2280235B04E6
:10464000FEF784FFFF37D4E7EAB200230093201C73
:10465000039980239B04FEF779FF2F1CC9E7002DE7
:10466000C7D1201C1921FFF7B7F8002804D0A36B8D
:10467000042B17D0032016E023682022DA6121687A
:104680004D680A4B2B404B603523E2540023163211
:10469000A354023AA35406E0012004E0012002E002
:1046A000032000E0012005B0F0BDC04600E800FE98
:1046B000F0B585B0041C03910AA940C90D883521C5
:1046C000415C0220202900D0A2E0002E00D198E019
:1046D0000138002D00D19BE021688969013009046F
:1046E00000D595E03421615C012900D190E00138CA
:1046F000342160542130013160541E300131605446
:104700000021A1630C990091201C0399FFF726F862
:1047100000280CD0A36B042B04D100223033E254C8
:10472000012075E000223423E254032070E0FF2DC5
:104730000BD990239B010093201C0399FF22802317
:104740005B04FEF703FFFF270CE0EAB290239B0116
:104750000093201C039980239B04FEF7F7FE2F1C77
:1047600000E00136201C042100220C9BFEF770FFA4
:10477000002848D123685B6A3370013F6B1E9DB2ED
:10478000002F21D1002D21D0201C802100220C9B44
:10479000FEF75EFF002838D1FF2D0AD900230093D1
:1047A000201C0399FF2280235B04FEF7CFFEFF3716
:1047B000D7E7EAB200230093201C039980239B04CF
:1047C000FEF7C4FE2F1CCCE7002DCAD1201C1921F6
:1047D000FFF702F8002804D0A36B042B17D00320A6
:1047E00016E023682022DA6121684D68094B2B40CE
:1047F0004B603523E25400231632A354023AA354EB
:1048000006E0012004E0032002E0032000E0012094
:1048100005B0F0BD00E800FEF0B583B0061C0D1C2D
:1048200008A980C908883521715C0224202958D143
:10483000002F55D0013C002853D0316889690134DC
:1048400009044ED43421715C01294AD0013C342141
:1048500074542034013174541F34013174540021D4
:10486000B16377627085FF2802D9FF31318500E09E
:10487000308519210091301C291CFEF72FFF041EE2
:104880000CD0B36B042B04D100223033F25401243A
:1048900027E000223423F254032422E0328DFF2A41
:1048A0000CD1738D9BB2FF2B08D900230093301CD1
:1048B000291C80235B04FEF749FE08E0D2B20023E6
:1048C0000093301C291C80239B04FEF73FFE00222E
:1048D0003423F25432681168BE330B43136000E096
:1048E0000124201C03B0F0BDF0B583B0061C0D1CE4
:1048F00008A980C908883521715C0224202958D173
:10490000002F55D0013C002853D03168896901340B
:1049100009044ED43421715C01294AD0013C342170
:1049200074542134013174541E340131745477624B
:104930007085FF2802D9C931318500E03085192101
:104940000091301C291CFEF709FF041E0CD0B36B2C
:10495000042B04D100223033F254012429E0002238
:104960003423F254032424E0328DFF2A0DD1738DB9
:104970009BB2FF2B09D990239B010093301C291C6B
:1049800080235B04FEF7E2FD09E0D2B290239B0195
:104990000093301C291C80239B04FEF7D7FD0022C6
:1049A0003423F25432681168C0330B43136000E0C3
:1049B0000124201C03B0F0BDF0B583B0071C0C1C13
:1049C000161C1D1C08AB02CB1A883523C35C0220C1
:1049D000202B74D100296FD00138002A6FD03B689A
:1049E0009B6901301B046AD43423FB5C012B66D025
:1049F00001383423F85420300133F8541F30013388
:104A0000F8540023BB6379627A85FF2A02D9FF3309
:104A10003B8500E03A85FB6A2A4A9A62FB6A2A4A89
:104A20001A633A6828323B8DF86AFDF7A5F9192315
:104A30000093381C211C321C2B1CFEF74FFE002853
:104A40000CD0BB6B042B04D100223033FA5401206C
:104A500035E000223423FA54032030E03A8DFF2A57
:104A60000CD17B8D9BB2FF2B08D900230093381CFF
:104A7000211C80235B04FEF769FD08E0D2B200230D
:104A80000093381C211C80239B04FEF75FFD381C1B
:104A90001921FEF7B1FD002804D0BB6B042B0DD00B
:104AA00003200CE03A6813688021C9010B431360AE
:104AB00000223423FA5402E0012000E0012003B078
:104AC000F0BDC0460D520008554D0008F0B583B04A
:104AD000071C0C1C161C1D1C08AB04CB19883523A5
:104AE000C35C0220202B71D1002A6CD00138002930
:104AF0006CD03B689B6901301B0467D43423FB5C9A
:104B0000012B63D001383423F85421300133F85499
:104B10001E300133F8547A627985FF2902D9C933EE
:104B20003B8500E039853B6B294999623B6B2949FC
:104B30001963396824313B8D386BFDF71DF9192352
:104B40000093381C211C321C2B1CFEF707FE00288A
:104B50000CD0BB6B042B04D100223033FA5401205B
:104B600034E000223423FA5403202FE03A8DFF2A48
:104B70000DD17B8D9BB2FF2B09D990239B01009314
:104B8000381C211C80235B04FEF7E0FC09E0D2B254
:104B900090239B010093381C211C80239B04FEF76B
:104BA000D5FC381C042100221923FEF751FD0028F2
:104BB0000BD13A681368802109020B43136000226D
:104BC0003423FA5402E0012000E0032003B0F0BDDA
:104BD000C1530008554D0008F0B55F4656464D4696
:104BE0004446F0B485B0002403943534045D0226B5
:104BF000202C00D096E00468A469240400D591E03C
:104C00003424045D012C00D18CE01D1C9146041C51
:104C100001223423C25423320133C254002383635C
:104C200089058B0D9B466A46938093889A46226835
:104C3000E368012B03D13F4B51460B4303E0A02314
:104C40009B0159460B435360FBF76CFF01902026F4
:104C500010239846352711E06B1C10D0002D05D08D
:104C6000FBF760FF019BC01A854207D22022352343
:104C7000E2540022013BE254032653E02268936988
:104C80001E4207D193694146194203D1E35DDBB26D
:104C9000A02BE1D19369DB0610D4201C2021002237
:104CA0002B1CFEF7D5FC061E37D122682023D361CA
:104CB0003522A35400221433E25433E0201C202177
:104CC00000222B1CFEF7C4FC002828D123681022E8
:104CD000DA6123681032DA61039B5A1C03924B4558
:104CE00010D1226853688021C9010B435360201CF6
:104CF000202100222B1CFEF7ABFC002811D12368D9
:104D00002022DA61039B994591D820223523E25471
:104D10000022013BE254032604E0032602E00326BE
:104D200000E00326301C05B03CBC90469946A246E4
:104D3000AB46F0BD002000027047C0467047C04639
:104D40007047C0467047C0467047C0467047C0466F
:104D50007047C04608B5406A02685368802109025E
:104D60000B4353600023438520223533C254013363
:104D70000022C254826B263B13438363FFF7E8FF94
:104D800008BDC04630B583B0446A238DFF2B00D0E8
:104D9000A0E0638D9BB2FF2B00D89BE0201C8021FC
:104DA00000221923FEF754FC002803D0A26B202315
:104DB0001343A363226811685F4B0B401360A36B1E
:104DC000002B23D0201C1921FEF706FD00280AD055
:104DD000A36B042B03D1A26B1343A36303E0A26B69
:104DE00020231343A36323682022DA6121684868E3
:104DF000524B03404B60002363853533E25401334B
:104E00000022E254201CFFF7A3FF92E0228D636A88
:104E100099186162638D9B1A9BB26385638D9BB207
:104E2000FF2B02D9FF23238501E0638D23852268B0
:104E30005568AD05AD0D2832238DE06AFCF79CFF67
:104E4000228DFF2A0CD1638D9BB2FF2B08D9002342
:104E50000093201C291C80235B04FEF777FB08E0ED
:104E6000D2B200230093201C291C80239B04FEF750
:104E70006DFB201C1921FEF7BFFB002823D0201C4E
:104E80001921FEF7A9FC00280AD0A36B042B03D13B
:104E9000A26B1343A36303E0A26B20231343A3631A
:104EA00023682022DA6121684868244B03404B6064
:104EB000002363853533E25401330022E254201C81
:104EC000FFF746FF35E0226813688021C9010B43D4
:104ED00013602EE0201C1921FEF77EFC00280AD06A
:104EE000A36B042B03D1A26B1343A36303E0A26B58
:104EF00020231343A36323682022DA6121684868D2
:104F00000E4B03404B60216808680B4B03400B605D
:104F1000002363853533E25401330022E254A36B4E
:104F2000002B03D0201CFFF713FF02E0201CFFF72B
:104F300003FF03B030BDC046FFBFFFFF00E800FE27
:104F400030B583B0446A238DFF2B00D0A9E0638D78
:104F50009BB2FF2B00D8A4E0201C80210022192343
:104F6000FEF776FB002803D0A26B20231343A36334
:104F700022681168634B0B401360A36B002B23D096
:104F8000201C1921FEF728FC00280AD0A36B042B53
:104F900003D1A26B1343A36303E0A26B202313434B
:104FA000A36323682022DA6121684868564B0340D6
:104FB0004B60002363853533E25401330022E25411
:104FC000201CFFF7C5FE9BE0218D636A5A186262C0
:104FD000638D5B1A9BB26385638D9BB2FF2B02D9F5
:104FE000FF23238501E0638D238521684D68AD058E
:104FF000AD0D2431238D206BFCF7BEFE228DFF2AE0
:105000000CD1638D9BB2FF2B08D900230093201C89
:10501000291C80235B04FEF799FA08E0D2B2002332
:105020000093201C291C80239B04FEF78FFA201C70
:10503000042100221923FEF70BFB002803D0A26BEA
:1050400020231343A363A36B002B23D0201C19211F
:10505000FEF7C2FB00280AD0A36B042B03D1A26B7E
:105060001343A36303E0A26B20231343A3632368CA
:105070002022DA6121684868234B03404B600023FB
:1050800063853533E25401330022E254201CFFF7DC
:105090005FFE35E022681368802109020B4313602C
:1050A0002EE0201C1921FEF797FB00280AD0A36BE5
:1050B000042B03D1A26B1343A36303E0A26B202351
:1050C0001343A36323682022DA61216848680E4BEA
:1050D00003404B60216808680A4B03400B600023C3
:1050E00063853533E25401330022E254A36B002B75
:1050F00003D0201CFFF72CFE02E0201CFFF71EFE51
:1051000003B030BDFF7FFFFF00E800FE10B5446A2A
:10511000201C1921FEF760FB002809D0A36B042B8B
:1051200002D10023A36303E0A26B20231343A363F4
:1051300023682022DA61201C802109021F3A1923EA
:10514000FEF786FA002803D0A26B20231343A36343
:10515000226811680A4B0B401360002363852022EC
:105160003533E25401330022E254A36B002B03D009
:10517000201CFFF7EDFD02E0201CFFF7E1FD10BD54
:10518000FFBFFFFF10B5446A201C1921FEF724FB66
:1051900000280AD0A36B042B03D1A26B1343A36393
:1051A00003E0A26B20231343A36323682022DA6168
:1051B000201C802109021F3A1923FEF749FA002812
:1051C00003D0A26B20231343A363226811680E4B04
:1051D0000B40136022685368802109020B4353601F
:1051E0000023638520223533E25401330022E25448
:1051F000A36B002B03D0201CFFF7AAFD02E0201CAC
:10520000FFF7A0FD10BDC046FF7FFFFF30B583B0A4
:10521000446A238DFF2B00D09DE0638D9BB2FF2B52
:1052200000D898E0201C802100221923FEF710FAF4
:10523000002803D0A26B20231343A36322681168C4
:105240005D4B0B401360A36B002B20D0201C192159
:10525000FEF7C2FA00280AD0A36B042B03D1A26B7D
:105260001343A36303E0A26B20231343A3632368C8
:105270002022DA6121684868504B03404B600023CC
:1052800063853533E254201CFFF762FD92E0228DE6
:10529000636A99186162638D9B1A9BB26385638D03
:1052A0009BB2FF2B02D9FF23238501E0638D238569
:1052B00022685568AD05AD0D2832238DE06AFCF7F4
:1052C0005BFD228DFF2A0CD1638D9BB2FF2B08D989
:1052D00000230093201C291C80235B04FEF736F971
:1052E00008E0D2B200230093201C291C80239B04D9
:1052F000FEF72CF9201C1921FEF77EF9002823D097
:10530000201C1921FEF768FA00280AD0A36B042B91
:1053100003D1A26B1343A36303E0A26B20231343C7
:10532000A36323682022DA6121684868234B034085
:105330004B60002363853533E25401330022E2548D
:10534000201CFFF705FD35E0226813688021C901A4
:105350000B4313602EE0201C1921FEF73DFA0028B4
:105360000AD0A36B042B03D1A26B1343A36303E006
:10537000A26B20231343A36323682022DA612168F0
:1053800048680E4B03404B60216808680A4B034095
:105390000B60002363853533E25401330022E2546D
:1053A000A36B002B03D0201CFFF7D2FC02E0201CD3
:1053B000FFF7CAFC03B030BDFFBFFFFF00E800FEEF
:1053C00030B583B0446A238DFF2B00D0A9E0638DF4
:1053D0009BB2FF2B00D8A4E0201C802100221923BF
:1053E000FEF736F9002803D0A26B20231343A363F2
:1053F00022681168634B0B401360A36B002B23D012
:10540000201C1921FEF7E8F900280AD0A36B042B11
:1054100003D1A26B1343A36303E0A26B20231343C6
:10542000A36323682022DA6121684868564B034051
:105430004B60002363853533E25401330022E2548C
:10544000201CFFF785FC9BE0218D636A5A1862627D
:10545000638D5B1A9BB26385638D9BB2FF2B02D970
:10546000FF23238501E0638D238521684D68AD0509
:10547000AD0D2431238D206BFCF77EFC228DFF2A9D
:105480000CD1638D9BB2FF2B08D900230093201C05
:10549000291C80235B04FEF759F808E0D2B20023F0
:1054A0000093201C291C80239B04FEF74FF8201C2E
:1054B000042100221923FEF7CBF8002803D0A26BA9
:1054C00020231343A363A36B002B23D0201C19219B
:1054D000FEF782F900280AD0A36B042B03D1A26B3C
:1054E0001343A36303E0A26B20231343A363236846
:1054F0002022DA6121684868234B03404B60002377
:1055000063853533E25401330022E254201CFFF757
:105510001FFC35E022681368802109020B431360E9
:105520002EE0201C1921FEF757F900280AD0A36BA2
:10553000042B03D1A26B1343A36303E0A26B2023CC
:105540001343A36323682022DA61216848680E4B65
:1055500003404B60216808680A4B03400B6000233E
:1055600063853533E25401330022E254A36B002BF0
:1055700003D0201CFFF7ECFB02E0201CFFF7E6FB4A
:1055800003B030BDFF7FFFFF00E800FE10B582B022
:10559000041C03689A6992070ED49A6912060BD408
:1055A0009A69520608D49A69920605D49A69D20675
:1055B00002D49A6912075AD51A687A210A407A2ABF
:1055C00055D1443AA25C202A51D11432A25C012A5E
:1055D0004DD079393422A1549A69D20613D5628DFF
:1055E00092B2002A02D11032DA613DE01022DA6173
:1055F000A26B04231343A36300223423E254201C30
:10560000FFF7A6FB30E09A69120702D50822DA619B
:105610002AE09A69920617D51A68FE218A431A6011
:1056200022685368802109020B43536022682023BB
:10563000D3613522A35400230132A354023AA35468
:10564000201CFFF77DFB0FE09A6992070CD5628D55
:1056500092B2002A08D0626A511C616212789A6282
:10566000638D013B9BB2638500223423E25423689F
:105670009A6992070CD49A69120609D49A6952065B
:1056800006D49A69920603D49A69D20600D4CFE070
:105690001A6872210A40722A00D0C9E03C3AA25C22
:1056A000102A04D03622A25C402A00D0C0E0342266
:1056B000A25C012A00D1BBE001213422A1549A69E5
:1056C00092070CD5626A511C616212789A62238D2E
:1056D000013B2385638D013B9BB26385A5E09A69FD
:1056E00012062FD5228D002A21D1628D92B2002A76
:1056F0001DD059688905890D638D9BB2FF2B0AD98E
:1057000000230093201CFF2280235B04FDF71EFF73
:10571000FF23238589E0628DD2B200230093201CF1
:1057200080239B04FDF712FF638D23857DE000221B
:105730003423E254A26B0C331343A363201CFFF702
:1057400007FB72E09A69520614D5628D92B2002A64
:1057500005D15A688021C9010A435A6065E00022D8
:105760003423E254A26B0C331343A363201CFFF7D2
:10577000EFFA5AE09A69920648D59A69D20605D599
:105780001022DA61A26B04231343A3632268136817
:10579000F2218B43136023682022DA61226851686A
:1057A000BA4B0B40536023689A69D20703D49969B6
:1057B00001220A439A61A36B002B0BD020223523D0
:1057C000E25400231632A354023AA354201CFFF7DC
:1057D000BFFA2AE03623E35C402B0BD120220B3B9F
:1057E000E25400231632A354023AA354201CFFF7BC
:1057F000ABFA1AE020223523E25400231632A354D8
:10580000023AA354201CFFF797FA0EE09A69D206D9
:105810000BD51022DA6100223423E254A26B303B14
:105820001343A363201CFFF793FA00223423E254AE
:1058300023689A6952070ED49A6912060BD49A69A2
:10584000520608D49A69920605D49A69D20602D4FF
:105850009A69120752D51A687C210A407C2A4DD1D8
:10586000463AA25C202A49D11432A25C012A45D0D2
:105870007B393422A1549A69D2060CD51022DA6100
:1058800000223423E254A26B303B1343A363201C59
:10589000FFF75EFA2FE09A69120702D50822DA6153
:1058A00029E09A6952070CD5626A511C61625B6AF1
:1058B0001370238D013B2385638D013B9BB2638570
:1058C00019E09A69920616D51A68FE218A431A6071
:1058D00022685368802109020B4353602268202309
:1058E000D3613522A35400230132A354023AA354B6
:1058F000201CFFF727FA00223423E25423689A6918
:1059000052070CD49A69120609D49A69520606D431
:105910009A69920603D49A69D20600D4CAE01A683A
:1059200074210A40742A00D0C4E03E3AA25C102AD6
:1059300004D03622A25C402A00D0BBE03422A25C14
:10594000012A00D1B6E001213422A1549A695207FC
:105950000CD5626A511C61625B6A1370238D013B36
:105960002385638D013B9BB26385A0E09A69120693
:105970002FD5228D002A21D1628D92B2002A1DD00E
:1059800059688905890D638D9BB2FF2B0AD90023C5
:105990000093201CFF2280235B04FDF7D7FDFF232B
:1059A000238584E0628DD2B200230093201C8023E3
:1059B0009B04FDF7CBFD638D238578E00022342323
:1059C000E254A26B0C331343A363201CFFF7C0F90E
:1059D0006DE09A69520614D5628D92B2002A05D103
:1059E0005A688021C9010A435A6060E000223423CA
:1059F000E254A26B0C331343A363201CFFF7A8F9F6
:105A000055E09A69920643D59A69D20605D51022C7
:105A1000DA61A26B04231343A36322681368F421A1
:105A20008B43136023682022DA6122685168174B88
:105A30000B405360A36B002B0BD020223523E25484
:105A400000231632A354023AA354201CFFF780F916
:105A50002DE03623E35C402B0BD120220B3BE2549C
:105A600000231632A354023AA354201CFFF76EF908
:105A70001DE020223523E25400231632A354023ABB
:105A8000A354201CFFF75AF911E0C04600E800FEBD
:105A90009A69D2060BD51022DA6100223423E2542F
:105AA000A26B303B1343A363201CFFF751F9002284
:105AB0003423E25402B010BD08B503689A69D205D8
:105AC00009D51A68120606D5816B01220A43826342
:105AD00080225200DA6103689A69520509D51A6872
