:020000040800F2
:1000000000180020752F00080117000809170008C4
:1000100000000000000000000000000000000000E0
:10002000000000000000000000000000E52F0008B4
:100030000000000000000000E52F00081117000874
:10004000E52F0008E52F0008E52F0008E52F000840
:10005000E52F0008E52F0008E52F0008E52F000830
:10006000E52F0008E52F0008E52F0008E52F000820
:10007000E52F0008E52F0008E52F0008E52F000810
:10008000E52F00080000000000000000E52F000838
:1000900000000000E52F0008E52F0008E52F00080C
:1000A00000000000E52F0008E52F0008E52F0008FC
:1000B000E52F000800000000E52F0008E52F0008EC
:1000C00008B5054B054803331B1A062B03D9044B0F
:1000D000002B00D0984708BD3004002030040020D9
:1000E000000000000648074908B5091A8910CB0F1F
:1000F0005918491003D0044B002B00D0984708BD75
:1001000030040020300400200000000010B5074C2F
:100110002378002B09D1FFF7D3FF054B002B02D02A
:10012000044800E000BF0123237010BD300400200C
:1001300000000000DC31000808B5094B002B03D09B
:100140000848094900E000BF08480368002B02D1B5
:10015000FFF7C8FF08BD064B002BF9D09847F7E71B
:1001600000000000DC3100083404002030040020CE
:1001700000000000002243088B4274D303098B4225
:100180005FD3030A8B4244D3030B8B4228D3030C67
:100190008B420DD3FF22090212BA030C8B4202D309
:1001A0001212090265D0030B8B4219D300E0090A31
:1001B000C30B8B4201D3CB03C01A5241830B8B423A
:1001C00001D38B03C01A5241430B8B4201D34B0323
:1001D000C01A5241030B8B4201D30B03C01A524188
:1001E000C30A8B4201D3CB02C01A5241830A8B420D
:1001F00001D38B02C01A5241430A8B4201D34B02F6
:10020000C01A5241030A8B4201D30B02C01A524159
:10021000CDD2C3098B4201D3CB01C01A524183090D
:100220008B4201D38B01C01A524143098B4201D347
:100230004B01C01A524103098B4201D30B01C01A72
:100240005241C3088B4201D3CB00C01A52418308EC
:100250008B4201D38B00C01A524143088B4201D319
:100260004B00C01A5241411A00D201465241104679
:100270007047FFE701B5002000F0FCF802BDC04662
:100280000029F7D003B5FFF775FF0EBC4243891A6A
:100290001847C04603460B437FD4002243088B42D5
:1002A00074D303098B425FD3030A8B4244D3030BFD
:1002B0008B4228D3030C8B420DD3FF22090212BAC2
:1002C000030C8B4202D31212090265D0030B8B423E
:1002D00019D300E0090AC30B8B4201D3CB03C01A28
:1002E0005241830B8B4201D38B03C01A5241430B03
:1002F0008B4201D34B03C01A5241030B8B4201D3F3
:100300000B03C01A5241C30A8B4201D3CB02C01A5D
:100310005241830A8B4201D38B02C01A5241430AD5
:100320008B4201D34B02C01A5241030A8B4201D3C4
:100330000B02C01A5241CDD2C3098B4201D3CB016B
:10034000C01A524183098B4201D38B01C01A52411A
:1003500043098B4201D34B01C01A524103098B421E
:1003600001D30B01C01A5241C3088B4201D3CB0009
:10037000C01A524183088B4201D38B00C01A5241EC
:1003800043088B4201D34B00C01A5241411A00D29C
:1003900001465241104670475DE0CA0F00D0494205
:1003A000031000D34042534000229C4603098B4275
:1003B0002DD3030A8B4212D3FC22890112BA030AFD
:1003C0008B420CD3890192118B4208D3890192117F
:1003D0008B4204D389013AD0921100E08909C30904
:1003E0008B4201D3CB01C01A524183098B4201D306
:1003F0008B01C01A524143098B4201D34B01C01AF1
:10040000524103098B4201D30B01C01A5241C30868
:100410008B4201D3CB00C01A524183088B4201D3D7
:100420008B00C01A5241D9D243088B4201D34B00F2
:10043000C01A5241411A00D20146634652415B1034
:10044000104601D34042002B00D549427047634615
:100450005B1000D3404201B5002000F00BF802BD54
:100460000029F8D003B5FFF715FF0EBC4243891AE7
:100470001847C0467047C04680B58AB000AF002319
:100480007B621F23FB1800221A7001F053FB00F05F
:10049000F9F800F071F900F03BF9474B8022920027
:1004A0009A62C623DA00C623DB00101C191C012245
:1004B00000F08AF9021C414B1A60404B19689623E0
:1004C000DA003F4B081C111C1A1C00F077FB3B4B59
:1004D0001968F823DA003B4B081C111C1A1C00F0A9
:1004E0006DFB00F02BFF384B1B88181C00F06EF8DA
:1004F000031C3B629023DB051B69DBB240221340E7
:10050000DAB21F23FB181A701F23FB181B78DBB20B
:10051000002B0CD19023DB059022D20552692021BB
:100520000A435A611F23FB1801221A700BE0902323
:10053000DB059022D205526920218A435A611F238C
:10054000FB1800221A703A6A7B6AD31A002B1BDC54
:1005500000237B629023DB059022D2055269102193
:100560004A405A619623DA003B1C101C191C1E22BB
:10057000322300F087FB9623DA003B1C101C191C69
:100580001E22322300F00CFC7B6A181C0521FFF7A9
:1005900067FF0B1E09D1094B1A681F23FB181B7834
:1005A000DBB2101C191C00F021FE7B6A01337B6258
:1005B000012001F007FB94E70024014064040020BF
:1005C0002D0600084D0600086804002080B586B09E
:1005D00000AF021CBB1D1A801623FB189622520086
:1005E0001A801523FB1814221A701223FB1880227C
:1005F00052011A80BB1D1B881622BA1811881522B9
:10060000BA1812788A1A5343FB601223FB181B880E
:10061000F868191CFFF7AEFD031C1A1C1523FB1804
:100620001B78D318181CBD4606B080BD80B582B0BB
:1006300000AF78607A68044B101C191C00F04CFE67
:10064000BD4602B080BDC0466804002080B584B0BD
:1006500000AF78600823FB18084A11681960928877
:100660009A80074B1A680823FB18101C191C0522D6
:1006700000F0E2FDBD4604B080BDC046F431000884
:100680006404002080B592B000AF1423FB18302220
:100690001A601423FB180122DA611423FB180122CB
:1006A0005A611423FB1810229A611423FB180022AC
:1006B0005A621423FB18181C01F000FF3B1D07228F
:1006C0001A603B1D03225A603B1D00229A603B1DAD
:1006D0000022DA603B1D181C012102F06DFA02F0C5
:1006E000E9FB031C181CFA239900FFF743FD031CC8
:1006F000181C01F087FC042001F092FC01235B42EE
:10070000181C0021002201F067FCBD4612B080BD1C
:1007100080B500AF164B164A9269802189000A43C2
:100720009A61134B124A526B01210A435A6302E049
:10073000012001F047FA0E4B5B6B02221340F7D009
:100740000C4B0C4A926801210A439A6002E0012096
:1007500001F038FA074B1B6801221340F7D0054B14
:10076000044A1269920092081A61BD4680BDC046D3
:10077000001002400024014080B500AF104B104A29
:100780005269C021C9020A435A619023DB059022B5
:10079000D2059269C02189030A439A619023DB053F
:1007A0009022D2051268A021C9000A431A60054BA5
:1007B000044A12680C210A431A60BD4680BDC04637
:1007C000001002400004004890B59F4CA54400AFC3
:1007D000041C081C111C9D4BEE2292009446BC4444
:1007E0006344221C1A809A4BEE2292009446BC4429
:1007F0006344021C1A80974BEE2292009446BC443C
:1008000063440A1C1A70944B1B7801225340DBB2DC
:10081000002B09D000F084FF00F0B8FF8F4B0022BE
:100820001A708D4B01221A708D4BFB1800221A7022
:100830003FE08B4BFB181A788A4BE8214A43D35A86
:10084000834AEE2189008C46BC44624412889A4255
:1008500028D1834BFB181B78824AE8214B43D318DD
:1008600018339B88794AEE2189008C46BC44624447
:1008700012889A4216D17A4BFB181B7801229A40B3
:10088000131CDAB2784B1B78DBB21343DBB2DAB25B
:10089000754B1A70724BFB181B78E8225A43714B48
:1008A000D3187CE16E4BFB186D4ABA1812780132EE
:1008B0001A706B4BFB181B78032BBAD9654BEE22D1
:1008C00092009446BC4463441B7801225340DBB23F
:1008D000002B01D0002362E10023EC229200BA1821
:1008E0001360624BEE229200BA18D2185D4B111CB5
:1008F0001A1CE8239B00081C111C1A1C02F0BAFBEE
:1009000000F00CFE574B181C00F030FE584BFB1843
:1009100000221A7037E1544B1B781A1C544BFB18F9
:100920001B781A41131C0122134049D1EC239B0070
:10093000FB181B68002B43D14D4BFB181B78E8229A
:10094000534318331A1C474BD31804331A1C3F4B1C
:10095000EE2189008C46BC4463441B88101C191C82
:1009600000F056FE424BFB181B78E8225A433D4BE1
:10097000D3181A1C364BEE2189008C46BC446344C4
:100980001B88101C191C00F043FE394BFB181B7808
:1009900001229A40131CDAB2334B1B78DBB21343AB
:1009A000DBB2DAB2304B1A70314BFB181B78E822FD
:1009B0005A432C4BD318EC229200BA181360DBE098
:1009C000294B1B781A1C2A4BFB181B781A41131C45
:1009D0000122134000D1CFE0254BFB181B78E82201
:1009E0005A43204BD318181C214BFB181A781F4B65
:1009F000EE2189008C46BC446344E8214A43D35A23
:100A0000191C00F005FE1A4BFB181B78E822534313
:100A100018331A1C134BD3180433181C144BFB182F
:100A20001B78124AEE2189008C46BC446244E821BE
:100A30004B43D31818339B88191C00F0E9FD0D4B6C
:100A4000FB1800221A7068E044FCFFFF4EFCFFFF19
:100A50004CFCFFFF4BFCFFFF5C0400204C0400201B
:100A6000B7030000007C00085D04002054FCFFFF79
:100A7000AF030000AE0300004C4BFB181A784C4B40
:100A8000FB181B7874214A43D3185A00494BD318DA
:100A900004331C1C454BFB181978454BFB181B787D
:100AA000454AEE2080008446BC44624474204143A1
:100AB000CB185B00D3189B88201C191C00F0A8FDE4
:100AC0003A4BFB181A783A4BFB181B783A214A43E9
:100AD000D31802339A00374BD31804331C1C334B02
:100AE000FB181978324BFB181B78334AEE20800034
:100AF0008446BC4462443A204143CB1802339B00F5
:100B0000D3185B68201C191C00F0CCFD284BFB1887
:100B1000274ABA18127801321A70254BFB181B7835
:100B2000032BA9D9214BFB181B78E8225A43214BF0
:100B3000D0181E4BFB181B780C22BA18E8214B4327
:100B40001833D3180633191C1E2200F0B7F9174BBF
:100B5000FB181B78E8225A43164BD018134BFB188E
:100B60001B780C22BA18E8214B433633D3180633CE
:100B7000191CAA2200F0F2F90C4BFB180B4ABA1808
:100B8000127801321A70094BFB181B78032B00D81E
:100B9000C1E600F0DFFCEC239B00FB181B68181C6F
:100BA000BD46EF239B009D4490BDC046AF030000AF
:100BB000AE030000007C000854FCFFFF80B586B047
:100BC00000AFF8607A600A23FB180A1C1A800A2317
:100BD000FB181B88294A934202D87B68002B01D15D
:100BE000002347E01723FB1800221A703CE017236C
:100BF000FB181B78FA685B00D3189B88204A934245
:100C00002BD11723FB181B785B00FA68D318043329
:100C10001A1C0A23FB181B88101C191C00F0F8FC76
:100C20001723FB181B7802339B00FA68D318043390
:100C30001A1C7B68101C191C00F034FD1723FB18CC
:100C40001B78FA6802339B00D3185A687B689A4273
:100C500001D101230EE000230CE01723FB1817221B
:100C6000BA18127801321A701723FB181B78032B5D
:100C7000BDD90023181CBD4606B080BDFF0700008B
:100C8000FFFF000080B58AB000AFB960111C7B6027
:100C90000E23FB18021C1A800D23FB180A1C1A7065
:100CA0001023FB180E22BA1812881A801023FB1882
:100CB00001229A701023FB180022DA701023FB180F
:100CC00026221A711023FB18181C052100F0A2FD22
:100CD00000F06EFF031CFB61BB687B624DE0C04609
:100CE000002000F0F7FE031E07D100F061FF021C98
:100CF000FB69D21A7B689A42F2D31023FB18181CA6
:100D0000052100F05FFE1023FB181B880E22BA1885
:100D100012889A4207D11023FB181B791A1C1F2333
:100D20001340082B00D028E02323FB1800221A7060
:100D300012E02323FB181B781022BA18D3181A7953
:100D40007B6A1A707B6A01337B622323FB182322A0
:100D5000BA18127801321A702323FB181A7810235C
:100D6000FB189B78013B9A4207DA7A6ABB68D21A71
:100D70000D23FB181B789A42DBDB7A6ABB68D21A18
:100D80000D23FB181B789A4207DA00F011FF021CB2
:100D9000FB69D21A7B689A42A1D3BD460AB080BDD6
:100DA00080B58AB000AFB960111C7B600E23FB18C0
:100DB000021C1A800C23FB180A1C1A801023FB1833
:100DC0000E22BA1812881A801023FB1801229A707A
:100DD0001023FB180022DA701023FB1827221A7147
:100DE0001023FB18181C052100F014FD00F0E0FE94
:100DF000031CFB61BB687B624DE0C046002000F035
:100E000069FE031E07D100F0D3FE021CFB69D21A53
:100E10007B689A42F2D31023FB18181C052100F0BE
:100E2000D1FD1023FB181B880E22BA1812889A4293
:100E300007D11023FB181B791A1C1F231340082B02
:100E400000D028E02323FB1800221A7012E023238D
:100E5000FB181B781022BA18D3181A797B6A1A70FB
:100E60007B6A01337B622323FB182322BA18127892
:100E700001321A702323FB181A781023FB189B7871
:100E8000013B9A4207DA7A6ABB68D21A0C23FB1834
:100E90001B889A42DBDB7A6ABB68D21A0C23FB18E8
:100EA0001B889A4207DA00F083FE021CFB69D21A03
:100EB0007B689A42A1D3BD460AB080BD80B586B09A
:100EC00000AFF860B960FB1D1A701723FB180022F1
:100ED0001A702BE01723FB181B78BA68D3181B78FD
:100EE00099B21723FB181B780133BA68D3181B7803
:100EF0001B029BB20A1C13439AB21423FB181A80DC
:100F00001723FB181B781833FA68D31806331A1CFA
:100F10001423FB181B88101C191C00F079FB1723E5
:100F2000FB181722BA18127802321A70BB681B78A5
:100F3000002B0FD0BB681B78FF2B0BD01723FB189F
:100F40001B781D2B06D81723FA18FB1D12781B7867
:100F50009A42BFD3BD4606B080BDC04680B586B0BC
:100F600000AFF860B960FB1D1A701723FB18002250
:100F70001A702CE01723FB181B78BA68D3181B785B
:100F800099B21723FB181B780133BA68D3181B7862
:100F90001B029BB20A1C13439AB21423FB181A803B
:100FA0001723FB181B781E331833FA68D31806333F
:100FB0001A1C1423FB181B88101C191C00F028FB9A
:100FC0001723FB181722BA18127802321A70BB685E
:100FD0001B78002B0FD0BB681B78FF2B0BD017237F
:100FE000FB181B78A92B06D81723FA18FB1D1278BB
:100FF0001B789A42BED3BD4606B080BD80B586B090
:1010000000AF78600A1CBB1C1A800823FB18BA1CAE
:1010100012881A800823FB180022DA700823FB18B4
:1010200028221A711723FB1800221A704EE0082399
:10103000FB1801229A7030E00823FB189B78191CDA
:101040001723FB181B787A68D3189A7F0823FB189C
:101050005B181A710823FB189B781A1C0823FB18CD
:101060009B181B79002B22D00823FB189B781A1C95
:101070000823FB189B181B79FF2B18D00823FB189B
:101080009B780133DAB20823FB189A701723FB18F8
:101090001722BA18127801321A700823FB189B78AD
:1010A000072B04D81723FB181B781D2BC4D9082342
:1010B000FB189B78082B03D90823FB1808229A7089
:1010C0000823FB18181C052100F0A4FB1723FB18AC
:1010D0001B787A68D3189B7F002B07D01723FB1847
:1010E0001B787A68D3189B7FFF2BA0D1BD4606B032
:1010F00080BDC04680B586B000AF78600A1CBB1CBE
:101100001A800823FB18BA1C12881A800823FB18BF
:101110000022DA700823FB1828221A711723FB1803
:101120001E221A704EE00823FB1801229A7030E04C
:101130000823FB189B78191C1723FB181B787A6867
:10114000D3189A7F0823FB185B181A710823FB1821
:101150009B781A1C0823FB189B181B79002B22D0A4
:101160000823FB189B781A1C0823FB189B181B7973
:10117000FF2B18D00823FB189B780133DAB2082321
:10118000FB189A701723FB181722BA18127801322D
:101190001A700823FB189B78072B04D81723FB1819
:1011A0001B78C72BC4D90823FB189B78082B03D9BD
:1011B0000823FB1808229A700823FB18181C052125
:1011C00000F028FB1723FB181B787A68D3189B7F45
:1011D000002B07D01723FB181B787A68D3189B7F46
:1011E000FF2BA0D1BD4606B080BDC04680B586B0FD
:1011F00000AF78600A1CFB1C1A700C23FB1800223D
:101200001A710C23FB18FA1C12785A710C23FB1864
:1012100002229A700C23FB180022DA707B681A886D
:101220000C23FB181A800C23FB18181C052100F056
:10123000F1FABD4606B080BD80B588B000AFF86059
:10124000B960FB1D1A70FB1D1B78072B01D9042305
:101250003DE01023FB1820221A711F23FB180022E7
:101260001A7016E01F23FB181B7801331F22BA18CF
:101270001278B9688A181278D1B21022BA18D31825
:101280000A1C1A711F23FB181F22BA181278013288
:101290001A701F23FA18FB1D12781B789A42E1D3AB
:1012A000FB1D1B780133DAB21023FB189A70102350
:1012B000FB180022DA70FB681A881023FB181A80CA
:1012C0001023FB18181C052100F0A4FA0023181C99
:1012D000BD4608B080BDC04680B582B000AF786022
:1012E00039607B68002B01D1012322E07B681B79E8
:1012F0005B09DBB2022B09D17B689B78032B05D1FC
:101300007B681B791A1C1F23134001D0032310E0B4
:101310007B685B799AB23B681A803B681A887B6865
:101320009B799BB21B029BB213439AB23B681A8013
:101330000023181CBD4602B080BDC04690B583B0E6
:1013400000AF002000F0C6FB031E00D154E02C4B80
:10135000181C052100F036FBFB1D00221A7044E02A
:10136000274B1A88FB1D1978264BE8204143CB5A9E
:101370009A420AD1FB1D1B78E8225A43214BD2180E
:101380001F4B101C191C00F041F8BB1D00221A70E5
:1013900022E01B4B1A88FB1D1878BB1D1B781949CE
:1013A00074246043C3185B00CB189B889A420ED10B
:1013B000FB1D1978BB1D1B78124A3A204143CB18FC
:1013C00002339B00D3185B680D4A101C9847BB1D65
:1013D000BA1D127801321A70BB1D1B78032BD8D9A5
:1013E000FB1DFA1D127801321A70FB1D1B78032BAE
:1013F000B6D9054B00221A70BD4603B090BDC04659
:1014000050040020007C00084C04002080B584B00B
:1014100000AF786039603B681A790F23FB181F21F1
:101420000A401A700F23FB181B78062B02D0072BDB
:1014300008D00FE03B681B887A68101C191CFFF766
:10144000DDFD07E03B681B887A68101C191CFFF75C
:1014500051FEC046BD4604B080BDC04680B582B0D6
:1014600000AF0E4B0D4A926901210A439A610B4B62
:101470009B69012213407B607B6801235B42181C3F
:101480000021002200F0A8FD054B054A126810213A
:101490000A431A60BD4602B080BDC046001002403B
:1014A0000000014080B588B000AF78607B681B68A1
:1014B000184A93422AD1184B174AD26980218904CD
:1014C0000A43DA61144BDA6980239B041340BB6042
:1014D000BB680C23FB18C02252011A600C23FB18B6
:1014E00002225A600C23FB1800229A600C23FB187E
:1014F0000322DA600C23FB1804221A619023DA0518
:101500000C23FB18101C191C00F072FBBD4608B020
:1015100080BDC046006400400010024080B500AFAE
:10152000C046094BDB6801221340FAD1064B1B6908
:101530008022134005D0044B044A5A60024B044AEF
:101540005A60BD4680BDC046002002402301674569
:10155000AB89EFCD80B500AF034B034A1269802100
:101560000A431A61BD4680BD0020024080B584B0A8
:1015700000AF7860254B254A126902210A431A619F
:10158000224B7A685A61214B204A126940210A4352
:101590001A61C0461D4BDB6801221340FAD11B4B78
:1015A000DB68202213400AD0184B184AD268202149
:1015B0000A43DA600F23FB1800221A7019E0134B5C
:1015C000DB68042213400AD0104B104AD268042171
:1015D0000A43DA600F23FB1801221A7009E00B4B53
:1015E0000A4AD26810210A43DA600F23FB1802224C
:1015F0001A70064B054A126902218A431A610F23A9
:10160000FB181B78181CBD4604B080BD00200240AA
:1016100080B584B000AF78600A1CBB1C1A80204BD8
:101620001F4A126901210A431A617B68BA1C128899
:101630001A80C0461A4BDB6801221340FAD1184BBE
:10164000DB68202213400AD0154B154AD2682021AE
:101650000A43DA600F23FB1800221A7019E0104BBE
:10166000DB68042213400AD00D4B0D4AD2680421D6
:101670000A43DA600F23FB1801221A7009E0084BB5
:10168000074AD26810210A43DA600F23FB180222AE
:101690001A700F23FB181B78181CBD4604B080BDC0
:1016A0000020024090B585B000AF786039603B689B
:1016B0009BB20F22BC187A68101C191CFFF7A8FFF8
:1016C000031C23700F23FB181B78002B03D00F2360
:1016D000FB181B7810E07B689A1C3B689BB21B14BC
:1016E0009BB20F217C18101C191CFFF791FF031CE3
:1016F00023700F23FB181B78181CBD4605B090BD46
:1017000080B500AFBD4680BD80B500AFFEE7C046E6
:1017100080B500AF00F040FA00F09CFCBD4680BDF3
:1017200080B500AF144B00221A60134B00225A60A0
:10173000114B00229A60104B0022DA600E4B0022FF
:101740009A610D4B0122DA610B4B00225A610A4B60
:1017500000221A61084B00225A62074B01221A62CA
:10176000064B30221A60064B064A1A60064B0622C8
:101770001A70BD4680BDC046B40400206C04002031
:101780007004002000640040B004002080B500AF69
:101790001C4B1B78062B33D11B4B1A681B4B5A6012
:1017A0001A4B00229A60194B0022DA60174BC022B4
:1017B00092021A61154B802292035A61134B002248
:1017C0009A61124B0022DA61104B00221A620F4B11
:1017D00000225A620D4B00229A620C4B0022DA6200
:1017E0000A4B00221A63094B181C00F03DFC074A03
:1017F000074B101C191C00F05BFD024B00221A70F5
:10180000BD4680BDB00400206C04002070040020A0
:10181000B404002090B585B000AF786039600F2324
:10182000FB1800221A7012E0654A0F23FB181B7880
:1018300018331B019B580122134007D00F23FB18BC
:101840000F22BA18127801321A7000E004E00F2358
:10185000FB181B78022BE7D90F23FB181B78032BEF
:1018600001D10523A7E056490F23FB181B787A689E
:101870001288520518331B015A507B68DB78002B05
:101880000FD04F490F23FB181B784D480F22BA1871
:1018900012781832120112580220024318331B0129
:1018A0005A5047490F23FB181B787A689278101C0E
:1018B0000F22024018331B01CB185A6040490F23F6
:1018C000FB181A78C4235B0012018A18D31800226F
:1018D0005A603B490F23FB181A78C4235B0012019E
:1018E0008A18D31800221A600E23FB1800221A70DF
:1018F0004BE0334C0F23FB18197831480F23FB18AA
:101900001A78C4235B0012018218D3185B680E2278
:10191000BA1812780432786882181279101C0E22D4
:10192000BA181278D2009040021C1A43C4235B00FC
:1019300009016118CB185A60214C0F23FB18197844
:101940001F480F23FB181A78C4235B00120182186A
:10195000D3181B680E22BA18127878688218127988
:10196000101C0E22BA181278D2009040021C1A43A2
:10197000C4235B0009016118CB181A600E23FB1801
:101980000E22BA18127801321A700E23FB181B7837
:10199000032BAED90A490F23FB181B7808480F22E6
:1019A000BA18127818321201125801200243183363
:1019B0001B015A500023181CBD4605B090BDC046FF
:1019C0000064004080B584B000AF786039600E23B9
:1019D000FB1800221A703E4BDB680322134001D132
:1019E000022371E03A4A0E23FB181B781B331B01BC
:1019F0009B585B0D9AB27B681A807B680022DA7074
:101A0000334A0E23FB181B781B331B019B58022201
:101A1000134002D07B680122DA702D4A0E23FB1896
:101A20001B781B331B01D3185B68DBB20F221340FA
:101A3000DAB27B689A700F23FB1800221A7037E025
:101A40000F23FB181B781A1D21480E23FB18197849
:101A5000DC235B0009014118CB1859680F23FB18E0
:101A60001B78DB00D9400B1CD9B27B689B180A1C81
:101A70001A710F23FB181A7815480E23FB181978D2
:101A8000DC235B0009014118CB1819680F23FB18F0
:101A90001B78DB00D9400B1CD9B27B689B180A1C51
:101AA0001A710F23FB180F22BA18127801321A701C
:101AB0000F23FB181B78032BC2D9054B044AD268AD
:101AC00020210A43DA600023181CBD4604B080BD03
:101AD0000064004080B582B000AF021CFB1D1A708C
:101AE000124B1B78062B01D100231AE0FB1D1B783B
:101AF000002B0BD10E4B1B68DB68DBB21A1C0323D7
:101B00001340DA17D31ADB0FDBB20AE0084B1B686D
:101B10001B69DBB21A1C03231340DA17D31ADB0F3D
:101B2000DBB2181CBD4602B080BDC046B004002028
:101B30007004002080B500AF074B074A12681021DF
:101B40000A431A60002000F009F8FFF787FC002321
:101B5000181CBD4680BDC0460020024080B582B042
:101B600000AF786001F0A6F9031C181CFA23990055
:101B7000FEF700FB031C181C00F044FA01235A4234
:101B80007B68101C191C002200F026FA0023181C88
:101B9000BD4602B080BDC04680B500AF034B1B6898
:101BA0005A1C024B1A60BD4680BDC046600400202E
:101BB00080B500AF024B1B68181CBD4680BDC046F7
:101BC0006004002080B584B000AF78600023FB6023
:101BD000FFF7EEFF031CFB60C046FFF7E9FF021CA6
:101BE000FB68D21A7B689A42F7D3BD4604B080BD29
:101BF00080B586B000AF7860396000237B61002338
:101C0000FB6000233B6145E13B681B687A69012169
:101C100091400A1C1340FB60FB68002B00D136E1A9
:101C20003B685B68022B03D03B685B68122B22D1B8
:101C30007B69DA087B6808329200D3583B617B6984
:101C4000072213409B001A1C0F239340DA433B6981
:101C500013403B613B681B697A6907210A40920087
:101C600093403A6913433B617B69DA087B68083229
:101C700092003969D1507B681B683B617B695B00CE
:101C80001A1C03239340DA433B6913403B613B68D2
:101C90005B68032213407A69520093403A69134308
:101CA0003B617B683A691A603B685B68012B0BD02B
:101CB0003B685B68022B07D03B685B68112B03D045
:101CC0003B685B68122B2FD17B689B683B617B690B
:101CD0005B001A1C03239340DA433B6913403B61CA
:101CE0003B68DB687A69520093403A6913433B6171
:101CF0007B683A699A607B685B683B617B6901221B
:101D00009A40131CDA433B6913403B613B685B68B4
:101D1000102213401A097B699A40131C3A69134335
:101D20003B617B683A695A607B68DB683B617B6931
:101D30005B001A1C03239340DA433B6913403B6169
:101D40003B689B687A69520093403A6913433B6150
:101D50007B683A69DA603B685A6880235B05134008
:101D600000D194E0504B504A926901210A439A6194
:101D70004D4B9B6901221340BB60BB684B4A7B699A
:101D80009B0802339B009B583B617B6903221340F5
:101D90009B001A1C0F239340DA433B6913403B61BD
:101DA0007A689023DB059A420DD07B68404A9342C3
:101DB00007D07B683F4A934201D1022304E0052308
:101DC00002E0012300E000237A6903210A40920027
:101DD00093403A6913433B6134497B699B08023362
:101DE0009B003A695A50344B1B683B61FB68DA43ED
:101DF0003B6913403B613B685A6880235B02134098
:101E000003D03A69FB6813433B612B4B3A691A6074
:101E1000294B5B683B61FB68DA433B6913403B61DC
:101E20003B685A6880239B02134003D03A69FB68E1
:101E300013433B61204B3A695A601F4B9B683B61DF
:101E4000FB68DA433B6913403B613B685A68802377
:101E50005B03134003D03A69FB6813433B61164BA5
:101E60003A699A60144BDB683B61FB68DA433B6973
:101E700013403B613B685A6880239B03134003D0A7
:101E80003A69FB6813433B610B4B3A69DA607B6943
:101E900001337B613B681A687B69DA40131E00D00E
:101EA000B2E6BD4606B080BD001002400000014011
:101EB000000400480008004800040140B0B582B0AA
:101EC00000AF021C3960FB1D1A70FB1D1B787F2BB5
:101ED0002FD92D4CFB1D1B781A1C0F231340083BD8
:101EE0009908294AFB1D1B78181C0F230340083B47
:101EF0009B0806339B00D3185B68FA1D1278101CF0
:101F000003220240D200101CFF228240D2431A401A
:101F10003B689B01FF200340F81D0078051C03204F
:101F20002840C00083401A438B1D9B00E3185A6071
:101F300026E0164CFB1D1B785BB29B081349FA1D6B
:101F4000127852B29208C03292005258F91D0978A4
:101F5000081C03210140C900081CFF218140C9431E
:101F600011403A689201FF200240F81D0078051CDC
:101F700003202840C00082400A43C0339B001A510E
:101F8000BD4602B0B0BDC04600ED00E000E100E09B
:101F900080B582B000AF78607B68013B0C4A934209
:101FA00001D9012310E00B4B7A68013A5A600123F2
:101FB0005B42181C0321FFF781FF064B00229A6049
:101FC000044B07221A600023181CBD4602B080BDD6
:101FD000FFFFFF0010E000E080B584B000AFB96003
:101FE0007A600F23FB18021C1A700F23FB180022C3
:101FF0009A56BB68101C191CFFF760FFBD4604B061
:1020000080BDC04680B582B000AF78607B68181C88
:10201000FFF7BEFF031C181CBD4602B080BDC046C2
:1020200080B582B000AF78607B68042B06D1084B86
:10203000074A126804210A431A6005E0044B044A67
:10204000126804218A431A60BD4602B080BDC046B2
:1020500010E000E080B500AF00F002F8BD4680BDA2
:1020600080B500AFBD4680BD80B584B000AF78605C
:102070000023FB600023BB607B68002B01D10123A0
:1020800011E17B6839229B5CDBB2002B07D17B68B6
:102090003822002199547B68181CFFF703FA7B68EB
:1020A0003922022199547B681B687A681268126889
:1020B00002218A431A607B681B687A68126812687A
:1020C00001210A431A60FFF773FD031CBB6010E097
:1020D000FFF76EFD021CBB68D31A0A2B09D97B6877
:1020E0003922032199547B68382200219954032313
:1020F000D9E07B681B685B6801221340E8D07B68ED
:102100001B685B680122134000D1BBE07B689B69C0
:10211000012B08D17B681B687A68126812688021DD
:102120000A431A6007E07B681B687A6812681268C5
:1021300080218A431A607B68DB69012B08D17B68A8
:102140001B687A681268126840210A431A6007E027
:102150007B681B687A681268126840218A431A609B
:102160007B681B6A012B08D17B681B687A68126840
:10217000126820210A431A6007E07B681B687A68AE
:102180001268126820218A431A607B685B6A012BFF
:1021900008D17B681B687A681268126810210A43AC
:1021A0001A6007E07B681B687A6812681268102161
:1021B0008A431A607B689B6A012B08D17B681B6885
:1021C0007A681268126808210A431A6007E07B687F
:1021D0001B687A681268126808218A431A607B6853
:1021E000DB6A012B08D17B681B687A681268126869
:1021F00004210A431A6007E07B681B687A6812684A
:10220000126804218A431A607B681B687A689168A7
:102210007A68D26811437A68126911437A68526900
:1022200011437A685268013A0A43DA617B681B6895
:102230007A681268126801218A431A60FFF7B8FCB5
:10224000031CBB6010E0FFF7B3FC021CBB68D31A91
:102250000A2B09D97B683922032199547B683822DB
:102260000021995403231EE07B681B685B680122F0
:102270001340E8D17B681B685B680122134001D1E1
:102280000123FB60FB68012B08D17B680022DA6325
:102290007B68392201219954002304E07B683922AC
:1022A000042199540123181CBD4604B080BDC046CA
:1022B00080B584B000AF786039600023FB603B6874
:1022C0005B691A1C01239340FB607B681A687B687A
:1022D000196880239B00CB580121194380239B0060
:1022E000D1507B681A687B68196880239B00CB58A3
:1022F0007149194080239B00D1507B681A687B6824
:10230000196880239B00C9583B685B6A1B0219430C
:1023100080239B00D1507B681A687B6819688723EB
:102320009B00CB58F968C943194087239B00D150C3
:102330003B68DB69002B2DD17B681A687B681968C4
:1023400083239B00CB58F968C943194083239B0022
:10235000D1507B681A683B6858693B68DB68190490
:102360003B685B681B041B0C1943031C4833DB00F0
:1023700099507B6819683B6858693B689B681A04E8
:102380003B681B681B041B0C1A43031C4833DB000F
:10239000CB185A603B68DB69012B2CD17B681A682B
:1023A0007B68196883239B00C958FB681943832302
:1023B0009B00D1507B681A683B6858693B681B6872
:1023C00019043B685B681B041B0C1943031C48334E
:1023D000DB0099507B6819683B6858693B689B68CB
:1023E0001A043B68DB681B041B0C1A43031C4833AC
:1023F000DB00CB185A603B689B69002B0DD17B68D2
:102400001A687B68196881239B00CB58F968C94317
:10241000194081239B00D1500BE07B681A687B68D0
:10242000196881239B00C958FB68194381239B00CD
:10243000D1503B681B69002B0CD17B681A687B6804
:10244000196885239B00CB58F968C9431940852337
:102450009B00D1503B681B69012B0BD17B681A682C
:102460007B68196885239B00C958FB68194385233D
:102470009B00D1503B681B6A012B0BD17B681A680B
:102480007B68196887239B00C958FB681943872319
:102490009B00D1507B681A687B68196880239B0079
:1024A000CB5801218B43191C80239B00D150002362
:1024B000181CBD4604B080BDFFC0FFFF80B584B0CE
:1024C00000AF78600023FB607B681B68012213402B
:1024D00000D1ACE0C24B5B680C221340042B0ED041
:1024E000BF4B5B680C221340082B16D1BC4B5A68BB
:1024F000C0235B021A4080235B029A420DD1B84B85
:102500001A6880239B02134006D07B685B68002B0F
:1025100002D1012300F046FB89E0B14BB04A1268BA
:10252000B0490A401A60AE4BAD4A1268AE490A4043
:102530001A60FFF73DFB031CFB6009E0FFF738FB67
:10254000021CFB68D31A642B02D9032300F02AFB78
:10255000A34B1A6880239B021340EFD17B685B6812
:10256000012B07D19E4B9E4A1268802149020A43E3
:102570001A602FE07B685B68002B0CD1984B984A5F
:10258000126898490A401A60954B954A1268964914
:102590000A401A601EE07B685B68052B0ED1904BE9
:1025A0008F4A12688021C9020A431A608C4B8C4AF8
:1025B0001268802149020A431A600BE0884B884A5E
:1025C000126888490A401A60854B854A1268864914
:1025D0000A401A607B685B68002B14D0FFF7E8FAAA
:1025E000031CFB6008E0FFF7E3FA021CFB68D31A48
:1025F000642B01D90323D5E2794B1A6880239B020F
:102600001340F0D013E0FFF7D3FA031CFB6008E09F
:10261000FFF7CEFA021CFB68D31A642B01D90323FF
:10262000C0E26F4B1A6880239B021340F0D17B6895
:102630001B680222134000D16CE0694B5B680C22DE
:1026400013400ED0664B5B680C221340082B1FD141
:10265000634B5A68C0235B021A4080231B029A42D4
:1026600016D15F4B1B680222134005D07B68DB68E4
:10267000012B01D0012395E2594A594B1B68F821DF
:102680008B43191C7B681B69DB000B43136041E023
:102690007B68DB68002B24D0514B514A1268012122
:1026A0000A431A60FFF784FA031CFB6008E0FFF797
:1026B0007FFA021CFB68D31A022B01D9032371E2B3
:1026C000474B1B6802221340F1D0454A444B1B681C
:1026D000F8218B43191C7B681B69DB000B431360DB
:1026E00018E03F4B3E4A126801218A431A60FFF707
:1026F0005FFA031CFB6008E0FFF75AFA021CFB6854
:10270000D31A022B01D903234CE2354B1B6802225A
:102710001340F1D17B681B680822134036D07B68D8
:102720001B6A002B19D02E4B2D4A526A01210A43F5
:102730005A62FFF73DFA031CFB6008E0FFF738FA26
:10274000021CFB68D31A022B01D903232AE2244B73
:102750005B6A02221340F1D018E0214B204A526AF2
:1027600001218A435A62FFF723FA031CFB6008E049
:10277000FFF71EFA021CFB68D31A022B01D90323B0
:1027800010E2174B5B6A02221340F1D17B681B6891
:102790000422134000D1B7E0114B114AD2698021C5
:1027A00049050A43DA610E4BDA6980235B05134061
:1027B000BB60BB680D4B0D4A1268802149000A437B
:1027C0001A60FFF7F5F9031CFB6011E0FFF7F0F961
:1027D000021CFB68D31A642B0AD90323E2E1C0462A
:1027E00000100240FFFFFEFFFFFFFBFF00700040F4
:1027F000BC4B1A6880235B001340E7D0BA4BBA4A3F
:10280000126A01218A431A62B74BB74A126A04213D
:102810008A431A62FFF7CCF9031CFB6009E0FFF75B
:10282000C7F9021CFB68D31AB04A934201D90323AB
:10283000B8E1AD4B1B6A02221340F0D17B689B6864
:10284000012B06D1A84BA84A126A01210A431A6239
:102850002DE07B689B68002B0CD1A34BA24A126A27
:1028600001218A431A62A04B9F4A126A04218A43BB
:102870001A621CE07B689B68052B0CD19A4B9A4A24
:10288000126A04210A431A62974B974A126A01217D
:102890000A431A620BE0944B934A126A01218A435D
:1028A0001A62914B904A126A04218A431A627B6829
:1028B0009B68002B14D0FFF77BF9031CFB6009E039
:1028C000FFF776F9021CFB68D31A884A934201D9B4
:1028D000032367E1844B1B6A02221340F0D013E00C
:1028E000FFF766F9031CFB6009E0FFF761F9021CC2
:1028F000FB68D31A7D4A934201D9032352E17A4BF4
:102900001B6A02221340F0D17B681B68102213401F
:1029100063D07B685B69012B2AD1734B724A526B7F
:1029200004210A435A63704B6F4A526B01210A43D8
:102930005A63FFF73DF9031CFB6008E0FFF738F925
:10294000021CFB68D31A022B01D903232AE1664B30
:102950005B6B02221340F1D0634A634B5B6BF8213F
:102960008B43191C7B689B69DB000B43536334E08A
:102970007B685B69053311D15B4B5B4A526B042169
:102980008A435A63584A584B5B6BF8218B43191C96
:102990007B689B69DB000B4353631EE0524B524A3A
:1029A000526B04210A435A634F4B4F4A526B012129
:1029B0008A435A63FFF7FCF8031CFB6008E0FFF74B
:1029C000F7F8021CFB68D31A022B01D90323E9E0B4
:1029D000454B5B6B02221340F1D17B681B682022C0
:1029E00013405BD0404B5B680C2213400C2B0ED085
:1029F0003D4B5B680C221340082B15D13A4B5A68AB
:102A0000C0235B021A40C0235B029A420CD1364BB2
:102A10005A6B80235B02134005D07B68DB69012B76
:102A200001D00123BEE039E07B68DB69002B1BD0BD
:102A30002D4B2D4A526B802149020A435A63FFF7FE
:102A4000B7F8031CFB6008E0FFF7B2F8021CFB6854
:102A5000D31A022B01D90323A4E0234B5A6B802302
:102A60005B021340F0D019E01F4B1F4A526B204904
:102A70000A405A63FFF79CF8031CFB6008E0FFF76D
:102A800097F8021CFB68D31A022B01D9032389E0B3
:102A9000154B5A6B80235B021340F0D17B685B6A55
:102AA000002B00D17DE0104B5B680C221340082BFB
:102AB00000D174E07B685B6A022B55D10A4B0A4A4D
:102AC00012680C490A401A60FFF772F8031CFB6099
:102AD00012E0FFF76DF8021CFB68D31A022B0BD92A
:102AE00003235FE0007000400010024088130000E4
:102AF000FFFFFEFFFFFFFFFE2C4B1A6880239B04A5
:102B00001340E6D1294A294BDB6A0F218B43191C5C
:102B10007B681B6B0B43D362244A244B5B682449BC
:102B200019407B68D86A7B689B6A03430B435360F8
:102B30001E4B1E4A1268802149040A431A60FFF79F
:102B400037F8031CFB6008E0FFF732F8021CFB6853
:102B5000D31A022B01D9032324E0144B1A688023D3
:102B60009B041340F0D01CE0104B104A126811492E
:102B70000A401A60FFF71CF8031CFB6008E0FFF72F
:102B800017F8021CFB68D31A022B01D9032309E0B2
:102B9000064B1A6880239B041340F0D101E0012307
:102BA00000E00023181CBD4604B080BD00100240A8
:102BB000FF7FC2FFFFFFFFFE80B584B000AF7860EB
:102BC00039600023FB60744B1B6801221A403B688C
:102BD0009A4211D2704B704A126801218A43111C2B
:102BE0003A680A431A606C4B1B6801221A403B6822
:102BF0009A4201D00123CAE07B681B68022213407D
:102C000009D0664A654B5B68F0218B43191C7B68D1
:102C10009B680B4353607B681B680122134000D103
:102C20008AE07B685B68012B07D15C4B1A688023C4
:102C30009B02134020D10123A9E07B685B68022B33
:102C400007D1564B1A6880239B04134014D10123EB
:102C50009DE07B685B68032B07D1504B5A6B802348
:102C60005B02134008D1012391E04C4B1B68022208
:102C7000134001D101238AE0484A484B5B68032195
:102C80008B43191C7B685B680B435360FEF790FF16
:102C9000031CFB607B685B68012B11D109E0FEF728
:102CA00087FF021CFB68D31A3D4A934201D90323D4
:102CB0006DE03A4B5B680C221340042BEFD13BE0F4
:102CC0007B685B68022B11D109E0FEF771FF021CE3
:102CD000FB68D31A324A934201D9032357E02F4BA2
:102CE0005B680C221340082BEFD125E07B685B6802
:102CF000032B11D109E0FEF75BFF021CFB68D31A1E
:102D0000274A934201D9032341E0244B5B680C22FC
:102D100013400C2BEFD10FE009E0FEF749FF021C36
:102D2000FB68D31A1E4A934201D903232FE01B4BA1
:102D30005B680C221340F0D1174B1B6801221A402C
:102D40003B689A4211D9144B134A126801218A43F5
:102D5000111C3A680A431A600F4B1B6801221A4083
:102D60003B689A4201D0012311E07B681B68042272
:102D7000134008D0094A094B5B680A4919407B682F
:102D8000DB680B4353600020FEF7E8FE0023181CAD
:102D9000BD4604B080BDC046002002400010024085
:102DA00088130000FFF8FFFF80B58EB000AF14233A
:102DB000FA183B4B111C1A1C1023081C111C1A1C5E
:102DC00000F058F93A1D374B111C1A1C1023081C2F
:102DD000111C1A1C00F04EF90023FB620023BB6299
:102DE00000237B6300237B6200233B632E4B5B68E5
:102DF000FB62FB6A0C221340082B06D00C2B44D03C
:102E0000042B45D1294B3B6345E0FA6AF0239B0331
:102E100013409B0C1422BA18D35C7B62224BDB6AF2
:102E20000F2213403A1DD35CBB62FA6AC0235B02D7
:102E30001A4080235B029A4209D11C48B96AFDF707
:102E400099F9031C1A1C7B6A53437B631AE0FA6AE4
:102E5000C0235B021A40C0235B029A4209D1144886
:102E6000B96AFDF787F9031C1A1C7B6A53437B631D
:102E700008E00E48B96AFDF77DF9031C1A1C7B6A4D
:102E800053437B637B6B3B6305E0094B3B6302E091
:102E9000064B3B63C0463B6B181CBD460EB080BD65
:102EA000FC3100080C3200080010024000127A00C9
:102EB000006CDC0280B500AFFFF776FF011C084B09
:102EC0005B68F02213401B09064AD35C0A1CDA40F7
:102ED000054B1A60044B1B68181CBD4680BDC046DC
:102EE000001002401C3200080000002080B500AF36
:102EF0001A4B1A4A126801210A431A60174B174AE3
:102F0000526817490A405A60144B144A126815490E
:102F10000A401A60114B114A126813490A401A609C
:102F20000E4B0E4A526811490A405A600B4B0B4A2D
:102F3000D26A0F218A43DA62084B084A126B0C49A5
:102F40000A401A63054B054A526B01218A435A63B2
:102F5000024B00229A60BD4680BDC0460010024070
:102F60000CB8FF08FFFFF6FEFFFFFBFFFFFFC0FFEF
:102F70002CFEFFFF1348854604200168090E1F221E
:102F8000914205D1104801210160104800210160E3
:102F9000002103E00E4B5B58435004310D480E4BAB
:102FA00042189A42F6D30D4A02E00023136004321D
:102FB0000B4B9A42F9D3FFF799FF00F037F8FDF772
:102FC0005BFAFEE7001800201810024000000140E4
:102FD00040320008000000203004002030040020AF
:102FE000DC040020FEE7000008B5011C00220020E0
:102FF000002300F07DF808BD38B5094B094CE41AF0
:10300000A41009D0084AA518AD00ED182B68013CA2
:103010009847043D002CF9D100F0E6F838BDC046D1
:103020003C32000840320008FFFFFF3F70B50D4EF4
:103030000D4D0024AD1BAD1005D0A300F358013495
:103040009847A542F9D100F0C9F8084E084D002470
:10305000AD1BAD1005D0A300F35801349847A5422D
:10306000F9D170BD3432000834320008343200081F
:103070003C32000870B50F2A32D9041C0C430B1CDB
:10308000A40731D1151C041C103D2D0901352D015B
:1030900049191E6826605E6866609E68A660DE68E4
:1030A0001033E66010349942F3D10F2345191340D1
:1030B000032B1BD91C1F0023A4080134A400CE58E5
:1030C000EE500433A342FAD1ED18C91803231A4075
:1030D00005D00023CC5CEC5401339342FAD170BD8F
:1030E000051C002AF5D1FAE7051CF2E71A1CF8E7DF
:1030F000F8B544465F4656464D469B462F4BF0B4C6
:103100001C68A4235B00051CE0580E1C9046002898
:103110004BD043681F2B0DDC5C1C002D21D10233EA
:103120009B0044601E5000203CBC90469946A2463D
:10313000AB46F8BD224B002B3CD0C820400000E03D
:1031400000BF002836D0A42200235200A1584360BB
:103150000160A05040328350043283500124002D7E
:10316000DDD09A0091468144424688214F467A50EC
:10317000C4225200904680444246873999401268E2
:103180008A460A4394464246614611608422494673
:103190005F4652008F50022DC1D1021C55468D3220
:1031A000FF3211680D431560B9E7201C4D30FF3028
:1031B000E050AEE701204042B6E7C046303200089A
:1031C0000000000008B5034B002B02D00248FFF7B7
:1031D0000BFF08BD00000000F92F0008F8B5C0463D
:1031E000F8BC08BC9E467047F8B5C046F8BC08BCA1
:0431F0009E46704740
:1031F40050756E6B210000000203040506070809E0
:103204000A0B0C0D0E0F101001020304050607082B
:10321400090A0B0C0D0E0F1000000000010203043C
:103224000102030406070809430000000800002007
:08323400C53100083901000852
:04323C000D01000878
:1032400000127A000000000000000000F4020020DC
:103250005C030020C4030020000000000000000008
:10326000000000000000000000000000000000005E
:103270000000000000000000000000002C320008E8
:10328000000000000000000000000000000000003E
:10329000000000000000000000000000000000002E
:1032A000000000000000000000000000000000001E
:1032B000000000000000000000000000000000000E
:1032C00000000000000000000000000000000000FE
:1032D00000000000000000000000000000000000EE
:1032E00000000000000000000000000000000000DE
:1032F00001000000000000000E33CDAB34126DE67B
:10330000ECDE05000B0000000000000000000000E3
:1033100000000000000000000000000000000000AD
:10332000000000000000000000000000000000009D
:10333000000000000000000000000000000000008D
:10334000000000000000000000000000000000007D
:0400000508002F754B
:00000001FF
